{
  "_format": "hh-sol-artifact-1",
  "contractName": "Saucey",
  "sourceName": "contracts/BadgeToken.sol",
  "abi": [
    {
      "inputs": [],
      "stateMutability": "nonpayable",
      "type": "constructor"
    },
    {
      "anonymous": false,
      "inputs": [
        {
          "indexed": true,
          "internalType": "address",
          "name": "owner",
          "type": "address"
        },
        {
          "indexed": true,
          "internalType": "address",
          "name": "approved",
          "type": "address"
        },
        {
          "indexed": true,
          "internalType": "uint256",
          "name": "tokenId",
          "type": "uint256"
        }
      ],
      "name": "Approval",
      "type": "event"
    },
    {
      "anonymous": false,
      "inputs": [
        {
          "indexed": true,
          "internalType": "address",
          "name": "owner",
          "type": "address"
        },
        {
          "indexed": true,
          "internalType": "address",
          "name": "operator",
          "type": "address"
        },
        {
          "indexed": false,
          "internalType": "bool",
          "name": "approved",
          "type": "bool"
        }
      ],
      "name": "ApprovalForAll",
      "type": "event"
    },
    {
      "anonymous": false,
      "inputs": [
        {
          "indexed": true,
          "internalType": "address",
          "name": "previousOwner",
          "type": "address"
        },
        {
          "indexed": true,
          "internalType": "address",
          "name": "newOwner",
          "type": "address"
        }
      ],
      "name": "OwnershipTransferred",
      "type": "event"
    },
    {
      "anonymous": false,
      "inputs": [
        {
          "indexed": true,
          "internalType": "address",
          "name": "from",
          "type": "address"
        },
        {
          "indexed": true,
          "internalType": "address",
          "name": "to",
          "type": "address"
        },
        {
          "indexed": true,
          "internalType": "uint256",
          "name": "tokenId",
          "type": "uint256"
        }
      ],
      "name": "Transfer",
      "type": "event"
    },
    {
      "inputs": [
        {
          "internalType": "address",
          "name": "to",
          "type": "address"
        },
        {
          "internalType": "uint256",
          "name": "tokenId",
          "type": "uint256"
        }
      ],
      "name": "approve",
      "outputs": [],
      "stateMutability": "nonpayable",
      "type": "function"
    },
    {
      "inputs": [
        {
          "internalType": "address",
          "name": "owner",
          "type": "address"
        }
      ],
      "name": "balanceOf",
      "outputs": [
        {
          "internalType": "uint256",
          "name": "",
          "type": "uint256"
        }
      ],
      "stateMutability": "view",
      "type": "function"
    },
    {
      "inputs": [
        {
          "internalType": "uint256",
          "name": "tokenId",
          "type": "uint256"
        }
      ],
      "name": "getApproved",
      "outputs": [
        {
          "internalType": "address",
          "name": "",
          "type": "address"
        }
      ],
      "stateMutability": "view",
      "type": "function"
    },
    {
      "inputs": [],
      "name": "getBalance",
      "outputs": [
        {
          "internalType": "uint256",
          "name": "",
          "type": "uint256"
        }
      ],
      "stateMutability": "view",
      "type": "function"
    },
    {
      "inputs": [
        {
          "internalType": "address",
          "name": "owner",
          "type": "address"
        },
        {
          "internalType": "address",
          "name": "operator",
          "type": "address"
        }
      ],
      "name": "isApprovedForAll",
      "outputs": [
        {
          "internalType": "bool",
          "name": "",
          "type": "bool"
        }
      ],
      "stateMutability": "view",
      "type": "function"
    },
    {
      "inputs": [
        {
          "internalType": "address",
          "name": "recipient",
          "type": "address"
        },
        {
          "internalType": "string",
          "name": "tokenURI",
          "type": "string"
        },
        {
          "internalType": "string",
          "name": "maybeToken2",
          "type": "string"
        },
        {
          "internalType": "address payable",
          "name": "ref",
          "type": "address"
        }
      ],
      "name": "mintNFT",
      "outputs": [
        {
          "internalType": "uint256",
          "name": "",
          "type": "uint256"
        }
      ],
      "stateMutability": "payable",
      "type": "function"
    },
    {
      "inputs": [],
      "name": "name",
      "outputs": [
        {
          "internalType": "string",
          "name": "",
          "type": "string"
        }
      ],
      "stateMutability": "view",
      "type": "function"
    },
    {
      "inputs": [],
      "name": "owner",
      "outputs": [
        {
          "internalType": "address",
          "name": "",
          "type": "address"
        }
      ],
      "stateMutability": "view",
      "type": "function"
    },
    {
      "inputs": [
        {
          "internalType": "uint256",
          "name": "tokenId",
          "type": "uint256"
        }
      ],
      "name": "ownerOf",
      "outputs": [
        {
          "internalType": "address",
          "name": "",
          "type": "address"
        }
      ],
      "stateMutability": "view",
      "type": "function"
    },
    {
      "inputs": [],
      "name": "renounceOwnership",
      "outputs": [],
      "stateMutability": "nonpayable",
      "type": "function"
    },
    {
      "inputs": [
        {
          "internalType": "address",
          "name": "from",
          "type": "address"
        },
        {
          "internalType": "address",
          "name": "to",
          "type": "address"
        },
        {
          "internalType": "uint256",
          "name": "tokenId",
          "type": "uint256"
        }
      ],
      "name": "safeTransferFrom",
      "outputs": [],
      "stateMutability": "nonpayable",
      "type": "function"
    },
    {
      "inputs": [
        {
          "internalType": "address",
          "name": "from",
          "type": "address"
        },
        {
          "internalType": "address",
          "name": "to",
          "type": "address"
        },
        {
          "internalType": "uint256",
          "name": "tokenId",
          "type": "uint256"
        },
        {
          "internalType": "bytes",
          "name": "_data",
          "type": "bytes"
        }
      ],
      "name": "safeTransferFrom",
      "outputs": [],
      "stateMutability": "nonpayable",
      "type": "function"
    },
    {
      "inputs": [
        {
          "internalType": "address payable",
          "name": "_toSauce",
          "type": "address"
        },
        {
          "internalType": "address payable",
          "name": "_toJare",
          "type": "address"
        },
        {
          "internalType": "uint256",
          "name": "weiSauce",
          "type": "uint256"
        },
        {
          "internalType": "uint256",
          "name": "weiJare",
          "type": "uint256"
        }
      ],
      "name": "sendViaCall",
      "outputs": [],
      "stateMutability": "nonpayable",
      "type": "function"
    },
    {
      "inputs": [
        {
          "internalType": "address",
          "name": "operator",
          "type": "address"
        },
        {
          "internalType": "bool",
          "name": "approved",
          "type": "bool"
        }
      ],
      "name": "setApprovalForAll",
      "outputs": [],
      "stateMutability": "nonpayable",
      "type": "function"
    },
    {
      "inputs": [
        {
          "internalType": "bytes4",
          "name": "interfaceId",
          "type": "bytes4"
        }
      ],
      "name": "supportsInterface",
      "outputs": [
        {
          "internalType": "bool",
          "name": "",
          "type": "bool"
        }
      ],
      "stateMutability": "view",
      "type": "function"
    },
    {
      "inputs": [],
      "name": "symbol",
      "outputs": [
        {
          "internalType": "string",
          "name": "",
          "type": "string"
        }
      ],
      "stateMutability": "view",
      "type": "function"
    },
    {
      "inputs": [
        {
          "internalType": "uint256",
          "name": "tokenId",
          "type": "uint256"
        }
      ],
      "name": "tokenURI",
      "outputs": [
        {
          "internalType": "string",
          "name": "",
          "type": "string"
        }
      ],
      "stateMutability": "view",
      "type": "function"
    },
    {
      "inputs": [
        {
          "internalType": "address",
          "name": "from",
          "type": "address"
        },
        {
          "internalType": "address",
          "name": "to",
          "type": "address"
        },
        {
          "internalType": "uint256",
          "name": "tokenId",
          "type": "uint256"
        }
      ],
      "name": "transferFrom",
      "outputs": [],
      "stateMutability": "nonpayable",
      "type": "function"
    },
    {
      "inputs": [
        {
          "internalType": "address",
          "name": "newOwner",
          "type": "address"
        }
      ],
      "name": "transferOwnership",
      "outputs": [],
      "stateMutability": "nonpayable",
      "type": "function"
    }
  ],
  "bytecode": "0x60806040526000600a553480156200001657600080fd5b506040518060400160405280600681526020017f53617563657900000000000000000000000000000000000000000000000000008152506040518060400160405280600581526020017f534155434500000000000000000000000000000000000000000000000000000081525081600090805190602001906200009b929190620001c2565b508060019080519060200190620000b4929190620001c2565b505050620000d7620000cb620000f460201b60201c565b620000fc60201b60201c565b6201518042620000e8919062000272565b6009819055506200036d565b600033905090565b6000600760009054906101000a900473ffffffffffffffffffffffffffffffffffffffff16905081600760006101000a81548173ffffffffffffffffffffffffffffffffffffffff021916908373ffffffffffffffffffffffffffffffffffffffff1602179055508173ffffffffffffffffffffffffffffffffffffffff168173ffffffffffffffffffffffffffffffffffffffff167f8be0079c531659141344cd1fd0a4f28419497f9722a3daafe3b4186f6b6457e060405160405180910390a35050565b828054620001d090620002d9565b90600052602060002090601f016020900481019282620001f4576000855562000240565b82601f106200020f57805160ff191683800117855562000240565b8280016001018555821562000240579182015b828111156200023f57825182559160200191906001019062000222565b5b5090506200024f919062000253565b5090565b5b808211156200026e57600081600090555060010162000254565b5090565b60006200027f82620002cf565b91506200028c83620002cf565b9250827fffffffffffffffffffffffffffffffffffffffffffffffffffffffffffffffff03821115620002c457620002c36200030f565b5b828201905092915050565b6000819050919050565b60006002820490506001821680620002f257607f821691505b602082108114156200030957620003086200033e565b5b50919050565b7f4e487b7100000000000000000000000000000000000000000000000000000000600052601160045260246000fd5b7f4e487b7100000000000000000000000000000000000000000000000000000000600052602260045260246000fd5b613784806200037d6000396000f3fe6080604052600436106101145760003560e01c806370a08231116100a0578063a85af6fa11610064578063a85af6fa146103a4578063b88d4fde146103cd578063c87b56dd146103f6578063e985e9c514610433578063f2fde38b1461047057610114565b806370a08231146102d1578063715018a61461030e5780638da5cb5b1461032557806395d89b4114610350578063a22cb4651461037b57610114565b806312065fe0116100e757806312065fe0146101e757806323b872dd14610212578063297c44971461023b57806342842e0e1461026b5780636352211e1461029457610114565b806301ffc9a71461011957806306fdde0314610156578063081812fc14610181578063095ea7b3146101be575b600080fd5b34801561012557600080fd5b50610140600480360381019061013b9190612549565b610499565b60405161014d9190612f6e565b60405180910390f35b34801561016257600080fd5b5061016b61057b565b6040516101789190612f89565b60405180910390f35b34801561018d57600080fd5b506101a860048036038101906101a3919061259b565b61060d565b6040516101b59190612f07565b60405180910390f35b3480156101ca57600080fd5b506101e560048036038101906101e0919061250d565b610692565b005b3480156101f357600080fd5b506101fc6107aa565b604051610209919061328b565b60405180910390f35b34801561021e57600080fd5b5061023960048036038101906102349190612374565b6107b2565b005b6102556004803603810190610250919061247a565b610812565b604051610262919061328b565b60405180910390f35b34801561027757600080fd5b50610292600480360381019061028d9190612374565b6109a0565b005b3480156102a057600080fd5b506102bb60048036038101906102b6919061259b565b6109c0565b6040516102c89190612f07565b60405180910390f35b3480156102dd57600080fd5b506102f860048036038101906102f391906122ac565b610a72565b604051610305919061328b565b60405180910390f35b34801561031a57600080fd5b50610323610b2a565b005b34801561033157600080fd5b5061033a610bb2565b6040516103479190612f07565b60405180910390f35b34801561035c57600080fd5b50610365610bdc565b6040516103729190612f89565b60405180910390f35b34801561038757600080fd5b506103a2600480360381019061039d919061243e565b610c6e565b005b3480156103b057600080fd5b506103cb60048036038101906103c691906122d5565b610c84565b005b3480156103d957600080fd5b506103f460048036038101906103ef91906123c3565b610f53565b005b34801561040257600080fd5b5061041d6004803603810190610418919061259b565b610fb5565b60405161042a9190612f89565b60405180910390f35b34801561043f57600080fd5b5061045a60048036038101906104559190612338565b611107565b6040516104679190612f6e565b60405180910390f35b34801561047c57600080fd5b50610497600480360381019061049291906122ac565b61119b565b005b60007f80ac58cd000000000000000000000000000000000000000000000000000000007bffffffffffffffffffffffffffffffffffffffffffffffffffffffff1916827bffffffffffffffffffffffffffffffffffffffffffffffffffffffff1916148061056457507f5b5e139f000000000000000000000000000000000000000000000000000000007bffffffffffffffffffffffffffffffffffffffffffffffffffffffff1916827bffffffffffffffffffffffffffffffffffffffffffffffffffffffff1916145b80610574575061057382611293565b5b9050919050565b60606000805461058a90613562565b80601f01602080910402602001604051908101604052809291908181526020018280546105b690613562565b80156106035780601f106105d857610100808354040283529160200191610603565b820191906000526020600020905b8154815290600101906020018083116105e657829003601f168201915b5050505050905090565b6000610618826112fd565b610657576040517f08c379a000000000000000000000000000000000000000000000000000000000815260040161064e906131ab565b60405180910390fd5b6004600083815260200190815260200160002060009054906101000a900473ffffffffffffffffffffffffffffffffffffffff169050919050565b600061069d826109c0565b90508073ffffffffffffffffffffffffffffffffffffffff168373ffffffffffffffffffffffffffffffffffffffff16141561070e576040517f08c379a00000000000000000000000000000000000000000000000000000000081526004016107059061322b565b60405180910390fd5b8073ffffffffffffffffffffffffffffffffffffffff1661072d611369565b73ffffffffffffffffffffffffffffffffffffffff16148061075c575061075b81610756611369565b611107565b5b61079b576040517f08c379a0000000000000000000000000000000000000000000000000000000008152600401610792906130eb565b60405180910390fd5b6107a58383611371565b505050565b600047905090565b6107c36107bd611369565b8261142a565b610802576040517f08c379a00000000000000000000000000000000000000000000000000000000081526004016107f99061324b565b60405180910390fd5b61080d838383611508565b505050565b600066b1a2bc2ec50000341480156108355750612710610832600861176f565b11155b1561099357610844600861177d565b6000610850600861176f565b905080600a819055506108638682611793565b61086d818661196d565b6009544211158015610885575066b1a2bc2ec5000034145b801561089c5750612710610899600861176f565b11155b156108d3576108ab600861177d565b6108b5600861176f565b905080600a819055506108c88682611793565b6108d2818561196d565b5b6000808473ffffffffffffffffffffffffffffffffffffffff16662386f26fc1000060405161090190612ef2565b60006040518083038185875af1925050503d806000811461093e576040519150601f19603f3d011682016040523d82523d6000602084013e610943565b606091505b509150915081610988576040517f08c379a000000000000000000000000000000000000000000000000000000000815260040161097f9061326b565b60405180910390fd5b829350505050610998565b600080fd5b949350505050565b6109bb83838360405180602001604052806000815250610f53565b505050565b6000806002600084815260200190815260200160002060009054906101000a900473ffffffffffffffffffffffffffffffffffffffff169050600073ffffffffffffffffffffffffffffffffffffffff168173ffffffffffffffffffffffffffffffffffffffff161415610a69576040517f08c379a0000000000000000000000000000000000000000000000000000000008152600401610a609061312b565b60405180910390fd5b80915050919050565b60008073ffffffffffffffffffffffffffffffffffffffff168273ffffffffffffffffffffffffffffffffffffffff161415610ae3576040517f08c379a0000000000000000000000000000000000000000000000000000000008152600401610ada9061310b565b60405180910390fd5b600360008373ffffffffffffffffffffffffffffffffffffffff1673ffffffffffffffffffffffffffffffffffffffff168152602001908152602001600020549050919050565b610b32611369565b73ffffffffffffffffffffffffffffffffffffffff16610b50610bb2565b73ffffffffffffffffffffffffffffffffffffffff1614610ba6576040517f08c379a0000000000000000000000000000000000000000000000000000000008152600401610b9d906131cb565b60405180910390fd5b610bb060006119e1565b565b6000600760009054906101000a900473ffffffffffffffffffffffffffffffffffffffff16905090565b606060018054610beb90613562565b80601f0160208091040260200160405190810160405280929190818152602001828054610c1790613562565b8015610c645780601f10610c3957610100808354040283529160200191610c64565b820191906000526020600020905b815481529060010190602001808311610c4757829003601f168201915b5050505050905090565b610c80610c79611369565b8383611aa7565b5050565b610c8c611369565b73ffffffffffffffffffffffffffffffffffffffff16610caa610bb2565b73ffffffffffffffffffffffffffffffffffffffff1614610d00576040517f08c379a0000000000000000000000000000000000000000000000000000000008152600401610cf7906131cb565b60405180910390fd5b6000603f610d0c6107aa565b610d16919061340c565b905060006020610d246107aa565b610d2e919061340c565b905081606485610d3e919061340c565b10158015610d58575080606484610d55919061340c565b10155b610d97576040517f08c379a0000000000000000000000000000000000000000000000000000000008152600401610d8e906131eb565b60405180910390fd5b8383610da39190613385565b610dab6107aa565b11610deb576040517f08c379a0000000000000000000000000000000000000000000000000000000008152600401610de29061306b565b60405180910390fd5b6000808773ffffffffffffffffffffffffffffffffffffffff1686604051610e1290612ef2565b60006040518083038185875af1925050503d8060008114610e4f576040519150601f19603f3d011682016040523d82523d6000602084013e610e54565b606091505b509150915081610e99576040517f08c379a0000000000000000000000000000000000000000000000000000000008152600401610e9090612fcb565b60405180910390fd5b6000808873ffffffffffffffffffffffffffffffffffffffff1687604051610ec090612ef2565b60006040518083038185875af1925050503d8060008114610efd576040519150601f19603f3d011682016040523d82523d6000602084013e610f02565b606091505b509150915081610f47576040517f08c379a0000000000000000000000000000000000000000000000000000000008152600401610f3e90612fab565b60405180910390fd5b50505050505050505050565b610f64610f5e611369565b8361142a565b610fa3576040517f08c379a0000000000000000000000000000000000000000000000000000000008152600401610f9a9061324b565b60405180910390fd5b610faf84848484611c14565b50505050565b6060610fc0826112fd565b610fff576040517f08c379a0000000000000000000000000000000000000000000000000000000008152600401610ff69061318b565b60405180910390fd5b600060066000848152602001908152602001600020805461101f90613562565b80601f016020809104026020016040519081016040528092919081815260200182805461104b90613562565b80156110985780601f1061106d57610100808354040283529160200191611098565b820191906000526020600020905b81548152906001019060200180831161107b57829003601f168201915b5050505050905060006110a9611c70565b90506000815114156110bf578192505050611102565b6000825111156110f45780826040516020016110dc929190612ece565b60405160208183030381529060405292505050611102565b6110fd84611c87565b925050505b919050565b6000600560008473ffffffffffffffffffffffffffffffffffffffff1673ffffffffffffffffffffffffffffffffffffffff16815260200190815260200160002060008373ffffffffffffffffffffffffffffffffffffffff1673ffffffffffffffffffffffffffffffffffffffff16815260200190815260200160002060009054906101000a900460ff16905092915050565b6111a3611369565b73ffffffffffffffffffffffffffffffffffffffff166111c1610bb2565b73ffffffffffffffffffffffffffffffffffffffff1614611217576040517f08c379a000000000000000000000000000000000000000000000000000000000815260040161120e906131cb565b60405180910390fd5b600073ffffffffffffffffffffffffffffffffffffffff168173ffffffffffffffffffffffffffffffffffffffff161415611287576040517f08c379a000000000000000000000000000000000000000000000000000000000815260040161127e9061300b565b60405180910390fd5b611290816119e1565b50565b60007f01ffc9a7000000000000000000000000000000000000000000000000000000007bffffffffffffffffffffffffffffffffffffffffffffffffffffffff1916827bffffffffffffffffffffffffffffffffffffffffffffffffffffffff1916149050919050565b60008073ffffffffffffffffffffffffffffffffffffffff166002600084815260200190815260200160002060009054906101000a900473ffffffffffffffffffffffffffffffffffffffff1673ffffffffffffffffffffffffffffffffffffffff1614159050919050565b600033905090565b816004600083815260200190815260200160002060006101000a81548173ffffffffffffffffffffffffffffffffffffffff021916908373ffffffffffffffffffffffffffffffffffffffff160217905550808273ffffffffffffffffffffffffffffffffffffffff166113e4836109c0565b73ffffffffffffffffffffffffffffffffffffffff167f8c5be1e5ebec7d5bd14f71427d1e84f3dd0314c0f7b2291e5b200ac8c7c3b92560405160405180910390a45050565b6000611435826112fd565b611474576040517f08c379a000000000000000000000000000000000000000000000000000000000815260040161146b906130cb565b60405180910390fd5b600061147f836109c0565b90508073ffffffffffffffffffffffffffffffffffffffff168473ffffffffffffffffffffffffffffffffffffffff1614806114c157506114c08185611107565b5b806114ff57508373ffffffffffffffffffffffffffffffffffffffff166114e78461060d565b73ffffffffffffffffffffffffffffffffffffffff16145b91505092915050565b8273ffffffffffffffffffffffffffffffffffffffff16611528826109c0565b73ffffffffffffffffffffffffffffffffffffffff161461157e576040517f08c379a00000000000000000000000000000000000000000000000000000000081526004016115759061302b565b60405180910390fd5b600073ffffffffffffffffffffffffffffffffffffffff168273ffffffffffffffffffffffffffffffffffffffff1614156115ee576040517f08c379a00000000000000000000000000000000000000000000000000000000081526004016115e59061308b565b60405180910390fd5b6115f9838383611d2e565b611604600082611371565b6001600360008573ffffffffffffffffffffffffffffffffffffffff1673ffffffffffffffffffffffffffffffffffffffff16815260200190815260200160002060008282546116549190613466565b925050819055506001600360008473ffffffffffffffffffffffffffffffffffffffff1673ffffffffffffffffffffffffffffffffffffffff16815260200190815260200160002060008282546116ab9190613385565b92505081905550816002600083815260200190815260200160002060006101000a81548173ffffffffffffffffffffffffffffffffffffffff021916908373ffffffffffffffffffffffffffffffffffffffff160217905550808273ffffffffffffffffffffffffffffffffffffffff168473ffffffffffffffffffffffffffffffffffffffff167fddf252ad1be2c89b69c2b068fc378daa952ba7f163c4a11628f55a4df523b3ef60405160405180910390a461176a838383611d33565b505050565b600081600001549050919050565b6001816000016000828254019250508190555050565b600073ffffffffffffffffffffffffffffffffffffffff168273ffffffffffffffffffffffffffffffffffffffff161415611803576040517f08c379a00000000000000000000000000000000000000000000000000000000081526004016117fa9061316b565b60405180910390fd5b61180c816112fd565b1561184c576040517f08c379a00000000000000000000000000000000000000000000000000000000081526004016118439061304b565b60405180910390fd5b61185860008383611d2e565b6001600360008473ffffffffffffffffffffffffffffffffffffffff1673ffffffffffffffffffffffffffffffffffffffff16815260200190815260200160002060008282546118a89190613385565b92505081905550816002600083815260200190815260200160002060006101000a81548173ffffffffffffffffffffffffffffffffffffffff021916908373ffffffffffffffffffffffffffffffffffffffff160217905550808273ffffffffffffffffffffffffffffffffffffffff16600073ffffffffffffffffffffffffffffffffffffffff167fddf252ad1be2c89b69c2b068fc378daa952ba7f163c4a11628f55a4df523b3ef60405160405180910390a461196960008383611d33565b5050565b611976826112fd565b6119b5576040517f08c379a00000000000000000000000000000000000000000000000000000000081526004016119ac9061314b565b60405180910390fd5b806006600084815260200190815260200160002090805190602001906119dc9291906120bb565b505050565b6000600760009054906101000a900473ffffffffffffffffffffffffffffffffffffffff16905081600760006101000a81548173ffffffffffffffffffffffffffffffffffffffff021916908373ffffffffffffffffffffffffffffffffffffffff1602179055508173ffffffffffffffffffffffffffffffffffffffff168173ffffffffffffffffffffffffffffffffffffffff167f8be0079c531659141344cd1fd0a4f28419497f9722a3daafe3b4186f6b6457e060405160405180910390a35050565b8173ffffffffffffffffffffffffffffffffffffffff168373ffffffffffffffffffffffffffffffffffffffff161415611b16576040517f08c379a0000000000000000000000000000000000000000000000000000000008152600401611b0d906130ab565b60405180910390fd5b80600560008573ffffffffffffffffffffffffffffffffffffffff1673ffffffffffffffffffffffffffffffffffffffff16815260200190815260200160002060008473ffffffffffffffffffffffffffffffffffffffff1673ffffffffffffffffffffffffffffffffffffffff16815260200190815260200160002060006101000a81548160ff0219169083151502179055508173ffffffffffffffffffffffffffffffffffffffff168373ffffffffffffffffffffffffffffffffffffffff167f17307eab39ab6107e8899845ad3d59bd9653f200f220920489ca2b5937696c3183604051611c079190612f6e565b60405180910390a3505050565b611c1f848484611508565b611c2b84848484611d38565b611c6a576040517f08c379a0000000000000000000000000000000000000000000000000000000008152600401611c6190612feb565b60405180910390fd5b50505050565b606060405180602001604052806000815250905090565b6060611c92826112fd565b611cd1576040517f08c379a0000000000000000000000000000000000000000000000000000000008152600401611cc89061320b565b60405180910390fd5b6000611cdb611c70565b90506000815111611cfb5760405180602001604052806000815250611d26565b80611d0584611ecf565b604051602001611d16929190612ece565b6040516020818303038152906040525b915050919050565b505050565b505050565b6000611d598473ffffffffffffffffffffffffffffffffffffffff1661207c565b15611ec2578373ffffffffffffffffffffffffffffffffffffffff1663150b7a02611d82611369565b8786866040518563ffffffff1660e01b8152600401611da49493929190612f22565b602060405180830381600087803b158015611dbe57600080fd5b505af1925050508015611def57506040513d601f19601f82011682018060405250810190611dec9190612572565b60015b611e72573d8060008114611e1f576040519150601f19603f3d011682016040523d82523d6000602084013e611e24565b606091505b50600081511415611e6a576040517f08c379a0000000000000000000000000000000000000000000000000000000008152600401611e6190612feb565b60405180910390fd5b805181602001fd5b63150b7a0260e01b7bffffffffffffffffffffffffffffffffffffffffffffffffffffffff1916817bffffffffffffffffffffffffffffffffffffffffffffffffffffffff191614915050611ec7565b600190505b949350505050565b60606000821415611f17576040518060400160405280600181526020017f30000000000000000000000000000000000000000000000000000000000000008152509050612077565b600082905060005b60008214611f49578080611f3290613594565b915050600a82611f4291906133db565b9150611f1f565b60008167ffffffffffffffff811115611f8b577f4e487b7100000000000000000000000000000000000000000000000000000000600052604160045260246000fd5b6040519080825280601f01601f191660200182016040528015611fbd5781602001600182028036833780820191505090505b5090505b6000851461207057600182611fd69190613466565b9150600a85611fe591906135dd565b6030611ff19190613385565b60f81b81838151811061202d577f4e487b7100000000000000000000000000000000000000000000000000000000600052603260045260246000fd5b60200101907effffffffffffffffffffffffffffffffffffffffffffffffffffffffffffff1916908160001a905350600a8561206991906133db565b9450611fc1565b8093505050505b919050565b6000808273ffffffffffffffffffffffffffffffffffffffff16803b806020016040519081016040528181526000908060200190933c51119050919050565b8280546120c790613562565b90600052602060002090601f0160209004810192826120e95760008555612130565b82601f1061210257805160ff1916838001178555612130565b82800160010185558215612130579182015b8281111561212f578251825591602001919060010190612114565b5b50905061213d9190612141565b5090565b5b8082111561215a576000816000905550600101612142565b5090565b600061217161216c846132d7565b6132a6565b90508281526020810184848401111561218957600080fd5b612194848285613520565b509392505050565b60006121af6121aa84613307565b6132a6565b9050828152602081018484840111156121c757600080fd5b6121d2848285613520565b509392505050565b6000813590506121e9816136db565b92915050565b6000813590506121fe816136f2565b92915050565b60008135905061221381613709565b92915050565b60008135905061222881613720565b92915050565b60008151905061223d81613720565b92915050565b600082601f83011261225457600080fd5b813561226484826020860161215e565b91505092915050565b600082601f83011261227e57600080fd5b813561228e84826020860161219c565b91505092915050565b6000813590506122a681613737565b92915050565b6000602082840312156122be57600080fd5b60006122cc848285016121da565b91505092915050565b600080600080608085870312156122eb57600080fd5b60006122f9878288016121ef565b945050602061230a878288016121ef565b935050604061231b87828801612297565b925050606061232c87828801612297565b91505092959194509250565b6000806040838503121561234b57600080fd5b6000612359858286016121da565b925050602061236a858286016121da565b9150509250929050565b60008060006060848603121561238957600080fd5b6000612397868287016121da565b93505060206123a8868287016121da565b92505060406123b986828701612297565b9150509250925092565b600080600080608085870312156123d957600080fd5b60006123e7878288016121da565b94505060206123f8878288016121da565b935050604061240987828801612297565b925050606085013567ffffffffffffffff81111561242657600080fd5b61243287828801612243565b91505092959194509250565b6000806040838503121561245157600080fd5b600061245f858286016121da565b925050602061247085828601612204565b9150509250929050565b6000806000806080858703121561249057600080fd5b600061249e878288016121da565b945050602085013567ffffffffffffffff8111156124bb57600080fd5b6124c78782880161226d565b935050604085013567ffffffffffffffff8111156124e457600080fd5b6124f08782880161226d565b9250506060612501878288016121ef565b91505092959194509250565b6000806040838503121561252057600080fd5b600061252e858286016121da565b925050602061253f85828601612297565b9150509250929050565b60006020828403121561255b57600080fd5b600061256984828501612219565b91505092915050565b60006020828403121561258457600080fd5b60006125928482850161222e565b91505092915050565b6000602082840312156125ad57600080fd5b60006125bb84828501612297565b91505092915050565b6125cd8161349a565b82525050565b6125dc816134be565b82525050565b60006125ed82613337565b6125f7818561334d565b935061260781856020860161352f565b612610816136ca565b840191505092915050565b600061262682613342565b6126308185613369565b935061264081856020860161352f565b612649816136ca565b840191505092915050565b600061265f82613342565b612669818561337a565b935061267981856020860161352f565b80840191505092915050565b6000612692601683613369565b91507f4661696c656420746f2073656e64206a617265657468000000000000000000006000830152602082019050919050565b60006126d2601783613369565b91507f4661696c656420746f2073656e642073617563656574680000000000000000006000830152602082019050919050565b6000612712603283613369565b91507f4552433732313a207472616e7366657220746f206e6f6e20455243373231526560008301527f63656976657220696d706c656d656e74657200000000000000000000000000006020830152604082019050919050565b6000612778602683613369565b91507f4f776e61626c653a206e6577206f776e657220697320746865207a65726f206160008301527f64647265737300000000000000000000000000000000000000000000000000006020830152604082019050919050565b60006127de602583613369565b91507f4552433732313a207472616e736665722066726f6d20696e636f72726563742060008301527f6f776e65720000000000000000000000000000000000000000000000000000006020830152604082019050919050565b6000612844601c83613369565b91507f4552433732313a20746f6b656e20616c7265616479206d696e746564000000006000830152602082019050919050565b6000612884602683613369565b91507f4465727020796f752063616e6e6f74207769746864726177206d6f617220746860008301527f616e2068617300000000000000000000000000000000000000000000000000006020830152604082019050919050565b60006128ea602483613369565b91507f4552433732313a207472616e7366657220746f20746865207a65726f2061646460008301527f72657373000000000000000000000000000000000000000000000000000000006020830152604082019050919050565b6000612950601983613369565b91507f4552433732313a20617070726f766520746f2063616c6c6572000000000000006000830152602082019050919050565b6000612990602c83613369565b91507f4552433732313a206f70657261746f7220717565727920666f72206e6f6e657860008301527f697374656e7420746f6b656e00000000000000000000000000000000000000006020830152604082019050919050565b60006129f6603883613369565b91507f4552433732313a20617070726f76652063616c6c6572206973206e6f74206f7760008301527f6e6572206e6f7220617070726f76656420666f7220616c6c00000000000000006020830152604082019050919050565b6000612a5c602a83613369565b91507f4552433732313a2062616c616e636520717565727920666f7220746865207a6560008301527f726f2061646472657373000000000000000000000000000000000000000000006020830152604082019050919050565b6000612ac2602983613369565b91507f4552433732313a206f776e657220717565727920666f72206e6f6e657869737460008301527f656e7420746f6b656e00000000000000000000000000000000000000000000006020830152604082019050919050565b6000612b28602e83613369565b91507f45524337323155524953746f726167653a2055524920736574206f66206e6f6e60008301527f6578697374656e7420746f6b656e0000000000000000000000000000000000006020830152604082019050919050565b6000612b8e602083613369565b91507f4552433732313a206d696e7420746f20746865207a65726f20616464726573736000830152602082019050919050565b6000612bce603183613369565b91507f45524337323155524953746f726167653a2055524920717565727920666f722060008301527f6e6f6e6578697374656e7420746f6b656e0000000000000000000000000000006020830152604082019050919050565b6000612c34602c83613369565b91507f4552433732313a20617070726f76656420717565727920666f72206e6f6e657860008301527f697374656e7420746f6b656e00000000000000000000000000000000000000006020830152604082019050919050565b6000612c9a602083613369565b91507f4f776e61626c653a2063616c6c6572206973206e6f7420746865206f776e65726000830152602082019050919050565b6000612cda603283613369565b91507f4465727020676f20626967206f7220676f20686f6d6520414e4420616468657260008301527f6520746f207468652025732066656c6c617300000000000000000000000000006020830152604082019050919050565b6000612d40602f83613369565b91507f4552433732314d657461646174613a2055524920717565727920666f72206e6f60008301527f6e6578697374656e7420746f6b656e00000000000000000000000000000000006020830152604082019050919050565b6000612da6602183613369565b91507f4552433732313a20617070726f76616c20746f2063757272656e74206f776e6560008301527f72000000000000000000000000000000000000000000000000000000000000006020830152604082019050919050565b6000612e0c60008361335e565b9150600082019050919050565b6000612e26603183613369565b91507f4552433732313a207472616e736665722063616c6c6572206973206e6f74206f60008301527f776e6572206e6f7220617070726f7665640000000000000000000000000000006020830152604082019050919050565b6000612e8c601583613369565b91507f4661696c656420746f2073656e642072656665746800000000000000000000006000830152602082019050919050565b612ec881613516565b82525050565b6000612eda8285612654565b9150612ee68284612654565b91508190509392505050565b6000612efd82612dff565b9150819050919050565b6000602082019050612f1c60008301846125c4565b92915050565b6000608082019050612f3760008301876125c4565b612f4460208301866125c4565b612f516040830185612ebf565b8181036060830152612f6381846125e2565b905095945050505050565b6000602082019050612f8360008301846125d3565b92915050565b60006020820190508181036000830152612fa3818461261b565b905092915050565b60006020820190508181036000830152612fc481612685565b9050919050565b60006020820190508181036000830152612fe4816126c5565b9050919050565b6000602082019050818103600083015261300481612705565b9050919050565b600060208201905081810360008301526130248161276b565b9050919050565b60006020820190508181036000830152613044816127d1565b9050919050565b6000602082019050818103600083015261306481612837565b9050919050565b6000602082019050818103600083015261308481612877565b9050919050565b600060208201905081810360008301526130a4816128dd565b9050919050565b600060208201905081810360008301526130c481612943565b9050919050565b600060208201905081810360008301526130e481612983565b9050919050565b60006020820190508181036000830152613104816129e9565b9050919050565b6000602082019050818103600083015261312481612a4f565b9050919050565b6000602082019050818103600083015261314481612ab5565b9050919050565b6000602082019050818103600083015261316481612b1b565b9050919050565b6000602082019050818103600083015261318481612b81565b9050919050565b600060208201905081810360008301526131a481612bc1565b9050919050565b600060208201905081810360008301526131c481612c27565b9050919050565b600060208201905081810360008301526131e481612c8d565b9050919050565b6000602082019050818103600083015261320481612ccd565b9050919050565b6000602082019050818103600083015261322481612d33565b9050919050565b6000602082019050818103600083015261324481612d99565b9050919050565b6000602082019050818103600083015261326481612e19565b9050919050565b6000602082019050818103600083015261328481612e7f565b9050919050565b60006020820190506132a06000830184612ebf565b92915050565b6000604051905081810181811067ffffffffffffffff821117156132cd576132cc61369b565b5b8060405250919050565b600067ffffffffffffffff8211156132f2576132f161369b565b5b601f19601f8301169050602081019050919050565b600067ffffffffffffffff8211156133225761332161369b565b5b601f19601f8301169050602081019050919050565b600081519050919050565b600081519050919050565b600082825260208201905092915050565b600081905092915050565b600082825260208201905092915050565b600081905092915050565b600061339082613516565b915061339b83613516565b9250827fffffffffffffffffffffffffffffffffffffffffffffffffffffffffffffffff038211156133d0576133cf61360e565b5b828201905092915050565b60006133e682613516565b91506133f183613516565b9250826134015761340061363d565b5b828204905092915050565b600061341782613516565b915061342283613516565b9250817fffffffffffffffffffffffffffffffffffffffffffffffffffffffffffffffff048311821515161561345b5761345a61360e565b5b828202905092915050565b600061347182613516565b915061347c83613516565b92508282101561348f5761348e61360e565b5b828203905092915050565b60006134a5826134f6565b9050919050565b60006134b7826134f6565b9050919050565b60008115159050919050565b60007fffffffff0000000000000000000000000000000000000000000000000000000082169050919050565b600073ffffffffffffffffffffffffffffffffffffffff82169050919050565b6000819050919050565b82818337600083830152505050565b60005b8381101561354d578082015181840152602081019050613532565b8381111561355c576000848401525b50505050565b6000600282049050600182168061357a57607f821691505b6020821081141561358e5761358d61366c565b5b50919050565b600061359f82613516565b91507fffffffffffffffffffffffffffffffffffffffffffffffffffffffffffffffff8214156135d2576135d161360e565b5b600182019050919050565b60006135e882613516565b91506135f383613516565b9250826136035761360261363d565b5b828206905092915050565b7f4e487b7100000000000000000000000000000000000000000000000000000000600052601160045260246000fd5b7f4e487b7100000000000000000000000000000000000000000000000000000000600052601260045260246000fd5b7f4e487b7100000000000000000000000000000000000000000000000000000000600052602260045260246000fd5b7f4e487b7100000000000000000000000000000000000000000000000000000000600052604160045260246000fd5b6000601f19601f8301169050919050565b6136e48161349a565b81146136ef57600080fd5b50565b6136fb816134ac565b811461370657600080fd5b50565b613712816134be565b811461371d57600080fd5b50565b613729816134ca565b811461373457600080fd5b50565b61374081613516565b811461374b57600080fd5b5056fea26469706673582212204b17e3c000fdac0a6d4c39935d3a6c4e65a4e0bc56029d94de23b2808efccb1b64736f6c63430008000033",
  "linkReferences": {},
  "deployedLinkReferences": {}
}