{
  "_format": "hh-sol-artifact-1",
  "contractName": "Saucey",
  "sourceName": "contracts/BadgeToken.sol",
  "abi": [
    {
      "inputs": [],
      "stateMutability": "nonpayable",
      "type": "constructor"
    },
    {
      "anonymous": false,
      "inputs": [
        {
          "indexed": true,
          "internalType": "address",
          "name": "owner",
          "type": "address"
        },
        {
          "indexed": true,
          "internalType": "address",
          "name": "approved",
          "type": "address"
        },
        {
          "indexed": true,
          "internalType": "uint256",
          "name": "tokenId",
          "type": "uint256"
        }
      ],
      "name": "Approval",
      "type": "event"
    },
    {
      "anonymous": false,
      "inputs": [
        {
          "indexed": true,
          "internalType": "address",
          "name": "owner",
          "type": "address"
        },
        {
          "indexed": true,
          "internalType": "address",
          "name": "operator",
          "type": "address"
        },
        {
          "indexed": false,
          "internalType": "bool",
          "name": "approved",
          "type": "bool"
        }
      ],
      "name": "ApprovalForAll",
      "type": "event"
    },
    {
      "anonymous": false,
      "inputs": [
        {
          "indexed": true,
          "internalType": "address",
          "name": "previousOwner",
          "type": "address"
        },
        {
          "indexed": true,
          "internalType": "address",
          "name": "newOwner",
          "type": "address"
        }
      ],
      "name": "OwnershipTransferred",
      "type": "event"
    },
    {
      "anonymous": false,
      "inputs": [
        {
          "indexed": true,
          "internalType": "address",
          "name": "from",
          "type": "address"
        },
        {
          "indexed": true,
          "internalType": "address",
          "name": "to",
          "type": "address"
        },
        {
          "indexed": true,
          "internalType": "uint256",
          "name": "tokenId",
          "type": "uint256"
        }
      ],
      "name": "Transfer",
      "type": "event"
    },
    {
      "inputs": [
        {
          "internalType": "address",
          "name": "to",
          "type": "address"
        },
        {
          "internalType": "uint256",
          "name": "tokenId",
          "type": "uint256"
        }
      ],
      "name": "approve",
      "outputs": [],
      "stateMutability": "nonpayable",
      "type": "function"
    },
    {
      "inputs": [
        {
          "internalType": "address",
          "name": "owner",
          "type": "address"
        }
      ],
      "name": "balanceOf",
      "outputs": [
        {
          "internalType": "uint256",
          "name": "",
          "type": "uint256"
        }
      ],
      "stateMutability": "view",
      "type": "function"
    },
    {
      "inputs": [
        {
          "internalType": "uint256",
          "name": "tokenId",
          "type": "uint256"
        }
      ],
      "name": "getApproved",
      "outputs": [
        {
          "internalType": "address",
          "name": "",
          "type": "address"
        }
      ],
      "stateMutability": "view",
      "type": "function"
    },
    {
      "inputs": [],
      "name": "getBalance",
      "outputs": [
        {
          "internalType": "uint256",
          "name": "",
          "type": "uint256"
        }
      ],
      "stateMutability": "view",
      "type": "function"
    },
    {
      "inputs": [
        {
          "internalType": "address",
          "name": "owner",
          "type": "address"
        },
        {
          "internalType": "address",
          "name": "operator",
          "type": "address"
        }
      ],
      "name": "isApprovedForAll",
      "outputs": [
        {
          "internalType": "bool",
          "name": "",
          "type": "bool"
        }
      ],
      "stateMutability": "view",
      "type": "function"
    },
    {
      "inputs": [
        {
          "internalType": "address",
          "name": "recipient",
          "type": "address"
        },
        {
          "internalType": "string",
          "name": "tokenURI",
          "type": "string"
        },
        {
          "internalType": "string",
          "name": "maybeToken2",
          "type": "string"
        },
        {
          "internalType": "address payable",
          "name": "ref",
          "type": "address"
        }
      ],
      "name": "mintNFT",
      "outputs": [
        {
          "internalType": "uint256",
          "name": "",
          "type": "uint256"
        }
      ],
      "stateMutability": "payable",
      "type": "function"
    },
    {
      "inputs": [],
      "name": "name",
      "outputs": [
        {
          "internalType": "string",
          "name": "",
          "type": "string"
        }
      ],
      "stateMutability": "view",
      "type": "function"
    },
    {
      "inputs": [],
      "name": "owner",
      "outputs": [
        {
          "internalType": "address",
          "name": "",
          "type": "address"
        }
      ],
      "stateMutability": "view",
      "type": "function"
    },
    {
      "inputs": [
        {
          "internalType": "uint256",
          "name": "tokenId",
          "type": "uint256"
        }
      ],
      "name": "ownerOf",
      "outputs": [
        {
          "internalType": "address",
          "name": "",
          "type": "address"
        }
      ],
      "stateMutability": "view",
      "type": "function"
    },
    {
      "inputs": [],
      "name": "renounceOwnership",
      "outputs": [],
      "stateMutability": "nonpayable",
      "type": "function"
    },
    {
      "inputs": [
        {
          "internalType": "address",
          "name": "from",
          "type": "address"
        },
        {
          "internalType": "address",
          "name": "to",
          "type": "address"
        },
        {
          "internalType": "uint256",
          "name": "tokenId",
          "type": "uint256"
        }
      ],
      "name": "safeTransferFrom",
      "outputs": [],
      "stateMutability": "nonpayable",
      "type": "function"
    },
    {
      "inputs": [
        {
          "internalType": "address",
          "name": "from",
          "type": "address"
        },
        {
          "internalType": "address",
          "name": "to",
          "type": "address"
        },
        {
          "internalType": "uint256",
          "name": "tokenId",
          "type": "uint256"
        },
        {
          "internalType": "bytes",
          "name": "_data",
          "type": "bytes"
        }
      ],
      "name": "safeTransferFrom",
      "outputs": [],
      "stateMutability": "nonpayable",
      "type": "function"
    },
    {
      "inputs": [
        {
          "internalType": "address payable",
          "name": "_toSauce",
          "type": "address"
        },
        {
          "internalType": "address payable",
          "name": "_toJare",
          "type": "address"
        },
        {
          "internalType": "uint256",
          "name": "weiSauce",
          "type": "uint256"
        },
        {
          "internalType": "uint256",
          "name": "weiJare",
          "type": "uint256"
        }
      ],
      "name": "sendViaCall",
      "outputs": [],
      "stateMutability": "nonpayable",
      "type": "function"
    },
    {
      "inputs": [
        {
          "internalType": "address",
          "name": "operator",
          "type": "address"
        },
        {
          "internalType": "bool",
          "name": "approved",
          "type": "bool"
        }
      ],
      "name": "setApprovalForAll",
      "outputs": [],
      "stateMutability": "nonpayable",
      "type": "function"
    },
    {
      "inputs": [
        {
          "internalType": "bytes4",
          "name": "interfaceId",
          "type": "bytes4"
        }
      ],
      "name": "supportsInterface",
      "outputs": [
        {
          "internalType": "bool",
          "name": "",
          "type": "bool"
        }
      ],
      "stateMutability": "view",
      "type": "function"
    },
    {
      "inputs": [],
      "name": "symbol",
      "outputs": [
        {
          "internalType": "string",
          "name": "",
          "type": "string"
        }
      ],
      "stateMutability": "view",
      "type": "function"
    },
    {
      "inputs": [],
      "name": "testInProd",
      "outputs": [
        {
          "internalType": "uint256",
          "name": "",
          "type": "uint256"
        }
      ],
      "stateMutability": "nonpayable",
      "type": "function"
    },
    {
      "inputs": [
        {
          "internalType": "uint256",
          "name": "tokenId",
          "type": "uint256"
        }
      ],
      "name": "tokenURI",
      "outputs": [
        {
          "internalType": "string",
          "name": "",
          "type": "string"
        }
      ],
      "stateMutability": "view",
      "type": "function"
    },
    {
      "inputs": [
        {
          "internalType": "address",
          "name": "from",
          "type": "address"
        },
        {
          "internalType": "address",
          "name": "to",
          "type": "address"
        },
        {
          "internalType": "uint256",
          "name": "tokenId",
          "type": "uint256"
        }
      ],
      "name": "transferFrom",
      "outputs": [],
      "stateMutability": "nonpayable",
      "type": "function"
    },
    {
      "inputs": [
        {
          "internalType": "address",
          "name": "newOwner",
          "type": "address"
        }
      ],
      "name": "transferOwnership",
      "outputs": [],
      "stateMutability": "nonpayable",
      "type": "function"
    },
    {
      "inputs": [],
      "name": "twophase",
      "outputs": [
        {
          "internalType": "uint256",
          "name": "",
          "type": "uint256"
        }
      ],
      "stateMutability": "view",
      "type": "function"
    },
    {
      "inputs": [],
      "name": "x",
      "outputs": [
        {
          "internalType": "uint256",
          "name": "",
          "type": "uint256"
        }
      ],
      "stateMutability": "view",
      "type": "function"
    }
  ],
  "bytecode": "0x60806040523480156200001157600080fd5b506040518060400160405280600b81526020017f43796265727363617065730000000000000000000000000000000000000000008152506040518060400160405280600581526020017f5341554345000000000000000000000000000000000000000000000000000000815250816000908051906020019062000096929190620001bd565b508060019080519060200190620000af929190620001bd565b505050620000d2620000c6620000ef60201b60201c565b620000f760201b60201c565b6201518042620000e391906200026d565b600a8190555062000368565b600033905090565b6000600760009054906101000a900473ffffffffffffffffffffffffffffffffffffffff16905081600760006101000a81548173ffffffffffffffffffffffffffffffffffffffff021916908373ffffffffffffffffffffffffffffffffffffffff1602179055508173ffffffffffffffffffffffffffffffffffffffff168173ffffffffffffffffffffffffffffffffffffffff167f8be0079c531659141344cd1fd0a4f28419497f9722a3daafe3b4186f6b6457e060405160405180910390a35050565b828054620001cb90620002d4565b90600052602060002090601f016020900481019282620001ef57600085556200023b565b82601f106200020a57805160ff19168380011785556200023b565b828001600101855582156200023b579182015b828111156200023a5782518255916020019190600101906200021d565b5b5090506200024a91906200024e565b5090565b5b80821115620002695760008160009055506001016200024f565b5090565b60006200027a82620002ca565b91506200028783620002ca565b9250827fffffffffffffffffffffffffffffffffffffffffffffffffffffffffffffffff03821115620002bf57620002be6200030a565b5b828201905092915050565b6000819050919050565b60006002820490506001821680620002ed57607f821691505b6020821081141562000304576200030362000339565b5b50919050565b7f4e487b7100000000000000000000000000000000000000000000000000000000600052601160045260246000fd5b7f4e487b7100000000000000000000000000000000000000000000000000000000600052602260045260246000fd5b613b4780620003786000396000f3fe6080604052600436106101355760003560e01c806370a08231116100ab578063a85af6fa1161006f578063a85af6fa1461041b578063b88d4fde14610444578063c87b56dd1461046d578063e75e0422146104aa578063e985e9c5146104d5578063f2fde38b1461051257610135565b806370a0823114610348578063715018a6146103855780638da5cb5b1461039c57806395d89b41146103c7578063a22cb465146103f257610135565b806312065fe0116100fd57806312065fe01461023357806323b872dd1461025e578063297c4497146102875780632f08a91d146102b757806342842e0e146102e25780636352211e1461030b57610135565b806301ffc9a71461013a57806306fdde0314610177578063081812fc146101a2578063095ea7b3146101df5780630c55699c14610208575b600080fd5b34801561014657600080fd5b50610161600480360381019061015c9190612835565b61053b565b60405161016e91906132f1565b60405180910390f35b34801561018357600080fd5b5061018c61061d565b604051610199919061330c565b60405180910390f35b3480156101ae57600080fd5b506101c960048036038101906101c49190612887565b6106af565b6040516101d6919061328a565b60405180910390f35b3480156101eb57600080fd5b50610206600480360381019061020191906127f9565b610734565b005b34801561021457600080fd5b5061021d61084c565b60405161022a919061364e565b60405180910390f35b34801561023f57600080fd5b5061024861085d565b604051610255919061364e565b60405180910390f35b34801561026a57600080fd5b5061028560048036038101906102809190612660565b610865565b005b6102a1600480360381019061029c9190612766565b6108c5565b6040516102ae919061364e565b60405180910390f35b3480156102c357600080fd5b506102cc610ae3565b6040516102d9919061364e565b60405180910390f35b3480156102ee57600080fd5b5061030960048036038101906103049190612660565b610b7e565b005b34801561031757600080fd5b50610332600480360381019061032d9190612887565b610b9e565b60405161033f919061328a565b60405180910390f35b34801561035457600080fd5b5061036f600480360381019061036a9190612598565b610c50565b60405161037c919061364e565b60405180910390f35b34801561039157600080fd5b5061039a610d08565b005b3480156103a857600080fd5b506103b1610d90565b6040516103be919061328a565b60405180910390f35b3480156103d357600080fd5b506103dc610dba565b6040516103e9919061330c565b60405180910390f35b3480156103fe57600080fd5b506104196004803603810190610414919061272a565b610e4c565b005b34801561042757600080fd5b50610442600480360381019061043d91906125c1565b610e62565b005b34801561045057600080fd5b5061046b600480360381019061046691906126af565b611235565b005b34801561047957600080fd5b50610494600480360381019061048f9190612887565b611297565b6040516104a1919061330c565b60405180910390f35b3480156104b657600080fd5b506104bf6113e9565b6040516104cc919061364e565b60405180910390f35b3480156104e157600080fd5b506104fc60048036038101906104f79190612624565b6113f3565b60405161050991906132f1565b60405180910390f35b34801561051e57600080fd5b5061053960048036038101906105349190612598565b611487565b005b60007f80ac58cd000000000000000000000000000000000000000000000000000000007bffffffffffffffffffffffffffffffffffffffffffffffffffffffff1916827bffffffffffffffffffffffffffffffffffffffffffffffffffffffff1916148061060657507f5b5e139f000000000000000000000000000000000000000000000000000000007bffffffffffffffffffffffffffffffffffffffffffffffffffffffff1916827bffffffffffffffffffffffffffffffffffffffffffffffffffffffff1916145b8061061657506106158261157f565b5b9050919050565b60606000805461062c90613925565b80601f016020809104026020016040519081016040528092919081815260200182805461065890613925565b80156106a55780601f1061067a576101008083540402835291602001916106a5565b820191906000526020600020905b81548152906001019060200180831161068857829003601f168201915b5050505050905090565b60006106ba826115e9565b6106f9576040517f08c379a00000000000000000000000000000000000000000000000000000000081526004016106f09061352e565b60405180910390fd5b6004600083815260200190815260200160002060009054906101000a900473ffffffffffffffffffffffffffffffffffffffff169050919050565b600061073f82610b9e565b90508073ffffffffffffffffffffffffffffffffffffffff168373ffffffffffffffffffffffffffffffffffffffff1614156107b0576040517f08c379a00000000000000000000000000000000000000000000000000000000081526004016107a7906135ae565b60405180910390fd5b8073ffffffffffffffffffffffffffffffffffffffff166107cf611655565b73ffffffffffffffffffffffffffffffffffffffff1614806107fe57506107fd816107f8611655565b6113f3565b5b61083d576040517f08c379a00000000000000000000000000000000000000000000000000000000081526004016108349061346e565b60405180910390fd5b610847838361165d565b505050565b60006108586009611716565b905090565b600047905090565b610876610870611655565b82611724565b6108b5576040517f08c379a00000000000000000000000000000000000000000000000000000000081526004016108ac9061360e565b60405180910390fd5b6108c0838383611802565b505050565b6000666a94d74f430000341480156108e857506127106108e56009611716565b11155b801561091357506001600885604051610901919061323a565b90815260200160405180910390205414155b15610ad657600160088560405161092a919061323a565b9081526020016040518091039020819055506109466009611a69565b60006109526009611716565b905061095e8682611a7f565b6109688186611c59565b600a5442111580156109805750666a94d74f43000034145b801561099757506127106109946009611716565b11155b80156109c2575060016008856040516109b0919061323a565b90815260200160405180910390205414155b15610a165760016008856040516109d9919061323a565b9081526020016040518091039020819055506109f56009611a69565b6109ff6009611716565b9050610a0b8682611a7f565b610a158185611c59565b5b6000808473ffffffffffffffffffffffffffffffffffffffff16662386f26fc10000604051610a4490613275565b60006040518083038185875af1925050503d8060008114610a81576040519150601f19603f3d011682016040523d82523d6000602084013e610a86565b606091505b509150915081610acb576040517f08c379a0000000000000000000000000000000000000000000000000000000008152600401610ac29061362e565b60405180910390fd5b829350505050610adb565b600080fd5b949350505050565b6000610aed611655565b73ffffffffffffffffffffffffffffffffffffffff16610b0b610d90565b73ffffffffffffffffffffffffffffffffffffffff1614610b61576040517f08c379a0000000000000000000000000000000000000000000000000000000008152600401610b589061354e565b60405180910390fd5b6201518042610b709190613748565b600a81905550600a54905090565b610b9983838360405180602001604052806000815250611235565b505050565b6000806002600084815260200190815260200160002060009054906101000a900473ffffffffffffffffffffffffffffffffffffffff169050600073ffffffffffffffffffffffffffffffffffffffff168173ffffffffffffffffffffffffffffffffffffffff161415610c47576040517f08c379a0000000000000000000000000000000000000000000000000000000008152600401610c3e906134ae565b60405180910390fd5b80915050919050565b60008073ffffffffffffffffffffffffffffffffffffffff168273ffffffffffffffffffffffffffffffffffffffff161415610cc1576040517f08c379a0000000000000000000000000000000000000000000000000000000008152600401610cb89061348e565b60405180910390fd5b600360008373ffffffffffffffffffffffffffffffffffffffff1673ffffffffffffffffffffffffffffffffffffffff168152602001908152602001600020549050919050565b610d10611655565b73ffffffffffffffffffffffffffffffffffffffff16610d2e610d90565b73ffffffffffffffffffffffffffffffffffffffff1614610d84576040517f08c379a0000000000000000000000000000000000000000000000000000000008152600401610d7b9061354e565b60405180910390fd5b610d8e6000611ccd565b565b6000600760009054906101000a900473ffffffffffffffffffffffffffffffffffffffff16905090565b606060018054610dc990613925565b80601f0160208091040260200160405190810160405280929190818152602001828054610df590613925565b8015610e425780601f10610e1757610100808354040283529160200191610e42565b820191906000526020600020905b815481529060010190602001808311610e2557829003601f168201915b5050505050905090565b610e5e610e57611655565b8383611d93565b5050565b610e6a611655565b73ffffffffffffffffffffffffffffffffffffffff16610e88610d90565b73ffffffffffffffffffffffffffffffffffffffff1614610ede576040517f08c379a0000000000000000000000000000000000000000000000000000000008152600401610ed59061354e565b60405180910390fd5b60006031610eea61085d565b610ef491906137cf565b905060006031610f0261085d565b610f0c91906137cf565b905073d03d0b1bebe7ec88b16297f229f7362b7420585c73ffffffffffffffffffffffffffffffffffffffff168673ffffffffffffffffffffffffffffffffffffffff1614610f90576040517f08c379a0000000000000000000000000000000000000000000000000000000008152600401610f87906135ee565b60405180910390fd5b73b04006d2aef65d05fc480fad3ab15ff76738e47073ffffffffffffffffffffffffffffffffffffffff168573ffffffffffffffffffffffffffffffffffffffff1614611012576040517f08c379a0000000000000000000000000000000000000000000000000000000008152600401611009906135ce565b60405180910390fd5b8160648561102091906137cf565b1015801561103a57508060648461103791906137cf565b10155b611079576040517f08c379a00000000000000000000000000000000000000000000000000000000081526004016110709061356e565b60405180910390fd5b83836110859190613748565b61108d61085d565b116110cd576040517f08c379a00000000000000000000000000000000000000000000000000000000081526004016110c4906133ee565b60405180910390fd5b6000808773ffffffffffffffffffffffffffffffffffffffff16866040516110f490613275565b60006040518083038185875af1925050503d8060008114611131576040519150601f19603f3d011682016040523d82523d6000602084013e611136565b606091505b50915091508161117b576040517f08c379a00000000000000000000000000000000000000000000000000000000081526004016111729061334e565b60405180910390fd5b6000808873ffffffffffffffffffffffffffffffffffffffff16876040516111a290613275565b60006040518083038185875af1925050503d80600081146111df576040519150601f19603f3d011682016040523d82523d6000602084013e6111e4565b606091505b509150915081611229576040517f08c379a00000000000000000000000000000000000000000000000000000000081526004016112209061332e565b60405180910390fd5b50505050505050505050565b611246611240611655565b83611724565b611285576040517f08c379a000000000000000000000000000000000000000000000000000000000815260040161127c9061360e565b60405180910390fd5b61129184848484611f00565b50505050565b60606112a2826115e9565b6112e1576040517f08c379a00000000000000000000000000000000000000000000000000000000081526004016112d89061350e565b60405180910390fd5b600060066000848152602001908152602001600020805461130190613925565b80601f016020809104026020016040519081016040528092919081815260200182805461132d90613925565b801561137a5780601f1061134f5761010080835404028352916020019161137a565b820191906000526020600020905b81548152906001019060200180831161135d57829003601f168201915b50505050509050600061138b611f5c565b90506000815114156113a15781925050506113e4565b6000825111156113d65780826040516020016113be929190613251565b604051602081830303815290604052925050506113e4565b6113df84611f73565b925050505b919050565b6000600a54905090565b6000600560008473ffffffffffffffffffffffffffffffffffffffff1673ffffffffffffffffffffffffffffffffffffffff16815260200190815260200160002060008373ffffffffffffffffffffffffffffffffffffffff1673ffffffffffffffffffffffffffffffffffffffff16815260200190815260200160002060009054906101000a900460ff16905092915050565b61148f611655565b73ffffffffffffffffffffffffffffffffffffffff166114ad610d90565b73ffffffffffffffffffffffffffffffffffffffff1614611503576040517f08c379a00000000000000000000000000000000000000000000000000000000081526004016114fa9061354e565b60405180910390fd5b600073ffffffffffffffffffffffffffffffffffffffff168173ffffffffffffffffffffffffffffffffffffffff161415611573576040517f08c379a000000000000000000000000000000000000000000000000000000000815260040161156a9061338e565b60405180910390fd5b61157c81611ccd565b50565b60007f01ffc9a7000000000000000000000000000000000000000000000000000000007bffffffffffffffffffffffffffffffffffffffffffffffffffffffff1916827bffffffffffffffffffffffffffffffffffffffffffffffffffffffff1916149050919050565b60008073ffffffffffffffffffffffffffffffffffffffff166002600084815260200190815260200160002060009054906101000a900473ffffffffffffffffffffffffffffffffffffffff1673ffffffffffffffffffffffffffffffffffffffff1614159050919050565b600033905090565b816004600083815260200190815260200160002060006101000a81548173ffffffffffffffffffffffffffffffffffffffff021916908373ffffffffffffffffffffffffffffffffffffffff160217905550808273ffffffffffffffffffffffffffffffffffffffff166116d083610b9e565b73ffffffffffffffffffffffffffffffffffffffff167f8c5be1e5ebec7d5bd14f71427d1e84f3dd0314c0f7b2291e5b200ac8c7c3b92560405160405180910390a45050565b600081600001549050919050565b600061172f826115e9565b61176e576040517f08c379a00000000000000000000000000000000000000000000000000000000081526004016117659061344e565b60405180910390fd5b600061177983610b9e565b90508073ffffffffffffffffffffffffffffffffffffffff168473ffffffffffffffffffffffffffffffffffffffff1614806117bb57506117ba81856113f3565b5b806117f957508373ffffffffffffffffffffffffffffffffffffffff166117e1846106af565b73ffffffffffffffffffffffffffffffffffffffff16145b91505092915050565b8273ffffffffffffffffffffffffffffffffffffffff1661182282610b9e565b73ffffffffffffffffffffffffffffffffffffffff1614611878576040517f08c379a000000000000000000000000000000000000000000000000000000000815260040161186f906133ae565b60405180910390fd5b600073ffffffffffffffffffffffffffffffffffffffff168273ffffffffffffffffffffffffffffffffffffffff1614156118e8576040517f08c379a00000000000000000000000000000000000000000000000000000000081526004016118df9061340e565b60405180910390fd5b6118f383838361201a565b6118fe60008261165d565b6001600360008573ffffffffffffffffffffffffffffffffffffffff1673ffffffffffffffffffffffffffffffffffffffff168152602001908152602001600020600082825461194e9190613829565b925050819055506001600360008473ffffffffffffffffffffffffffffffffffffffff1673ffffffffffffffffffffffffffffffffffffffff16815260200190815260200160002060008282546119a59190613748565b92505081905550816002600083815260200190815260200160002060006101000a81548173ffffffffffffffffffffffffffffffffffffffff021916908373ffffffffffffffffffffffffffffffffffffffff160217905550808273ffffffffffffffffffffffffffffffffffffffff168473ffffffffffffffffffffffffffffffffffffffff167fddf252ad1be2c89b69c2b068fc378daa952ba7f163c4a11628f55a4df523b3ef60405160405180910390a4611a6483838361201f565b505050565b6001816000016000828254019250508190555050565b600073ffffffffffffffffffffffffffffffffffffffff168273ffffffffffffffffffffffffffffffffffffffff161415611aef576040517f08c379a0000000000000000000000000000000000000000000000000000000008152600401611ae6906134ee565b60405180910390fd5b611af8816115e9565b15611b38576040517f08c379a0000000000000000000000000000000000000000000000000000000008152600401611b2f906133ce565b60405180910390fd5b611b446000838361201a565b6001600360008473ffffffffffffffffffffffffffffffffffffffff1673ffffffffffffffffffffffffffffffffffffffff1681526020019081526020016000206000828254611b949190613748565b92505081905550816002600083815260200190815260200160002060006101000a81548173ffffffffffffffffffffffffffffffffffffffff021916908373ffffffffffffffffffffffffffffffffffffffff160217905550808273ffffffffffffffffffffffffffffffffffffffff16600073ffffffffffffffffffffffffffffffffffffffff167fddf252ad1be2c89b69c2b068fc378daa952ba7f163c4a11628f55a4df523b3ef60405160405180910390a4611c556000838361201f565b5050565b611c62826115e9565b611ca1576040517f08c379a0000000000000000000000000000000000000000000000000000000008152600401611c98906134ce565b60405180910390fd5b80600660008481526020019081526020016000209080519060200190611cc89291906123a7565b505050565b6000600760009054906101000a900473ffffffffffffffffffffffffffffffffffffffff16905081600760006101000a81548173ffffffffffffffffffffffffffffffffffffffff021916908373ffffffffffffffffffffffffffffffffffffffff1602179055508173ffffffffffffffffffffffffffffffffffffffff168173ffffffffffffffffffffffffffffffffffffffff167f8be0079c531659141344cd1fd0a4f28419497f9722a3daafe3b4186f6b6457e060405160405180910390a35050565b8173ffffffffffffffffffffffffffffffffffffffff168373ffffffffffffffffffffffffffffffffffffffff161415611e02576040517f08c379a0000000000000000000000000000000000000000000000000000000008152600401611df99061342e565b60405180910390fd5b80600560008573ffffffffffffffffffffffffffffffffffffffff1673ffffffffffffffffffffffffffffffffffffffff16815260200190815260200160002060008473ffffffffffffffffffffffffffffffffffffffff1673ffffffffffffffffffffffffffffffffffffffff16815260200190815260200160002060006101000a81548160ff0219169083151502179055508173ffffffffffffffffffffffffffffffffffffffff168373ffffffffffffffffffffffffffffffffffffffff167f17307eab39ab6107e8899845ad3d59bd9653f200f220920489ca2b5937696c3183604051611ef391906132f1565b60405180910390a3505050565b611f0b848484611802565b611f1784848484612024565b611f56576040517f08c379a0000000000000000000000000000000000000000000000000000000008152600401611f4d9061336e565b60405180910390fd5b50505050565b606060405180602001604052806000815250905090565b6060611f7e826115e9565b611fbd576040517f08c379a0000000000000000000000000000000000000000000000000000000008152600401611fb49061358e565b60405180910390fd5b6000611fc7611f5c565b90506000815111611fe75760405180602001604052806000815250612012565b80611ff1846121bb565b604051602001612002929190613251565b6040516020818303038152906040525b915050919050565b505050565b505050565b60006120458473ffffffffffffffffffffffffffffffffffffffff16612368565b156121ae578373ffffffffffffffffffffffffffffffffffffffff1663150b7a0261206e611655565b8786866040518563ffffffff1660e01b815260040161209094939291906132a5565b602060405180830381600087803b1580156120aa57600080fd5b505af19250505080156120db57506040513d601f19601f820116820180604052508101906120d8919061285e565b60015b61215e573d806000811461210b576040519150601f19603f3d011682016040523d82523d6000602084013e612110565b606091505b50600081511415612156576040517f08c379a000000000000000000000000000000000000000000000000000000000815260040161214d9061336e565b60405180910390fd5b805181602001fd5b63150b7a0260e01b7bffffffffffffffffffffffffffffffffffffffffffffffffffffffff1916817bffffffffffffffffffffffffffffffffffffffffffffffffffffffff1916149150506121b3565b600190505b949350505050565b60606000821415612203576040518060400160405280600181526020017f30000000000000000000000000000000000000000000000000000000000000008152509050612363565b600082905060005b6000821461223557808061221e90613957565b915050600a8261222e919061379e565b915061220b565b60008167ffffffffffffffff811115612277577f4e487b7100000000000000000000000000000000000000000000000000000000600052604160045260246000fd5b6040519080825280601f01601f1916602001820160405280156122a95781602001600182028036833780820191505090505b5090505b6000851461235c576001826122c29190613829565b9150600a856122d191906139a0565b60306122dd9190613748565b60f81b818381518110612319577f4e487b7100000000000000000000000000000000000000000000000000000000600052603260045260246000fd5b60200101907effffffffffffffffffffffffffffffffffffffffffffffffffffffffffffff1916908160001a905350600a85612355919061379e565b94506122ad565b8093505050505b919050565b6000808273ffffffffffffffffffffffffffffffffffffffff16803b806020016040519081016040528181526000908060200190933c51119050919050565b8280546123b390613925565b90600052602060002090601f0160209004810192826123d5576000855561241c565b82601f106123ee57805160ff191683800117855561241c565b8280016001018555821561241c579182015b8281111561241b578251825591602001919060010190612400565b5b509050612429919061242d565b5090565b5b8082111561244657600081600090555060010161242e565b5090565b600061245d6124588461369a565b613669565b90508281526020810184848401111561247557600080fd5b6124808482856138e3565b509392505050565b600061249b612496846136ca565b613669565b9050828152602081018484840111156124b357600080fd5b6124be8482856138e3565b509392505050565b6000813590506124d581613a9e565b92915050565b6000813590506124ea81613ab5565b92915050565b6000813590506124ff81613acc565b92915050565b60008135905061251481613ae3565b92915050565b60008151905061252981613ae3565b92915050565b600082601f83011261254057600080fd5b813561255084826020860161244a565b91505092915050565b600082601f83011261256a57600080fd5b813561257a848260208601612488565b91505092915050565b60008135905061259281613afa565b92915050565b6000602082840312156125aa57600080fd5b60006125b8848285016124c6565b91505092915050565b600080600080608085870312156125d757600080fd5b60006125e5878288016124db565b94505060206125f6878288016124db565b935050604061260787828801612583565b925050606061261887828801612583565b91505092959194509250565b6000806040838503121561263757600080fd5b6000612645858286016124c6565b9250506020612656858286016124c6565b9150509250929050565b60008060006060848603121561267557600080fd5b6000612683868287016124c6565b9350506020612694868287016124c6565b92505060406126a586828701612583565b9150509250925092565b600080600080608085870312156126c557600080fd5b60006126d3878288016124c6565b94505060206126e4878288016124c6565b93505060406126f587828801612583565b925050606085013567ffffffffffffffff81111561271257600080fd5b61271e8782880161252f565b91505092959194509250565b6000806040838503121561273d57600080fd5b600061274b858286016124c6565b925050602061275c858286016124f0565b9150509250929050565b6000806000806080858703121561277c57600080fd5b600061278a878288016124c6565b945050602085013567ffffffffffffffff8111156127a757600080fd5b6127b387828801612559565b935050604085013567ffffffffffffffff8111156127d057600080fd5b6127dc87828801612559565b92505060606127ed878288016124db565b91505092959194509250565b6000806040838503121561280c57600080fd5b600061281a858286016124c6565b925050602061282b85828601612583565b9150509250929050565b60006020828403121561284757600080fd5b600061285584828501612505565b91505092915050565b60006020828403121561287057600080fd5b600061287e8482850161251a565b91505092915050565b60006020828403121561289957600080fd5b60006128a784828501612583565b91505092915050565b6128b98161385d565b82525050565b6128c881613881565b82525050565b60006128d9826136fa565b6128e38185613710565b93506128f38185602086016138f2565b6128fc81613a8d565b840191505092915050565b600061291282613705565b61291c818561372c565b935061292c8185602086016138f2565b61293581613a8d565b840191505092915050565b600061294b82613705565b612955818561373d565b93506129658185602086016138f2565b80840191505092915050565b600061297e60168361372c565b91507f4661696c656420746f2073656e64206a617265657468000000000000000000006000830152602082019050919050565b60006129be60178361372c565b91507f4661696c656420746f2073656e642073617563656574680000000000000000006000830152602082019050919050565b60006129fe60328361372c565b91507f4552433732313a207472616e7366657220746f206e6f6e20455243373231526560008301527f63656976657220696d706c656d656e74657200000000000000000000000000006020830152604082019050919050565b6000612a6460268361372c565b91507f4f776e61626c653a206e6577206f776e657220697320746865207a65726f206160008301527f64647265737300000000000000000000000000000000000000000000000000006020830152604082019050919050565b6000612aca60258361372c565b91507f4552433732313a207472616e736665722066726f6d20696e636f72726563742060008301527f6f776e65720000000000000000000000000000000000000000000000000000006020830152604082019050919050565b6000612b30601c8361372c565b91507f4552433732313a20746f6b656e20616c7265616479206d696e746564000000006000830152602082019050919050565b6000612b7060268361372c565b91507f4465727020796f752063616e6e6f74207769746864726177206d6f617220746860008301527f616e2068617300000000000000000000000000000000000000000000000000006020830152604082019050919050565b6000612bd660248361372c565b91507f4552433732313a207472616e7366657220746f20746865207a65726f2061646460008301527f72657373000000000000000000000000000000000000000000000000000000006020830152604082019050919050565b6000612c3c60198361372c565b91507f4552433732313a20617070726f766520746f2063616c6c6572000000000000006000830152602082019050919050565b6000612c7c602c8361372c565b91507f4552433732313a206f70657261746f7220717565727920666f72206e6f6e657860008301527f697374656e7420746f6b656e00000000000000000000000000000000000000006020830152604082019050919050565b6000612ce260388361372c565b91507f4552433732313a20617070726f76652063616c6c6572206973206e6f74206f7760008301527f6e6572206e6f7220617070726f76656420666f7220616c6c00000000000000006020830152604082019050919050565b6000612d48602a8361372c565b91507f4552433732313a2062616c616e636520717565727920666f7220746865207a6560008301527f726f2061646472657373000000000000000000000000000000000000000000006020830152604082019050919050565b6000612dae60298361372c565b91507f4552433732313a206f776e657220717565727920666f72206e6f6e657869737460008301527f656e7420746f6b656e00000000000000000000000000000000000000000000006020830152604082019050919050565b6000612e14602e8361372c565b91507f45524337323155524953746f726167653a2055524920736574206f66206e6f6e60008301527f6578697374656e7420746f6b656e0000000000000000000000000000000000006020830152604082019050919050565b6000612e7a60208361372c565b91507f4552433732313a206d696e7420746f20746865207a65726f20616464726573736000830152602082019050919050565b6000612eba60318361372c565b91507f45524337323155524953746f726167653a2055524920717565727920666f722060008301527f6e6f6e6578697374656e7420746f6b656e0000000000000000000000000000006020830152604082019050919050565b6000612f20602c8361372c565b91507f4552433732313a20617070726f76656420717565727920666f72206e6f6e657860008301527f697374656e7420746f6b656e00000000000000000000000000000000000000006020830152604082019050919050565b6000612f8660208361372c565b91507f4f776e61626c653a2063616c6c6572206973206e6f7420746865206f776e65726000830152602082019050919050565b6000612fc660328361372c565b91507f4465727020676f20626967206f7220676f20686f6d6520414e4420616468657260008301527f6520746f207468652025732066656c6c617300000000000000000000000000006020830152604082019050919050565b600061302c602f8361372c565b91507f4552433732314d657461646174613a2055524920717565727920666f72206e6f60008301527f6e6578697374656e7420746f6b656e00000000000000000000000000000000006020830152604082019050919050565b600061309260218361372c565b91507f4552433732313a20617070726f76616c20746f2063757272656e74206f776e6560008301527f72000000000000000000000000000000000000000000000000000000000000006020830152604082019050919050565b60006130f8600c8361372c565b91507f6a617265206f72206275737400000000000000000000000000000000000000006000830152602082019050919050565b6000613138600d8361372c565b91507f7361756365206f722062757374000000000000000000000000000000000000006000830152602082019050919050565b6000613178600083613721565b9150600082019050919050565b600061319260318361372c565b91507f4552433732313a207472616e736665722063616c6c6572206973206e6f74206f60008301527f776e6572206e6f7220617070726f7665640000000000000000000000000000006020830152604082019050919050565b60006131f860158361372c565b91507f4661696c656420746f2073656e642072656665746800000000000000000000006000830152602082019050919050565b613234816138d9565b82525050565b60006132468284612940565b915081905092915050565b600061325d8285612940565b91506132698284612940565b91508190509392505050565b60006132808261316b565b9150819050919050565b600060208201905061329f60008301846128b0565b92915050565b60006080820190506132ba60008301876128b0565b6132c760208301866128b0565b6132d4604083018561322b565b81810360608301526132e681846128ce565b905095945050505050565b600060208201905061330660008301846128bf565b92915050565b600060208201905081810360008301526133268184612907565b905092915050565b6000602082019050818103600083015261334781612971565b9050919050565b60006020820190508181036000830152613367816129b1565b9050919050565b60006020820190508181036000830152613387816129f1565b9050919050565b600060208201905081810360008301526133a781612a57565b9050919050565b600060208201905081810360008301526133c781612abd565b9050919050565b600060208201905081810360008301526133e781612b23565b9050919050565b6000602082019050818103600083015261340781612b63565b9050919050565b6000602082019050818103600083015261342781612bc9565b9050919050565b6000602082019050818103600083015261344781612c2f565b9050919050565b6000602082019050818103600083015261346781612c6f565b9050919050565b6000602082019050818103600083015261348781612cd5565b9050919050565b600060208201905081810360008301526134a781612d3b565b9050919050565b600060208201905081810360008301526134c781612da1565b9050919050565b600060208201905081810360008301526134e781612e07565b9050919050565b6000602082019050818103600083015261350781612e6d565b9050919050565b6000602082019050818103600083015261352781612ead565b9050919050565b6000602082019050818103600083015261354781612f13565b9050919050565b6000602082019050818103600083015261356781612f79565b9050919050565b6000602082019050818103600083015261358781612fb9565b9050919050565b600060208201905081810360008301526135a78161301f565b9050919050565b600060208201905081810360008301526135c781613085565b9050919050565b600060208201905081810360008301526135e7816130eb565b9050919050565b600060208201905081810360008301526136078161312b565b9050919050565b6000602082019050818103600083015261362781613185565b9050919050565b60006020820190508181036000830152613647816131eb565b9050919050565b6000602082019050613663600083018461322b565b92915050565b6000604051905081810181811067ffffffffffffffff821117156136905761368f613a5e565b5b8060405250919050565b600067ffffffffffffffff8211156136b5576136b4613a5e565b5b601f19601f8301169050602081019050919050565b600067ffffffffffffffff8211156136e5576136e4613a5e565b5b601f19601f8301169050602081019050919050565b600081519050919050565b600081519050919050565b600082825260208201905092915050565b600081905092915050565b600082825260208201905092915050565b600081905092915050565b6000613753826138d9565b915061375e836138d9565b9250827fffffffffffffffffffffffffffffffffffffffffffffffffffffffffffffffff03821115613793576137926139d1565b5b828201905092915050565b60006137a9826138d9565b91506137b4836138d9565b9250826137c4576137c3613a00565b5b828204905092915050565b60006137da826138d9565b91506137e5836138d9565b9250817fffffffffffffffffffffffffffffffffffffffffffffffffffffffffffffffff048311821515161561381e5761381d6139d1565b5b828202905092915050565b6000613834826138d9565b915061383f836138d9565b925082821015613852576138516139d1565b5b828203905092915050565b6000613868826138b9565b9050919050565b600061387a826138b9565b9050919050565b60008115159050919050565b60007fffffffff0000000000000000000000000000000000000000000000000000000082169050919050565b600073ffffffffffffffffffffffffffffffffffffffff82169050919050565b6000819050919050565b82818337600083830152505050565b60005b838110156139105780820151818401526020810190506138f5565b8381111561391f576000848401525b50505050565b6000600282049050600182168061393d57607f821691505b6020821081141561395157613950613a2f565b5b50919050565b6000613962826138d9565b91507fffffffffffffffffffffffffffffffffffffffffffffffffffffffffffffffff821415613995576139946139d1565b5b600182019050919050565b60006139ab826138d9565b91506139b6836138d9565b9250826139c6576139c5613a00565b5b828206905092915050565b7f4e487b7100000000000000000000000000000000000000000000000000000000600052601160045260246000fd5b7f4e487b7100000000000000000000000000000000000000000000000000000000600052601260045260246000fd5b7f4e487b7100000000000000000000000000000000000000000000000000000000600052602260045260246000fd5b7f4e487b7100000000000000000000000000000000000000000000000000000000600052604160045260246000fd5b6000601f19601f8301169050919050565b613aa78161385d565b8114613ab257600080fd5b50565b613abe8161386f565b8114613ac957600080fd5b50565b613ad581613881565b8114613ae057600080fd5b50565b613aec8161388d565b8114613af757600080fd5b50565b613b03816138d9565b8114613b0e57600080fd5b5056fea2646970667358221220715ad54dc82bfedd3a89b9270f0da38e81e9b8516a066aed7666141dc936b64664736f6c63430008000033",
  "linkReferences": {},
  "deployedLinkReferences": {}
}