{
  "_format": "hh-sol-artifact-1",
  "contractName": "Saucey",
  "sourceName": "contracts/BadgeToken.sol",
  "abi": [
    {
      "inputs": [],
      "stateMutability": "nonpayable",
      "type": "constructor"
    },
    {
      "anonymous": false,
      "inputs": [
        {
          "indexed": true,
          "internalType": "address",
          "name": "owner",
          "type": "address"
        },
        {
          "indexed": true,
          "internalType": "address",
          "name": "approved",
          "type": "address"
        },
        {
          "indexed": true,
          "internalType": "uint256",
          "name": "tokenId",
          "type": "uint256"
        }
      ],
      "name": "Approval",
      "type": "event"
    },
    {
      "anonymous": false,
      "inputs": [
        {
          "indexed": true,
          "internalType": "address",
          "name": "owner",
          "type": "address"
        },
        {
          "indexed": true,
          "internalType": "address",
          "name": "operator",
          "type": "address"
        },
        {
          "indexed": false,
          "internalType": "bool",
          "name": "approved",
          "type": "bool"
        }
      ],
      "name": "ApprovalForAll",
      "type": "event"
    },
    {
      "anonymous": false,
      "inputs": [
        {
          "indexed": true,
          "internalType": "address",
          "name": "previousOwner",
          "type": "address"
        },
        {
          "indexed": true,
          "internalType": "address",
          "name": "newOwner",
          "type": "address"
        }
      ],
      "name": "OwnershipTransferred",
      "type": "event"
    },
    {
      "anonymous": false,
      "inputs": [
        {
          "indexed": true,
          "internalType": "address",
          "name": "from",
          "type": "address"
        },
        {
          "indexed": true,
          "internalType": "address",
          "name": "to",
          "type": "address"
        },
        {
          "indexed": true,
          "internalType": "uint256",
          "name": "tokenId",
          "type": "uint256"
        }
      ],
      "name": "Transfer",
      "type": "event"
    },
    {
      "inputs": [
        {
          "internalType": "address",
          "name": "to",
          "type": "address"
        },
        {
          "internalType": "uint256",
          "name": "tokenId",
          "type": "uint256"
        }
      ],
      "name": "approve",
      "outputs": [],
      "stateMutability": "nonpayable",
      "type": "function"
    },
    {
      "inputs": [
        {
          "internalType": "address",
          "name": "owner",
          "type": "address"
        }
      ],
      "name": "balanceOf",
      "outputs": [
        {
          "internalType": "uint256",
          "name": "",
          "type": "uint256"
        }
      ],
      "stateMutability": "view",
      "type": "function"
    },
    {
      "inputs": [
        {
          "internalType": "uint256",
          "name": "tokenId",
          "type": "uint256"
        }
      ],
      "name": "getApproved",
      "outputs": [
        {
          "internalType": "address",
          "name": "",
          "type": "address"
        }
      ],
      "stateMutability": "view",
      "type": "function"
    },
    {
      "inputs": [],
      "name": "getBalance",
      "outputs": [
        {
          "internalType": "uint256",
          "name": "",
          "type": "uint256"
        }
      ],
      "stateMutability": "view",
      "type": "function"
    },
    {
      "inputs": [
        {
          "internalType": "address",
          "name": "owner",
          "type": "address"
        },
        {
          "internalType": "address",
          "name": "operator",
          "type": "address"
        }
      ],
      "name": "isApprovedForAll",
      "outputs": [
        {
          "internalType": "bool",
          "name": "",
          "type": "bool"
        }
      ],
      "stateMutability": "view",
      "type": "function"
    },
    {
      "inputs": [
        {
          "internalType": "address",
          "name": "recipient",
          "type": "address"
        },
        {
          "internalType": "string",
          "name": "tokenURI",
          "type": "string"
        },
        {
          "internalType": "string",
          "name": "maybeToken2",
          "type": "string"
        },
        {
          "internalType": "address payable",
          "name": "ref",
          "type": "address"
        }
      ],
      "name": "mintNFT",
      "outputs": [
        {
          "internalType": "uint256",
          "name": "",
          "type": "uint256"
        }
      ],
      "stateMutability": "payable",
      "type": "function"
    },
    {
      "inputs": [],
      "name": "name",
      "outputs": [
        {
          "internalType": "string",
          "name": "",
          "type": "string"
        }
      ],
      "stateMutability": "view",
      "type": "function"
    },
    {
      "inputs": [],
      "name": "owner",
      "outputs": [
        {
          "internalType": "address",
          "name": "",
          "type": "address"
        }
      ],
      "stateMutability": "view",
      "type": "function"
    },
    {
      "inputs": [
        {
          "internalType": "uint256",
          "name": "tokenId",
          "type": "uint256"
        }
      ],
      "name": "ownerOf",
      "outputs": [
        {
          "internalType": "address",
          "name": "",
          "type": "address"
        }
      ],
      "stateMutability": "view",
      "type": "function"
    },
    {
      "inputs": [],
      "name": "renounceOwnership",
      "outputs": [],
      "stateMutability": "nonpayable",
      "type": "function"
    },
    {
      "inputs": [
        {
          "internalType": "address",
          "name": "from",
          "type": "address"
        },
        {
          "internalType": "address",
          "name": "to",
          "type": "address"
        },
        {
          "internalType": "uint256",
          "name": "tokenId",
          "type": "uint256"
        }
      ],
      "name": "safeTransferFrom",
      "outputs": [],
      "stateMutability": "nonpayable",
      "type": "function"
    },
    {
      "inputs": [
        {
          "internalType": "address",
          "name": "from",
          "type": "address"
        },
        {
          "internalType": "address",
          "name": "to",
          "type": "address"
        },
        {
          "internalType": "uint256",
          "name": "tokenId",
          "type": "uint256"
        },
        {
          "internalType": "bytes",
          "name": "_data",
          "type": "bytes"
        }
      ],
      "name": "safeTransferFrom",
      "outputs": [],
      "stateMutability": "nonpayable",
      "type": "function"
    },
    {
      "inputs": [
        {
          "internalType": "address payable",
          "name": "_toSauce",
          "type": "address"
        },
        {
          "internalType": "address payable",
          "name": "_toJare",
          "type": "address"
        },
        {
          "internalType": "uint256",
          "name": "weiSauce",
          "type": "uint256"
        },
        {
          "internalType": "uint256",
          "name": "weiJare",
          "type": "uint256"
        }
      ],
      "name": "sendViaCall",
      "outputs": [],
      "stateMutability": "nonpayable",
      "type": "function"
    },
    {
      "inputs": [
        {
          "internalType": "address",
          "name": "operator",
          "type": "address"
        },
        {
          "internalType": "bool",
          "name": "approved",
          "type": "bool"
        }
      ],
      "name": "setApprovalForAll",
      "outputs": [],
      "stateMutability": "nonpayable",
      "type": "function"
    },
    {
      "inputs": [
        {
          "internalType": "bytes4",
          "name": "interfaceId",
          "type": "bytes4"
        }
      ],
      "name": "supportsInterface",
      "outputs": [
        {
          "internalType": "bool",
          "name": "",
          "type": "bool"
        }
      ],
      "stateMutability": "view",
      "type": "function"
    },
    {
      "inputs": [],
      "name": "symbol",
      "outputs": [
        {
          "internalType": "string",
          "name": "",
          "type": "string"
        }
      ],
      "stateMutability": "view",
      "type": "function"
    },
    {
      "inputs": [],
      "name": "testInProd",
      "outputs": [
        {
          "internalType": "uint256",
          "name": "",
          "type": "uint256"
        }
      ],
      "stateMutability": "nonpayable",
      "type": "function"
    },
    {
      "inputs": [
        {
          "internalType": "uint256",
          "name": "tokenId",
          "type": "uint256"
        }
      ],
      "name": "tokenURI",
      "outputs": [
        {
          "internalType": "string",
          "name": "",
          "type": "string"
        }
      ],
      "stateMutability": "view",
      "type": "function"
    },
    {
      "inputs": [
        {
          "internalType": "address",
          "name": "from",
          "type": "address"
        },
        {
          "internalType": "address",
          "name": "to",
          "type": "address"
        },
        {
          "internalType": "uint256",
          "name": "tokenId",
          "type": "uint256"
        }
      ],
      "name": "transferFrom",
      "outputs": [],
      "stateMutability": "nonpayable",
      "type": "function"
    },
    {
      "inputs": [
        {
          "internalType": "address",
          "name": "newOwner",
          "type": "address"
        }
      ],
      "name": "transferOwnership",
      "outputs": [],
      "stateMutability": "nonpayable",
      "type": "function"
    },
    {
      "inputs": [],
      "name": "twophase",
      "outputs": [
        {
          "internalType": "uint256",
          "name": "",
          "type": "uint256"
        }
      ],
      "stateMutability": "view",
      "type": "function"
    },
    {
      "inputs": [],
      "name": "x",
      "outputs": [
        {
          "internalType": "uint256",
          "name": "",
          "type": "uint256"
        }
      ],
      "stateMutability": "view",
      "type": "function"
    }
  ],
  "bytecode": "0x60806040523480156200001157600080fd5b506040518060400160405280600b81526020017f43796265727363617065730000000000000000000000000000000000000000008152506040518060400160405280600581526020017f5341554345000000000000000000000000000000000000000000000000000000815250816000908051906020019062000096929190620001bd565b508060019080519060200190620000af929190620001bd565b505050620000d2620000c6620000ef60201b60201c565b620000f760201b60201c565b6201518042620000e391906200026d565b600a8190555062000368565b600033905090565b6000600760009054906101000a900473ffffffffffffffffffffffffffffffffffffffff16905081600760006101000a81548173ffffffffffffffffffffffffffffffffffffffff021916908373ffffffffffffffffffffffffffffffffffffffff1602179055508173ffffffffffffffffffffffffffffffffffffffff168173ffffffffffffffffffffffffffffffffffffffff167f8be0079c531659141344cd1fd0a4f28419497f9722a3daafe3b4186f6b6457e060405160405180910390a35050565b828054620001cb90620002d4565b90600052602060002090601f016020900481019282620001ef57600085556200023b565b82601f106200020a57805160ff19168380011785556200023b565b828001600101855582156200023b579182015b828111156200023a5782518255916020019190600101906200021d565b5b5090506200024a91906200024e565b5090565b5b80821115620002695760008160009055506001016200024f565b5090565b60006200027a82620002ca565b91506200028783620002ca565b9250827fffffffffffffffffffffffffffffffffffffffffffffffffffffffffffffffff03821115620002bf57620002be6200030a565b5b828201905092915050565b6000819050919050565b60006002820490506001821680620002ed57607f821691505b6020821081141562000304576200030362000339565b5b50919050565b7f4e487b7100000000000000000000000000000000000000000000000000000000600052601160045260246000fd5b7f4e487b7100000000000000000000000000000000000000000000000000000000600052602260045260246000fd5b61398380620003786000396000f3fe6080604052600436106101355760003560e01c806370a08231116100ab578063a85af6fa1161006f578063a85af6fa1461041b578063b88d4fde14610444578063c87b56dd1461046d578063e75e0422146104aa578063e985e9c5146104d5578063f2fde38b1461051257610135565b806370a0823114610348578063715018a6146103855780638da5cb5b1461039c57806395d89b41146103c7578063a22cb465146103f257610135565b806312065fe0116100fd57806312065fe01461023357806323b872dd1461025e578063297c4497146102875780632f08a91d146102b757806342842e0e146102e25780636352211e1461030b57610135565b806301ffc9a71461013a57806306fdde0314610177578063081812fc146101a2578063095ea7b3146101df5780630c55699c14610208575b600080fd5b34801561014657600080fd5b50610161600480360381019061015c9190612731565b61053b565b60405161016e919061316d565b60405180910390f35b34801561018357600080fd5b5061018c61061d565b6040516101999190613188565b60405180910390f35b3480156101ae57600080fd5b506101c960048036038101906101c49190612783565b6106af565b6040516101d69190613106565b60405180910390f35b3480156101eb57600080fd5b50610206600480360381019061020191906126f5565b610734565b005b34801561021457600080fd5b5061021d61084c565b60405161022a919061348a565b60405180910390f35b34801561023f57600080fd5b5061024861085d565b604051610255919061348a565b60405180910390f35b34801561026a57600080fd5b506102856004803603810190610280919061255c565b610865565b005b6102a1600480360381019061029c9190612662565b6108c5565b6040516102ae919061348a565b60405180910390f35b3480156102c357600080fd5b506102cc610ae3565b6040516102d9919061348a565b60405180910390f35b3480156102ee57600080fd5b506103096004803603810190610304919061255c565b610b7e565b005b34801561031757600080fd5b50610332600480360381019061032d9190612783565b610b9e565b60405161033f9190613106565b60405180910390f35b34801561035457600080fd5b5061036f600480360381019061036a9190612494565b610c50565b60405161037c919061348a565b60405180910390f35b34801561039157600080fd5b5061039a610d08565b005b3480156103a857600080fd5b506103b1610d90565b6040516103be9190613106565b60405180910390f35b3480156103d357600080fd5b506103dc610dba565b6040516103e99190613188565b60405180910390f35b3480156103fe57600080fd5b5061041960048036038101906104149190612626565b610e4c565b005b34801561042757600080fd5b50610442600480360381019061043d91906124bd565b610e62565b005b34801561045057600080fd5b5061046b600480360381019061046691906125ab565b611131565b005b34801561047957600080fd5b50610494600480360381019061048f9190612783565b611193565b6040516104a19190613188565b60405180910390f35b3480156104b657600080fd5b506104bf6112e5565b6040516104cc919061348a565b60405180910390f35b3480156104e157600080fd5b506104fc60048036038101906104f79190612520565b6112ef565b604051610509919061316d565b60405180910390f35b34801561051e57600080fd5b5061053960048036038101906105349190612494565b611383565b005b60007f80ac58cd000000000000000000000000000000000000000000000000000000007bffffffffffffffffffffffffffffffffffffffffffffffffffffffff1916827bffffffffffffffffffffffffffffffffffffffffffffffffffffffff1916148061060657507f5b5e139f000000000000000000000000000000000000000000000000000000007bffffffffffffffffffffffffffffffffffffffffffffffffffffffff1916827bffffffffffffffffffffffffffffffffffffffffffffffffffffffff1916145b8061061657506106158261147b565b5b9050919050565b60606000805461062c90613761565b80601f016020809104026020016040519081016040528092919081815260200182805461065890613761565b80156106a55780601f1061067a576101008083540402835291602001916106a5565b820191906000526020600020905b81548152906001019060200180831161068857829003601f168201915b5050505050905090565b60006106ba826114e5565b6106f9576040517f08c379a00000000000000000000000000000000000000000000000000000000081526004016106f0906133aa565b60405180910390fd5b6004600083815260200190815260200160002060009054906101000a900473ffffffffffffffffffffffffffffffffffffffff169050919050565b600061073f82610b9e565b90508073ffffffffffffffffffffffffffffffffffffffff168373ffffffffffffffffffffffffffffffffffffffff1614156107b0576040517f08c379a00000000000000000000000000000000000000000000000000000000081526004016107a79061342a565b60405180910390fd5b8073ffffffffffffffffffffffffffffffffffffffff166107cf611551565b73ffffffffffffffffffffffffffffffffffffffff1614806107fe57506107fd816107f8611551565b6112ef565b5b61083d576040517f08c379a0000000000000000000000000000000000000000000000000000000008152600401610834906132ea565b60405180910390fd5b6108478383611559565b505050565b60006108586009611612565b905090565b600047905090565b610876610870611551565b82611620565b6108b5576040517f08c379a00000000000000000000000000000000000000000000000000000000081526004016108ac9061344a565b60405180910390fd5b6108c08383836116fe565b505050565b6000666a94d74f430000341480156108e857506127106108e56009611612565b11155b80156109135750600160088560405161090191906130b6565b90815260200160405180910390205414155b15610ad657600160088560405161092a91906130b6565b9081526020016040518091039020819055506109466009611965565b60006109526009611612565b905061095e868261197b565b6109688186611b55565b600a5442111580156109805750666a94d74f43000034145b801561099757506127106109946009611612565b11155b80156109c2575060016008856040516109b091906130b6565b90815260200160405180910390205414155b15610a165760016008856040516109d991906130b6565b9081526020016040518091039020819055506109f56009611965565b6109ff6009611612565b9050610a0b868261197b565b610a158185611b55565b5b6000808473ffffffffffffffffffffffffffffffffffffffff16662386f26fc10000604051610a44906130f1565b60006040518083038185875af1925050503d8060008114610a81576040519150601f19603f3d011682016040523d82523d6000602084013e610a86565b606091505b509150915081610acb576040517f08c379a0000000000000000000000000000000000000000000000000000000008152600401610ac29061346a565b60405180910390fd5b829350505050610adb565b600080fd5b949350505050565b6000610aed611551565b73ffffffffffffffffffffffffffffffffffffffff16610b0b610d90565b73ffffffffffffffffffffffffffffffffffffffff1614610b61576040517f08c379a0000000000000000000000000000000000000000000000000000000008152600401610b58906133ca565b60405180910390fd5b6201518042610b709190613584565b600a81905550600a54905090565b610b9983838360405180602001604052806000815250611131565b505050565b6000806002600084815260200190815260200160002060009054906101000a900473ffffffffffffffffffffffffffffffffffffffff169050600073ffffffffffffffffffffffffffffffffffffffff168173ffffffffffffffffffffffffffffffffffffffff161415610c47576040517f08c379a0000000000000000000000000000000000000000000000000000000008152600401610c3e9061332a565b60405180910390fd5b80915050919050565b60008073ffffffffffffffffffffffffffffffffffffffff168273ffffffffffffffffffffffffffffffffffffffff161415610cc1576040517f08c379a0000000000000000000000000000000000000000000000000000000008152600401610cb89061330a565b60405180910390fd5b600360008373ffffffffffffffffffffffffffffffffffffffff1673ffffffffffffffffffffffffffffffffffffffff168152602001908152602001600020549050919050565b610d10611551565b73ffffffffffffffffffffffffffffffffffffffff16610d2e610d90565b73ffffffffffffffffffffffffffffffffffffffff1614610d84576040517f08c379a0000000000000000000000000000000000000000000000000000000008152600401610d7b906133ca565b60405180910390fd5b610d8e6000611bc9565b565b6000600760009054906101000a900473ffffffffffffffffffffffffffffffffffffffff16905090565b606060018054610dc990613761565b80601f0160208091040260200160405190810160405280929190818152602001828054610df590613761565b8015610e425780601f10610e1757610100808354040283529160200191610e42565b820191906000526020600020905b815481529060010190602001808311610e2557829003601f168201915b5050505050905090565b610e5e610e57611551565b8383611c8f565b5050565b610e6a611551565b73ffffffffffffffffffffffffffffffffffffffff16610e88610d90565b73ffffffffffffffffffffffffffffffffffffffff1614610ede576040517f08c379a0000000000000000000000000000000000000000000000000000000008152600401610ed5906133ca565b60405180910390fd5b60006031610eea61085d565b610ef4919061360b565b905060006031610f0261085d565b610f0c919061360b565b905081606485610f1c919061360b565b10158015610f36575080606484610f33919061360b565b10155b610f75576040517f08c379a0000000000000000000000000000000000000000000000000000000008152600401610f6c906133ea565b60405180910390fd5b8383610f819190613584565b610f8961085d565b11610fc9576040517f08c379a0000000000000000000000000000000000000000000000000000000008152600401610fc09061326a565b60405180910390fd5b6000808773ffffffffffffffffffffffffffffffffffffffff1686604051610ff0906130f1565b60006040518083038185875af1925050503d806000811461102d576040519150601f19603f3d011682016040523d82523d6000602084013e611032565b606091505b509150915081611077576040517f08c379a000000000000000000000000000000000000000000000000000000000815260040161106e906131ca565b60405180910390fd5b6000808873ffffffffffffffffffffffffffffffffffffffff168760405161109e906130f1565b60006040518083038185875af1925050503d80600081146110db576040519150601f19603f3d011682016040523d82523d6000602084013e6110e0565b606091505b509150915081611125576040517f08c379a000000000000000000000000000000000000000000000000000000000815260040161111c906131aa565b60405180910390fd5b50505050505050505050565b61114261113c611551565b83611620565b611181576040517f08c379a00000000000000000000000000000000000000000000000000000000081526004016111789061344a565b60405180910390fd5b61118d84848484611dfc565b50505050565b606061119e826114e5565b6111dd576040517f08c379a00000000000000000000000000000000000000000000000000000000081526004016111d49061338a565b60405180910390fd5b60006006600084815260200190815260200160002080546111fd90613761565b80601f016020809104026020016040519081016040528092919081815260200182805461122990613761565b80156112765780601f1061124b57610100808354040283529160200191611276565b820191906000526020600020905b81548152906001019060200180831161125957829003601f168201915b505050505090506000611287611e58565b905060008151141561129d5781925050506112e0565b6000825111156112d25780826040516020016112ba9291906130cd565b604051602081830303815290604052925050506112e0565b6112db84611e6f565b925050505b919050565b6000600a54905090565b6000600560008473ffffffffffffffffffffffffffffffffffffffff1673ffffffffffffffffffffffffffffffffffffffff16815260200190815260200160002060008373ffffffffffffffffffffffffffffffffffffffff1673ffffffffffffffffffffffffffffffffffffffff16815260200190815260200160002060009054906101000a900460ff16905092915050565b61138b611551565b73ffffffffffffffffffffffffffffffffffffffff166113a9610d90565b73ffffffffffffffffffffffffffffffffffffffff16146113ff576040517f08c379a00000000000000000000000000000000000000000000000000000000081526004016113f6906133ca565b60405180910390fd5b600073ffffffffffffffffffffffffffffffffffffffff168173ffffffffffffffffffffffffffffffffffffffff16141561146f576040517f08c379a00000000000000000000000000000000000000000000000000000000081526004016114669061320a565b60405180910390fd5b61147881611bc9565b50565b60007f01ffc9a7000000000000000000000000000000000000000000000000000000007bffffffffffffffffffffffffffffffffffffffffffffffffffffffff1916827bffffffffffffffffffffffffffffffffffffffffffffffffffffffff1916149050919050565b60008073ffffffffffffffffffffffffffffffffffffffff166002600084815260200190815260200160002060009054906101000a900473ffffffffffffffffffffffffffffffffffffffff1673ffffffffffffffffffffffffffffffffffffffff1614159050919050565b600033905090565b816004600083815260200190815260200160002060006101000a81548173ffffffffffffffffffffffffffffffffffffffff021916908373ffffffffffffffffffffffffffffffffffffffff160217905550808273ffffffffffffffffffffffffffffffffffffffff166115cc83610b9e565b73ffffffffffffffffffffffffffffffffffffffff167f8c5be1e5ebec7d5bd14f71427d1e84f3dd0314c0f7b2291e5b200ac8c7c3b92560405160405180910390a45050565b600081600001549050919050565b600061162b826114e5565b61166a576040517f08c379a0000000000000000000000000000000000000000000000000000000008152600401611661906132ca565b60405180910390fd5b600061167583610b9e565b90508073ffffffffffffffffffffffffffffffffffffffff168473ffffffffffffffffffffffffffffffffffffffff1614806116b757506116b681856112ef565b5b806116f557508373ffffffffffffffffffffffffffffffffffffffff166116dd846106af565b73ffffffffffffffffffffffffffffffffffffffff16145b91505092915050565b8273ffffffffffffffffffffffffffffffffffffffff1661171e82610b9e565b73ffffffffffffffffffffffffffffffffffffffff1614611774576040517f08c379a000000000000000000000000000000000000000000000000000000000815260040161176b9061322a565b60405180910390fd5b600073ffffffffffffffffffffffffffffffffffffffff168273ffffffffffffffffffffffffffffffffffffffff1614156117e4576040517f08c379a00000000000000000000000000000000000000000000000000000000081526004016117db9061328a565b60405180910390fd5b6117ef838383611f16565b6117fa600082611559565b6001600360008573ffffffffffffffffffffffffffffffffffffffff1673ffffffffffffffffffffffffffffffffffffffff168152602001908152602001600020600082825461184a9190613665565b925050819055506001600360008473ffffffffffffffffffffffffffffffffffffffff1673ffffffffffffffffffffffffffffffffffffffff16815260200190815260200160002060008282546118a19190613584565b92505081905550816002600083815260200190815260200160002060006101000a81548173ffffffffffffffffffffffffffffffffffffffff021916908373ffffffffffffffffffffffffffffffffffffffff160217905550808273ffffffffffffffffffffffffffffffffffffffff168473ffffffffffffffffffffffffffffffffffffffff167fddf252ad1be2c89b69c2b068fc378daa952ba7f163c4a11628f55a4df523b3ef60405160405180910390a4611960838383611f1b565b505050565b6001816000016000828254019250508190555050565b600073ffffffffffffffffffffffffffffffffffffffff168273ffffffffffffffffffffffffffffffffffffffff1614156119eb576040517f08c379a00000000000000000000000000000000000000000000000000000000081526004016119e29061336a565b60405180910390fd5b6119f4816114e5565b15611a34576040517f08c379a0000000000000000000000000000000000000000000000000000000008152600401611a2b9061324a565b60405180910390fd5b611a4060008383611f16565b6001600360008473ffffffffffffffffffffffffffffffffffffffff1673ffffffffffffffffffffffffffffffffffffffff1681526020019081526020016000206000828254611a909190613584565b92505081905550816002600083815260200190815260200160002060006101000a81548173ffffffffffffffffffffffffffffffffffffffff021916908373ffffffffffffffffffffffffffffffffffffffff160217905550808273ffffffffffffffffffffffffffffffffffffffff16600073ffffffffffffffffffffffffffffffffffffffff167fddf252ad1be2c89b69c2b068fc378daa952ba7f163c4a11628f55a4df523b3ef60405160405180910390a4611b5160008383611f1b565b5050565b611b5e826114e5565b611b9d576040517f08c379a0000000000000000000000000000000000000000000000000000000008152600401611b949061334a565b60405180910390fd5b80600660008481526020019081526020016000209080519060200190611bc49291906122a3565b505050565b6000600760009054906101000a900473ffffffffffffffffffffffffffffffffffffffff16905081600760006101000a81548173ffffffffffffffffffffffffffffffffffffffff021916908373ffffffffffffffffffffffffffffffffffffffff1602179055508173ffffffffffffffffffffffffffffffffffffffff168173ffffffffffffffffffffffffffffffffffffffff167f8be0079c531659141344cd1fd0a4f28419497f9722a3daafe3b4186f6b6457e060405160405180910390a35050565b8173ffffffffffffffffffffffffffffffffffffffff168373ffffffffffffffffffffffffffffffffffffffff161415611cfe576040517f08c379a0000000000000000000000000000000000000000000000000000000008152600401611cf5906132aa565b60405180910390fd5b80600560008573ffffffffffffffffffffffffffffffffffffffff1673ffffffffffffffffffffffffffffffffffffffff16815260200190815260200160002060008473ffffffffffffffffffffffffffffffffffffffff1673ffffffffffffffffffffffffffffffffffffffff16815260200190815260200160002060006101000a81548160ff0219169083151502179055508173ffffffffffffffffffffffffffffffffffffffff168373ffffffffffffffffffffffffffffffffffffffff167f17307eab39ab6107e8899845ad3d59bd9653f200f220920489ca2b5937696c3183604051611def919061316d565b60405180910390a3505050565b611e078484846116fe565b611e1384848484611f20565b611e52576040517f08c379a0000000000000000000000000000000000000000000000000000000008152600401611e49906131ea565b60405180910390fd5b50505050565b606060405180602001604052806000815250905090565b6060611e7a826114e5565b611eb9576040517f08c379a0000000000000000000000000000000000000000000000000000000008152600401611eb09061340a565b60405180910390fd5b6000611ec3611e58565b90506000815111611ee35760405180602001604052806000815250611f0e565b80611eed846120b7565b604051602001611efe9291906130cd565b6040516020818303038152906040525b915050919050565b505050565b505050565b6000611f418473ffffffffffffffffffffffffffffffffffffffff16612264565b156120aa578373ffffffffffffffffffffffffffffffffffffffff1663150b7a02611f6a611551565b8786866040518563ffffffff1660e01b8152600401611f8c9493929190613121565b602060405180830381600087803b158015611fa657600080fd5b505af1925050508015611fd757506040513d601f19601f82011682018060405250810190611fd4919061275a565b60015b61205a573d8060008114612007576040519150601f19603f3d011682016040523d82523d6000602084013e61200c565b606091505b50600081511415612052576040517f08c379a0000000000000000000000000000000000000000000000000000000008152600401612049906131ea565b60405180910390fd5b805181602001fd5b63150b7a0260e01b7bffffffffffffffffffffffffffffffffffffffffffffffffffffffff1916817bffffffffffffffffffffffffffffffffffffffffffffffffffffffff1916149150506120af565b600190505b949350505050565b606060008214156120ff576040518060400160405280600181526020017f3000000000000000000000000000000000000000000000000000000000000000815250905061225f565b600082905060005b6000821461213157808061211a90613793565b915050600a8261212a91906135da565b9150612107565b60008167ffffffffffffffff811115612173577f4e487b7100000000000000000000000000000000000000000000000000000000600052604160045260246000fd5b6040519080825280601f01601f1916602001820160405280156121a55781602001600182028036833780820191505090505b5090505b60008514612258576001826121be9190613665565b9150600a856121cd91906137dc565b60306121d99190613584565b60f81b818381518110612215577f4e487b7100000000000000000000000000000000000000000000000000000000600052603260045260246000fd5b60200101907effffffffffffffffffffffffffffffffffffffffffffffffffffffffffffff1916908160001a905350600a8561225191906135da565b94506121a9565b8093505050505b919050565b6000808273ffffffffffffffffffffffffffffffffffffffff16803b806020016040519081016040528181526000908060200190933c51119050919050565b8280546122af90613761565b90600052602060002090601f0160209004810192826122d15760008555612318565b82601f106122ea57805160ff1916838001178555612318565b82800160010185558215612318579182015b828111156123175782518255916020019190600101906122fc565b5b5090506123259190612329565b5090565b5b8082111561234257600081600090555060010161232a565b5090565b6000612359612354846134d6565b6134a5565b90508281526020810184848401111561237157600080fd5b61237c84828561371f565b509392505050565b600061239761239284613506565b6134a5565b9050828152602081018484840111156123af57600080fd5b6123ba84828561371f565b509392505050565b6000813590506123d1816138da565b92915050565b6000813590506123e6816138f1565b92915050565b6000813590506123fb81613908565b92915050565b6000813590506124108161391f565b92915050565b6000815190506124258161391f565b92915050565b600082601f83011261243c57600080fd5b813561244c848260208601612346565b91505092915050565b600082601f83011261246657600080fd5b8135612476848260208601612384565b91505092915050565b60008135905061248e81613936565b92915050565b6000602082840312156124a657600080fd5b60006124b4848285016123c2565b91505092915050565b600080600080608085870312156124d357600080fd5b60006124e1878288016123d7565b94505060206124f2878288016123d7565b93505060406125038782880161247f565b92505060606125148782880161247f565b91505092959194509250565b6000806040838503121561253357600080fd5b6000612541858286016123c2565b9250506020612552858286016123c2565b9150509250929050565b60008060006060848603121561257157600080fd5b600061257f868287016123c2565b9350506020612590868287016123c2565b92505060406125a18682870161247f565b9150509250925092565b600080600080608085870312156125c157600080fd5b60006125cf878288016123c2565b94505060206125e0878288016123c2565b93505060406125f18782880161247f565b925050606085013567ffffffffffffffff81111561260e57600080fd5b61261a8782880161242b565b91505092959194509250565b6000806040838503121561263957600080fd5b6000612647858286016123c2565b9250506020612658858286016123ec565b9150509250929050565b6000806000806080858703121561267857600080fd5b6000612686878288016123c2565b945050602085013567ffffffffffffffff8111156126a357600080fd5b6126af87828801612455565b935050604085013567ffffffffffffffff8111156126cc57600080fd5b6126d887828801612455565b92505060606126e9878288016123d7565b91505092959194509250565b6000806040838503121561270857600080fd5b6000612716858286016123c2565b92505060206127278582860161247f565b9150509250929050565b60006020828403121561274357600080fd5b600061275184828501612401565b91505092915050565b60006020828403121561276c57600080fd5b600061277a84828501612416565b91505092915050565b60006020828403121561279557600080fd5b60006127a38482850161247f565b91505092915050565b6127b581613699565b82525050565b6127c4816136bd565b82525050565b60006127d582613536565b6127df818561354c565b93506127ef81856020860161372e565b6127f8816138c9565b840191505092915050565b600061280e82613541565b6128188185613568565b935061282881856020860161372e565b612831816138c9565b840191505092915050565b600061284782613541565b6128518185613579565b935061286181856020860161372e565b80840191505092915050565b600061287a601683613568565b91507f4661696c656420746f2073656e64206a617265657468000000000000000000006000830152602082019050919050565b60006128ba601783613568565b91507f4661696c656420746f2073656e642073617563656574680000000000000000006000830152602082019050919050565b60006128fa603283613568565b91507f4552433732313a207472616e7366657220746f206e6f6e20455243373231526560008301527f63656976657220696d706c656d656e74657200000000000000000000000000006020830152604082019050919050565b6000612960602683613568565b91507f4f776e61626c653a206e6577206f776e657220697320746865207a65726f206160008301527f64647265737300000000000000000000000000000000000000000000000000006020830152604082019050919050565b60006129c6602583613568565b91507f4552433732313a207472616e736665722066726f6d20696e636f72726563742060008301527f6f776e65720000000000000000000000000000000000000000000000000000006020830152604082019050919050565b6000612a2c601c83613568565b91507f4552433732313a20746f6b656e20616c7265616479206d696e746564000000006000830152602082019050919050565b6000612a6c602683613568565b91507f4465727020796f752063616e6e6f74207769746864726177206d6f617220746860008301527f616e2068617300000000000000000000000000000000000000000000000000006020830152604082019050919050565b6000612ad2602483613568565b91507f4552433732313a207472616e7366657220746f20746865207a65726f2061646460008301527f72657373000000000000000000000000000000000000000000000000000000006020830152604082019050919050565b6000612b38601983613568565b91507f4552433732313a20617070726f766520746f2063616c6c6572000000000000006000830152602082019050919050565b6000612b78602c83613568565b91507f4552433732313a206f70657261746f7220717565727920666f72206e6f6e657860008301527f697374656e7420746f6b656e00000000000000000000000000000000000000006020830152604082019050919050565b6000612bde603883613568565b91507f4552433732313a20617070726f76652063616c6c6572206973206e6f74206f7760008301527f6e6572206e6f7220617070726f76656420666f7220616c6c00000000000000006020830152604082019050919050565b6000612c44602a83613568565b91507f4552433732313a2062616c616e636520717565727920666f7220746865207a6560008301527f726f2061646472657373000000000000000000000000000000000000000000006020830152604082019050919050565b6000612caa602983613568565b91507f4552433732313a206f776e657220717565727920666f72206e6f6e657869737460008301527f656e7420746f6b656e00000000000000000000000000000000000000000000006020830152604082019050919050565b6000612d10602e83613568565b91507f45524337323155524953746f726167653a2055524920736574206f66206e6f6e60008301527f6578697374656e7420746f6b656e0000000000000000000000000000000000006020830152604082019050919050565b6000612d76602083613568565b91507f4552433732313a206d696e7420746f20746865207a65726f20616464726573736000830152602082019050919050565b6000612db6603183613568565b91507f45524337323155524953746f726167653a2055524920717565727920666f722060008301527f6e6f6e6578697374656e7420746f6b656e0000000000000000000000000000006020830152604082019050919050565b6000612e1c602c83613568565b91507f4552433732313a20617070726f76656420717565727920666f72206e6f6e657860008301527f697374656e7420746f6b656e00000000000000000000000000000000000000006020830152604082019050919050565b6000612e82602083613568565b91507f4f776e61626c653a2063616c6c6572206973206e6f7420746865206f776e65726000830152602082019050919050565b6000612ec2603283613568565b91507f4465727020676f20626967206f7220676f20686f6d6520414e4420616468657260008301527f6520746f207468652025732066656c6c617300000000000000000000000000006020830152604082019050919050565b6000612f28602f83613568565b91507f4552433732314d657461646174613a2055524920717565727920666f72206e6f60008301527f6e6578697374656e7420746f6b656e00000000000000000000000000000000006020830152604082019050919050565b6000612f8e602183613568565b91507f4552433732313a20617070726f76616c20746f2063757272656e74206f776e6560008301527f72000000000000000000000000000000000000000000000000000000000000006020830152604082019050919050565b6000612ff460008361355d565b9150600082019050919050565b600061300e603183613568565b91507f4552433732313a207472616e736665722063616c6c6572206973206e6f74206f60008301527f776e6572206e6f7220617070726f7665640000000000000000000000000000006020830152604082019050919050565b6000613074601583613568565b91507f4661696c656420746f2073656e642072656665746800000000000000000000006000830152602082019050919050565b6130b081613715565b82525050565b60006130c2828461283c565b915081905092915050565b60006130d9828561283c565b91506130e5828461283c565b91508190509392505050565b60006130fc82612fe7565b9150819050919050565b600060208201905061311b60008301846127ac565b92915050565b600060808201905061313660008301876127ac565b61314360208301866127ac565b61315060408301856130a7565b818103606083015261316281846127ca565b905095945050505050565b600060208201905061318260008301846127bb565b92915050565b600060208201905081810360008301526131a28184612803565b905092915050565b600060208201905081810360008301526131c38161286d565b9050919050565b600060208201905081810360008301526131e3816128ad565b9050919050565b60006020820190508181036000830152613203816128ed565b9050919050565b6000602082019050818103600083015261322381612953565b9050919050565b60006020820190508181036000830152613243816129b9565b9050919050565b6000602082019050818103600083015261326381612a1f565b9050919050565b6000602082019050818103600083015261328381612a5f565b9050919050565b600060208201905081810360008301526132a381612ac5565b9050919050565b600060208201905081810360008301526132c381612b2b565b9050919050565b600060208201905081810360008301526132e381612b6b565b9050919050565b6000602082019050818103600083015261330381612bd1565b9050919050565b6000602082019050818103600083015261332381612c37565b9050919050565b6000602082019050818103600083015261334381612c9d565b9050919050565b6000602082019050818103600083015261336381612d03565b9050919050565b6000602082019050818103600083015261338381612d69565b9050919050565b600060208201905081810360008301526133a381612da9565b9050919050565b600060208201905081810360008301526133c381612e0f565b9050919050565b600060208201905081810360008301526133e381612e75565b9050919050565b6000602082019050818103600083015261340381612eb5565b9050919050565b6000602082019050818103600083015261342381612f1b565b9050919050565b6000602082019050818103600083015261344381612f81565b9050919050565b6000602082019050818103600083015261346381613001565b9050919050565b6000602082019050818103600083015261348381613067565b9050919050565b600060208201905061349f60008301846130a7565b92915050565b6000604051905081810181811067ffffffffffffffff821117156134cc576134cb61389a565b5b8060405250919050565b600067ffffffffffffffff8211156134f1576134f061389a565b5b601f19601f8301169050602081019050919050565b600067ffffffffffffffff8211156135215761352061389a565b5b601f19601f8301169050602081019050919050565b600081519050919050565b600081519050919050565b600082825260208201905092915050565b600081905092915050565b600082825260208201905092915050565b600081905092915050565b600061358f82613715565b915061359a83613715565b9250827fffffffffffffffffffffffffffffffffffffffffffffffffffffffffffffffff038211156135cf576135ce61380d565b5b828201905092915050565b60006135e582613715565b91506135f083613715565b925082613600576135ff61383c565b5b828204905092915050565b600061361682613715565b915061362183613715565b9250817fffffffffffffffffffffffffffffffffffffffffffffffffffffffffffffffff048311821515161561365a5761365961380d565b5b828202905092915050565b600061367082613715565b915061367b83613715565b92508282101561368e5761368d61380d565b5b828203905092915050565b60006136a4826136f5565b9050919050565b60006136b6826136f5565b9050919050565b60008115159050919050565b60007fffffffff0000000000000000000000000000000000000000000000000000000082169050919050565b600073ffffffffffffffffffffffffffffffffffffffff82169050919050565b6000819050919050565b82818337600083830152505050565b60005b8381101561374c578082015181840152602081019050613731565b8381111561375b576000848401525b50505050565b6000600282049050600182168061377957607f821691505b6020821081141561378d5761378c61386b565b5b50919050565b600061379e82613715565b91507fffffffffffffffffffffffffffffffffffffffffffffffffffffffffffffffff8214156137d1576137d061380d565b5b600182019050919050565b60006137e782613715565b91506137f283613715565b9250826138025761380161383c565b5b828206905092915050565b7f4e487b7100000000000000000000000000000000000000000000000000000000600052601160045260246000fd5b7f4e487b7100000000000000000000000000000000000000000000000000000000600052601260045260246000fd5b7f4e487b7100000000000000000000000000000000000000000000000000000000600052602260045260246000fd5b7f4e487b7100000000000000000000000000000000000000000000000000000000600052604160045260246000fd5b6000601f19601f8301169050919050565b6138e381613699565b81146138ee57600080fd5b50565b6138fa816136ab565b811461390557600080fd5b50565b613911816136bd565b811461391c57600080fd5b50565b613928816136c9565b811461393357600080fd5b50565b61393f81613715565b811461394a57600080fd5b5056fea264697066735822122077513aa9e5ef9914d0a849cdf56719a6e1aade4dce5edccd3398aa486506c8a964736f6c63430008000033",
  "linkReferences": {},
  "deployedLinkReferences": {}
}