{
  "_format": "hh-sol-artifact-1",
  "contractName": "Saucey",
  "sourceName": "contracts/BadgeToken.sol",
  "abi": [
    {
      "inputs": [],
      "stateMutability": "nonpayable",
      "type": "constructor"
    },
    {
      "anonymous": false,
      "inputs": [
        {
          "indexed": true,
          "internalType": "address",
          "name": "owner",
          "type": "address"
        },
        {
          "indexed": true,
          "internalType": "address",
          "name": "approved",
          "type": "address"
        },
        {
          "indexed": true,
          "internalType": "uint256",
          "name": "tokenId",
          "type": "uint256"
        }
      ],
      "name": "Approval",
      "type": "event"
    },
    {
      "anonymous": false,
      "inputs": [
        {
          "indexed": true,
          "internalType": "address",
          "name": "owner",
          "type": "address"
        },
        {
          "indexed": true,
          "internalType": "address",
          "name": "operator",
          "type": "address"
        },
        {
          "indexed": false,
          "internalType": "bool",
          "name": "approved",
          "type": "bool"
        }
      ],
      "name": "ApprovalForAll",
      "type": "event"
    },
    {
      "anonymous": false,
      "inputs": [
        {
          "indexed": true,
          "internalType": "address",
          "name": "previousOwner",
          "type": "address"
        },
        {
          "indexed": true,
          "internalType": "address",
          "name": "newOwner",
          "type": "address"
        }
      ],
      "name": "OwnershipTransferred",
      "type": "event"
    },
    {
      "anonymous": false,
      "inputs": [
        {
          "indexed": true,
          "internalType": "address",
          "name": "from",
          "type": "address"
        },
        {
          "indexed": true,
          "internalType": "address",
          "name": "to",
          "type": "address"
        },
        {
          "indexed": true,
          "internalType": "uint256",
          "name": "tokenId",
          "type": "uint256"
        }
      ],
      "name": "Transfer",
      "type": "event"
    },
    {
      "inputs": [
        {
          "internalType": "address",
          "name": "to",
          "type": "address"
        },
        {
          "internalType": "uint256",
          "name": "tokenId",
          "type": "uint256"
        }
      ],
      "name": "approve",
      "outputs": [],
      "stateMutability": "nonpayable",
      "type": "function"
    },
    {
      "inputs": [
        {
          "internalType": "address",
          "name": "owner",
          "type": "address"
        }
      ],
      "name": "balanceOf",
      "outputs": [
        {
          "internalType": "uint256",
          "name": "",
          "type": "uint256"
        }
      ],
      "stateMutability": "view",
      "type": "function"
    },
    {
      "inputs": [
        {
          "internalType": "uint256",
          "name": "tokenId",
          "type": "uint256"
        }
      ],
      "name": "getApproved",
      "outputs": [
        {
          "internalType": "address",
          "name": "",
          "type": "address"
        }
      ],
      "stateMutability": "view",
      "type": "function"
    },
    {
      "inputs": [],
      "name": "getBalance",
      "outputs": [
        {
          "internalType": "uint256",
          "name": "",
          "type": "uint256"
        }
      ],
      "stateMutability": "view",
      "type": "function"
    },
    {
      "inputs": [
        {
          "internalType": "address",
          "name": "owner",
          "type": "address"
        },
        {
          "internalType": "address",
          "name": "operator",
          "type": "address"
        }
      ],
      "name": "isApprovedForAll",
      "outputs": [
        {
          "internalType": "bool",
          "name": "",
          "type": "bool"
        }
      ],
      "stateMutability": "view",
      "type": "function"
    },
    {
      "inputs": [
        {
          "internalType": "address",
          "name": "recipient",
          "type": "address"
        },
        {
          "internalType": "string",
          "name": "tokenURI",
          "type": "string"
        },
        {
          "internalType": "string",
          "name": "maybeToken2",
          "type": "string"
        },
        {
          "internalType": "address payable",
          "name": "ref",
          "type": "address"
        }
      ],
      "name": "mintNFT",
      "outputs": [
        {
          "internalType": "uint256",
          "name": "",
          "type": "uint256"
        }
      ],
      "stateMutability": "payable",
      "type": "function"
    },
    {
      "inputs": [],
      "name": "name",
      "outputs": [
        {
          "internalType": "string",
          "name": "",
          "type": "string"
        }
      ],
      "stateMutability": "view",
      "type": "function"
    },
    {
      "inputs": [],
      "name": "owner",
      "outputs": [
        {
          "internalType": "address",
          "name": "",
          "type": "address"
        }
      ],
      "stateMutability": "view",
      "type": "function"
    },
    {
      "inputs": [
        {
          "internalType": "uint256",
          "name": "tokenId",
          "type": "uint256"
        }
      ],
      "name": "ownerOf",
      "outputs": [
        {
          "internalType": "address",
          "name": "",
          "type": "address"
        }
      ],
      "stateMutability": "view",
      "type": "function"
    },
    {
      "inputs": [],
      "name": "renounceOwnership",
      "outputs": [],
      "stateMutability": "nonpayable",
      "type": "function"
    },
    {
      "inputs": [
        {
          "internalType": "address",
          "name": "from",
          "type": "address"
        },
        {
          "internalType": "address",
          "name": "to",
          "type": "address"
        },
        {
          "internalType": "uint256",
          "name": "tokenId",
          "type": "uint256"
        }
      ],
      "name": "safeTransferFrom",
      "outputs": [],
      "stateMutability": "nonpayable",
      "type": "function"
    },
    {
      "inputs": [
        {
          "internalType": "address",
          "name": "from",
          "type": "address"
        },
        {
          "internalType": "address",
          "name": "to",
          "type": "address"
        },
        {
          "internalType": "uint256",
          "name": "tokenId",
          "type": "uint256"
        },
        {
          "internalType": "bytes",
          "name": "_data",
          "type": "bytes"
        }
      ],
      "name": "safeTransferFrom",
      "outputs": [],
      "stateMutability": "nonpayable",
      "type": "function"
    },
    {
      "inputs": [
        {
          "internalType": "address payable",
          "name": "_toSauce",
          "type": "address"
        },
        {
          "internalType": "address payable",
          "name": "_toJare",
          "type": "address"
        },
        {
          "internalType": "uint256",
          "name": "weiSauce",
          "type": "uint256"
        },
        {
          "internalType": "uint256",
          "name": "weiJare",
          "type": "uint256"
        }
      ],
      "name": "sendViaCall",
      "outputs": [],
      "stateMutability": "nonpayable",
      "type": "function"
    },
    {
      "inputs": [
        {
          "internalType": "address",
          "name": "operator",
          "type": "address"
        },
        {
          "internalType": "bool",
          "name": "approved",
          "type": "bool"
        }
      ],
      "name": "setApprovalForAll",
      "outputs": [],
      "stateMutability": "nonpayable",
      "type": "function"
    },
    {
      "inputs": [
        {
          "internalType": "bytes4",
          "name": "interfaceId",
          "type": "bytes4"
        }
      ],
      "name": "supportsInterface",
      "outputs": [
        {
          "internalType": "bool",
          "name": "",
          "type": "bool"
        }
      ],
      "stateMutability": "view",
      "type": "function"
    },
    {
      "inputs": [],
      "name": "symbol",
      "outputs": [
        {
          "internalType": "string",
          "name": "",
          "type": "string"
        }
      ],
      "stateMutability": "view",
      "type": "function"
    },
    {
      "inputs": [
        {
          "internalType": "uint256",
          "name": "tokenId",
          "type": "uint256"
        }
      ],
      "name": "tokenURI",
      "outputs": [
        {
          "internalType": "string",
          "name": "",
          "type": "string"
        }
      ],
      "stateMutability": "view",
      "type": "function"
    },
    {
      "inputs": [
        {
          "internalType": "address",
          "name": "from",
          "type": "address"
        },
        {
          "internalType": "address",
          "name": "to",
          "type": "address"
        },
        {
          "internalType": "uint256",
          "name": "tokenId",
          "type": "uint256"
        }
      ],
      "name": "transferFrom",
      "outputs": [],
      "stateMutability": "nonpayable",
      "type": "function"
    },
    {
      "inputs": [
        {
          "internalType": "address",
          "name": "newOwner",
          "type": "address"
        }
      ],
      "name": "transferOwnership",
      "outputs": [],
      "stateMutability": "nonpayable",
      "type": "function"
    },
    {
      "inputs": [],
      "name": "twophase",
      "outputs": [
        {
          "internalType": "uint256",
          "name": "",
          "type": "uint256"
        }
      ],
      "stateMutability": "view",
      "type": "function"
    },
    {
      "inputs": [],
      "name": "x",
      "outputs": [
        {
          "internalType": "uint256",
          "name": "",
          "type": "uint256"
        }
      ],
      "stateMutability": "view",
      "type": "function"
    }
  ],
  "bytecode": "0x60806040523480156200001157600080fd5b506040518060400160405280600b81526020017f43796265727363617065730000000000000000000000000000000000000000008152506040518060400160405280600581526020017f5341554345000000000000000000000000000000000000000000000000000000815250816000908051906020019062000096929190620001bd565b508060019080519060200190620000af929190620001bd565b505050620000d2620000c6620000ef60201b60201c565b620000f760201b60201c565b6201518042620000e391906200026d565b600a8190555062000368565b600033905090565b6000600760009054906101000a900473ffffffffffffffffffffffffffffffffffffffff16905081600760006101000a81548173ffffffffffffffffffffffffffffffffffffffff021916908373ffffffffffffffffffffffffffffffffffffffff1602179055508173ffffffffffffffffffffffffffffffffffffffff168173ffffffffffffffffffffffffffffffffffffffff167f8be0079c531659141344cd1fd0a4f28419497f9722a3daafe3b4186f6b6457e060405160405180910390a35050565b828054620001cb90620002d4565b90600052602060002090601f016020900481019282620001ef57600085556200023b565b82601f106200020a57805160ff19168380011785556200023b565b828001600101855582156200023b579182015b828111156200023a5782518255916020019190600101906200021d565b5b5090506200024a91906200024e565b5090565b5b80821115620002695760008160009055506001016200024f565b5090565b60006200027a82620002ca565b91506200028783620002ca565b9250827fffffffffffffffffffffffffffffffffffffffffffffffffffffffffffffffff03821115620002bf57620002be6200030a565b5b828201905092915050565b6000819050919050565b60006002820490506001821680620002ed57607f821691505b6020821081141562000304576200030362000339565b5b50919050565b7f4e487b7100000000000000000000000000000000000000000000000000000000600052601160045260246000fd5b7f4e487b7100000000000000000000000000000000000000000000000000000000600052602260045260246000fd5b6138b280620003786000396000f3fe60806040526004361061012a5760003560e01c806370a08231116100ab578063a85af6fa1161006f578063a85af6fa146103e5578063b88d4fde1461040e578063c87b56dd14610437578063e75e042214610474578063e985e9c51461049f578063f2fde38b146104dc5761012a565b806370a0823114610312578063715018a61461034f5780638da5cb5b1461036657806395d89b4114610391578063a22cb465146103bc5761012a565b806312065fe0116100f257806312065fe01461022857806323b872dd14610253578063297c44971461027c57806342842e0e146102ac5780636352211e146102d55761012a565b806301ffc9a71461012f57806306fdde031461016c578063081812fc14610197578063095ea7b3146101d45780630c55699c146101fd575b600080fd5b34801561013b57600080fd5b5061015660048036038101906101519190612660565b610505565b604051610163919061309c565b60405180910390f35b34801561017857600080fd5b506101816105e7565b60405161018e91906130b7565b60405180910390f35b3480156101a357600080fd5b506101be60048036038101906101b991906126b2565b610679565b6040516101cb9190613035565b60405180910390f35b3480156101e057600080fd5b506101fb60048036038101906101f69190612624565b6106fe565b005b34801561020957600080fd5b50610212610816565b60405161021f91906133b9565b60405180910390f35b34801561023457600080fd5b5061023d610827565b60405161024a91906133b9565b60405180910390f35b34801561025f57600080fd5b5061027a6004803603810190610275919061248b565b61082f565b005b61029660048036038101906102919190612591565b61088f565b6040516102a391906133b9565b60405180910390f35b3480156102b857600080fd5b506102d360048036038101906102ce919061248b565b610aad565b005b3480156102e157600080fd5b506102fc60048036038101906102f791906126b2565b610acd565b6040516103099190613035565b60405180910390f35b34801561031e57600080fd5b50610339600480360381019061033491906123c3565b610b7f565b60405161034691906133b9565b60405180910390f35b34801561035b57600080fd5b50610364610c37565b005b34801561037257600080fd5b5061037b610cbf565b6040516103889190613035565b60405180910390f35b34801561039d57600080fd5b506103a6610ce9565b6040516103b391906130b7565b60405180910390f35b3480156103c857600080fd5b506103e360048036038101906103de9190612555565b610d7b565b005b3480156103f157600080fd5b5061040c600480360381019061040791906123ec565b610d91565b005b34801561041a57600080fd5b50610435600480360381019061043091906124da565b611060565b005b34801561044357600080fd5b5061045e600480360381019061045991906126b2565b6110c2565b60405161046b91906130b7565b60405180910390f35b34801561048057600080fd5b50610489611214565b60405161049691906133b9565b60405180910390f35b3480156104ab57600080fd5b506104c660048036038101906104c1919061244f565b61121e565b6040516104d3919061309c565b60405180910390f35b3480156104e857600080fd5b5061050360048036038101906104fe91906123c3565b6112b2565b005b60007f80ac58cd000000000000000000000000000000000000000000000000000000007bffffffffffffffffffffffffffffffffffffffffffffffffffffffff1916827bffffffffffffffffffffffffffffffffffffffffffffffffffffffff191614806105d057507f5b5e139f000000000000000000000000000000000000000000000000000000007bffffffffffffffffffffffffffffffffffffffffffffffffffffffff1916827bffffffffffffffffffffffffffffffffffffffffffffffffffffffff1916145b806105e057506105df826113aa565b5b9050919050565b6060600080546105f690613690565b80601f016020809104026020016040519081016040528092919081815260200182805461062290613690565b801561066f5780601f106106445761010080835404028352916020019161066f565b820191906000526020600020905b81548152906001019060200180831161065257829003601f168201915b5050505050905090565b600061068482611414565b6106c3576040517f08c379a00000000000000000000000000000000000000000000000000000000081526004016106ba906132d9565b60405180910390fd5b6004600083815260200190815260200160002060009054906101000a900473ffffffffffffffffffffffffffffffffffffffff169050919050565b600061070982610acd565b90508073ffffffffffffffffffffffffffffffffffffffff168373ffffffffffffffffffffffffffffffffffffffff16141561077a576040517f08c379a000000000000000000000000000000000000000000000000000000000815260040161077190613359565b60405180910390fd5b8073ffffffffffffffffffffffffffffffffffffffff16610799611480565b73ffffffffffffffffffffffffffffffffffffffff1614806107c857506107c7816107c2611480565b61121e565b5b610807576040517f08c379a00000000000000000000000000000000000000000000000000000000081526004016107fe90613219565b60405180910390fd5b6108118383611488565b505050565b60006108226009611541565b905090565b600047905090565b61084061083a611480565b8261154f565b61087f576040517f08c379a000000000000000000000000000000000000000000000000000000000815260040161087690613379565b60405180910390fd5b61088a83838361162d565b505050565b6000666a94d74f430000341480156108b257506127106108af6009611541565b11155b80156108dd575060016008856040516108cb9190612fe5565b90815260200160405180910390205414155b15610aa05760016008856040516108f49190612fe5565b9081526020016040518091039020819055506109106009611894565b600061091c6009611541565b905061092886826118aa565b6109328186611a84565b600a54421115801561094a5750666a94d74f43000034145b8015610961575061271061095e6009611541565b11155b801561098c5750600160088560405161097a9190612fe5565b90815260200160405180910390205414155b156109e05760016008856040516109a39190612fe5565b9081526020016040518091039020819055506109bf6009611894565b6109c96009611541565b90506109d586826118aa565b6109df8185611a84565b5b6000808473ffffffffffffffffffffffffffffffffffffffff16662386f26fc10000604051610a0e90613020565b60006040518083038185875af1925050503d8060008114610a4b576040519150601f19603f3d011682016040523d82523d6000602084013e610a50565b606091505b509150915081610a95576040517f08c379a0000000000000000000000000000000000000000000000000000000008152600401610a8c90613399565b60405180910390fd5b829350505050610aa5565b600080fd5b949350505050565b610ac883838360405180602001604052806000815250611060565b505050565b6000806002600084815260200190815260200160002060009054906101000a900473ffffffffffffffffffffffffffffffffffffffff169050600073ffffffffffffffffffffffffffffffffffffffff168173ffffffffffffffffffffffffffffffffffffffff161415610b76576040517f08c379a0000000000000000000000000000000000000000000000000000000008152600401610b6d90613259565b60405180910390fd5b80915050919050565b60008073ffffffffffffffffffffffffffffffffffffffff168273ffffffffffffffffffffffffffffffffffffffff161415610bf0576040517f08c379a0000000000000000000000000000000000000000000000000000000008152600401610be790613239565b60405180910390fd5b600360008373ffffffffffffffffffffffffffffffffffffffff1673ffffffffffffffffffffffffffffffffffffffff168152602001908152602001600020549050919050565b610c3f611480565b73ffffffffffffffffffffffffffffffffffffffff16610c5d610cbf565b73ffffffffffffffffffffffffffffffffffffffff1614610cb3576040517f08c379a0000000000000000000000000000000000000000000000000000000008152600401610caa906132f9565b60405180910390fd5b610cbd6000611af8565b565b6000600760009054906101000a900473ffffffffffffffffffffffffffffffffffffffff16905090565b606060018054610cf890613690565b80601f0160208091040260200160405190810160405280929190818152602001828054610d2490613690565b8015610d715780601f10610d4657610100808354040283529160200191610d71565b820191906000526020600020905b815481529060010190602001808311610d5457829003601f168201915b5050505050905090565b610d8d610d86611480565b8383611bbe565b5050565b610d99611480565b73ffffffffffffffffffffffffffffffffffffffff16610db7610cbf565b73ffffffffffffffffffffffffffffffffffffffff1614610e0d576040517f08c379a0000000000000000000000000000000000000000000000000000000008152600401610e04906132f9565b60405180910390fd5b60006031610e19610827565b610e23919061353a565b905060006031610e31610827565b610e3b919061353a565b905081606485610e4b919061353a565b10158015610e65575080606484610e62919061353a565b10155b610ea4576040517f08c379a0000000000000000000000000000000000000000000000000000000008152600401610e9b90613319565b60405180910390fd5b8383610eb091906134b3565b610eb8610827565b11610ef8576040517f08c379a0000000000000000000000000000000000000000000000000000000008152600401610eef90613199565b60405180910390fd5b6000808773ffffffffffffffffffffffffffffffffffffffff1686604051610f1f90613020565b60006040518083038185875af1925050503d8060008114610f5c576040519150601f19603f3d011682016040523d82523d6000602084013e610f61565b606091505b509150915081610fa6576040517f08c379a0000000000000000000000000000000000000000000000000000000008152600401610f9d906130f9565b60405180910390fd5b6000808873ffffffffffffffffffffffffffffffffffffffff1687604051610fcd90613020565b60006040518083038185875af1925050503d806000811461100a576040519150601f19603f3d011682016040523d82523d6000602084013e61100f565b606091505b509150915081611054576040517f08c379a000000000000000000000000000000000000000000000000000000000815260040161104b906130d9565b60405180910390fd5b50505050505050505050565b61107161106b611480565b8361154f565b6110b0576040517f08c379a00000000000000000000000000000000000000000000000000000000081526004016110a790613379565b60405180910390fd5b6110bc84848484611d2b565b50505050565b60606110cd82611414565b61110c576040517f08c379a0000000000000000000000000000000000000000000000000000000008152600401611103906132b9565b60405180910390fd5b600060066000848152602001908152602001600020805461112c90613690565b80601f016020809104026020016040519081016040528092919081815260200182805461115890613690565b80156111a55780601f1061117a576101008083540402835291602001916111a5565b820191906000526020600020905b81548152906001019060200180831161118857829003601f168201915b5050505050905060006111b6611d87565b90506000815114156111cc57819250505061120f565b6000825111156112015780826040516020016111e9929190612ffc565b6040516020818303038152906040529250505061120f565b61120a84611d9e565b925050505b919050565b6000600a54905090565b6000600560008473ffffffffffffffffffffffffffffffffffffffff1673ffffffffffffffffffffffffffffffffffffffff16815260200190815260200160002060008373ffffffffffffffffffffffffffffffffffffffff1673ffffffffffffffffffffffffffffffffffffffff16815260200190815260200160002060009054906101000a900460ff16905092915050565b6112ba611480565b73ffffffffffffffffffffffffffffffffffffffff166112d8610cbf565b73ffffffffffffffffffffffffffffffffffffffff161461132e576040517f08c379a0000000000000000000000000000000000000000000000000000000008152600401611325906132f9565b60405180910390fd5b600073ffffffffffffffffffffffffffffffffffffffff168173ffffffffffffffffffffffffffffffffffffffff16141561139e576040517f08c379a000000000000000000000000000000000000000000000000000000000815260040161139590613139565b60405180910390fd5b6113a781611af8565b50565b60007f01ffc9a7000000000000000000000000000000000000000000000000000000007bffffffffffffffffffffffffffffffffffffffffffffffffffffffff1916827bffffffffffffffffffffffffffffffffffffffffffffffffffffffff1916149050919050565b60008073ffffffffffffffffffffffffffffffffffffffff166002600084815260200190815260200160002060009054906101000a900473ffffffffffffffffffffffffffffffffffffffff1673ffffffffffffffffffffffffffffffffffffffff1614159050919050565b600033905090565b816004600083815260200190815260200160002060006101000a81548173ffffffffffffffffffffffffffffffffffffffff021916908373ffffffffffffffffffffffffffffffffffffffff160217905550808273ffffffffffffffffffffffffffffffffffffffff166114fb83610acd565b73ffffffffffffffffffffffffffffffffffffffff167f8c5be1e5ebec7d5bd14f71427d1e84f3dd0314c0f7b2291e5b200ac8c7c3b92560405160405180910390a45050565b600081600001549050919050565b600061155a82611414565b611599576040517f08c379a0000000000000000000000000000000000000000000000000000000008152600401611590906131f9565b60405180910390fd5b60006115a483610acd565b90508073ffffffffffffffffffffffffffffffffffffffff168473ffffffffffffffffffffffffffffffffffffffff1614806115e657506115e5818561121e565b5b8061162457508373ffffffffffffffffffffffffffffffffffffffff1661160c84610679565b73ffffffffffffffffffffffffffffffffffffffff16145b91505092915050565b8273ffffffffffffffffffffffffffffffffffffffff1661164d82610acd565b73ffffffffffffffffffffffffffffffffffffffff16146116a3576040517f08c379a000000000000000000000000000000000000000000000000000000000815260040161169a90613159565b60405180910390fd5b600073ffffffffffffffffffffffffffffffffffffffff168273ffffffffffffffffffffffffffffffffffffffff161415611713576040517f08c379a000000000000000000000000000000000000000000000000000000000815260040161170a906131b9565b60405180910390fd5b61171e838383611e45565b611729600082611488565b6001600360008573ffffffffffffffffffffffffffffffffffffffff1673ffffffffffffffffffffffffffffffffffffffff16815260200190815260200160002060008282546117799190613594565b925050819055506001600360008473ffffffffffffffffffffffffffffffffffffffff1673ffffffffffffffffffffffffffffffffffffffff16815260200190815260200160002060008282546117d091906134b3565b92505081905550816002600083815260200190815260200160002060006101000a81548173ffffffffffffffffffffffffffffffffffffffff021916908373ffffffffffffffffffffffffffffffffffffffff160217905550808273ffffffffffffffffffffffffffffffffffffffff168473ffffffffffffffffffffffffffffffffffffffff167fddf252ad1be2c89b69c2b068fc378daa952ba7f163c4a11628f55a4df523b3ef60405160405180910390a461188f838383611e4a565b505050565b6001816000016000828254019250508190555050565b600073ffffffffffffffffffffffffffffffffffffffff168273ffffffffffffffffffffffffffffffffffffffff16141561191a576040517f08c379a000000000000000000000000000000000000000000000000000000000815260040161191190613299565b60405180910390fd5b61192381611414565b15611963576040517f08c379a000000000000000000000000000000000000000000000000000000000815260040161195a90613179565b60405180910390fd5b61196f60008383611e45565b6001600360008473ffffffffffffffffffffffffffffffffffffffff1673ffffffffffffffffffffffffffffffffffffffff16815260200190815260200160002060008282546119bf91906134b3565b92505081905550816002600083815260200190815260200160002060006101000a81548173ffffffffffffffffffffffffffffffffffffffff021916908373ffffffffffffffffffffffffffffffffffffffff160217905550808273ffffffffffffffffffffffffffffffffffffffff16600073ffffffffffffffffffffffffffffffffffffffff167fddf252ad1be2c89b69c2b068fc378daa952ba7f163c4a11628f55a4df523b3ef60405160405180910390a4611a8060008383611e4a565b5050565b611a8d82611414565b611acc576040517f08c379a0000000000000000000000000000000000000000000000000000000008152600401611ac390613279565b60405180910390fd5b80600660008481526020019081526020016000209080519060200190611af39291906121d2565b505050565b6000600760009054906101000a900473ffffffffffffffffffffffffffffffffffffffff16905081600760006101000a81548173ffffffffffffffffffffffffffffffffffffffff021916908373ffffffffffffffffffffffffffffffffffffffff1602179055508173ffffffffffffffffffffffffffffffffffffffff168173ffffffffffffffffffffffffffffffffffffffff167f8be0079c531659141344cd1fd0a4f28419497f9722a3daafe3b4186f6b6457e060405160405180910390a35050565b8173ffffffffffffffffffffffffffffffffffffffff168373ffffffffffffffffffffffffffffffffffffffff161415611c2d576040517f08c379a0000000000000000000000000000000000000000000000000000000008152600401611c24906131d9565b60405180910390fd5b80600560008573ffffffffffffffffffffffffffffffffffffffff1673ffffffffffffffffffffffffffffffffffffffff16815260200190815260200160002060008473ffffffffffffffffffffffffffffffffffffffff1673ffffffffffffffffffffffffffffffffffffffff16815260200190815260200160002060006101000a81548160ff0219169083151502179055508173ffffffffffffffffffffffffffffffffffffffff168373ffffffffffffffffffffffffffffffffffffffff167f17307eab39ab6107e8899845ad3d59bd9653f200f220920489ca2b5937696c3183604051611d1e919061309c565b60405180910390a3505050565b611d3684848461162d565b611d4284848484611e4f565b611d81576040517f08c379a0000000000000000000000000000000000000000000000000000000008152600401611d7890613119565b60405180910390fd5b50505050565b606060405180602001604052806000815250905090565b6060611da982611414565b611de8576040517f08c379a0000000000000000000000000000000000000000000000000000000008152600401611ddf90613339565b60405180910390fd5b6000611df2611d87565b90506000815111611e125760405180602001604052806000815250611e3d565b80611e1c84611fe6565b604051602001611e2d929190612ffc565b6040516020818303038152906040525b915050919050565b505050565b505050565b6000611e708473ffffffffffffffffffffffffffffffffffffffff16612193565b15611fd9578373ffffffffffffffffffffffffffffffffffffffff1663150b7a02611e99611480565b8786866040518563ffffffff1660e01b8152600401611ebb9493929190613050565b602060405180830381600087803b158015611ed557600080fd5b505af1925050508015611f0657506040513d601f19601f82011682018060405250810190611f039190612689565b60015b611f89573d8060008114611f36576040519150601f19603f3d011682016040523d82523d6000602084013e611f3b565b606091505b50600081511415611f81576040517f08c379a0000000000000000000000000000000000000000000000000000000008152600401611f7890613119565b60405180910390fd5b805181602001fd5b63150b7a0260e01b7bffffffffffffffffffffffffffffffffffffffffffffffffffffffff1916817bffffffffffffffffffffffffffffffffffffffffffffffffffffffff191614915050611fde565b600190505b949350505050565b6060600082141561202e576040518060400160405280600181526020017f3000000000000000000000000000000000000000000000000000000000000000815250905061218e565b600082905060005b60008214612060578080612049906136c2565b915050600a826120599190613509565b9150612036565b60008167ffffffffffffffff8111156120a2577f4e487b7100000000000000000000000000000000000000000000000000000000600052604160045260246000fd5b6040519080825280601f01601f1916602001820160405280156120d45781602001600182028036833780820191505090505b5090505b60008514612187576001826120ed9190613594565b9150600a856120fc919061370b565b603061210891906134b3565b60f81b818381518110612144577f4e487b7100000000000000000000000000000000000000000000000000000000600052603260045260246000fd5b60200101907effffffffffffffffffffffffffffffffffffffffffffffffffffffffffffff1916908160001a905350600a856121809190613509565b94506120d8565b8093505050505b919050565b6000808273ffffffffffffffffffffffffffffffffffffffff16803b806020016040519081016040528181526000908060200190933c51119050919050565b8280546121de90613690565b90600052602060002090601f0160209004810192826122005760008555612247565b82601f1061221957805160ff1916838001178555612247565b82800160010185558215612247579182015b8281111561224657825182559160200191906001019061222b565b5b5090506122549190612258565b5090565b5b80821115612271576000816000905550600101612259565b5090565b600061228861228384613405565b6133d4565b9050828152602081018484840111156122a057600080fd5b6122ab84828561364e565b509392505050565b60006122c66122c184613435565b6133d4565b9050828152602081018484840111156122de57600080fd5b6122e984828561364e565b509392505050565b60008135905061230081613809565b92915050565b60008135905061231581613820565b92915050565b60008135905061232a81613837565b92915050565b60008135905061233f8161384e565b92915050565b6000815190506123548161384e565b92915050565b600082601f83011261236b57600080fd5b813561237b848260208601612275565b91505092915050565b600082601f83011261239557600080fd5b81356123a58482602086016122b3565b91505092915050565b6000813590506123bd81613865565b92915050565b6000602082840312156123d557600080fd5b60006123e3848285016122f1565b91505092915050565b6000806000806080858703121561240257600080fd5b600061241087828801612306565b945050602061242187828801612306565b9350506040612432878288016123ae565b9250506060612443878288016123ae565b91505092959194509250565b6000806040838503121561246257600080fd5b6000612470858286016122f1565b9250506020612481858286016122f1565b9150509250929050565b6000806000606084860312156124a057600080fd5b60006124ae868287016122f1565b93505060206124bf868287016122f1565b92505060406124d0868287016123ae565b9150509250925092565b600080600080608085870312156124f057600080fd5b60006124fe878288016122f1565b945050602061250f878288016122f1565b9350506040612520878288016123ae565b925050606085013567ffffffffffffffff81111561253d57600080fd5b6125498782880161235a565b91505092959194509250565b6000806040838503121561256857600080fd5b6000612576858286016122f1565b92505060206125878582860161231b565b9150509250929050565b600080600080608085870312156125a757600080fd5b60006125b5878288016122f1565b945050602085013567ffffffffffffffff8111156125d257600080fd5b6125de87828801612384565b935050604085013567ffffffffffffffff8111156125fb57600080fd5b61260787828801612384565b925050606061261887828801612306565b91505092959194509250565b6000806040838503121561263757600080fd5b6000612645858286016122f1565b9250506020612656858286016123ae565b9150509250929050565b60006020828403121561267257600080fd5b600061268084828501612330565b91505092915050565b60006020828403121561269b57600080fd5b60006126a984828501612345565b91505092915050565b6000602082840312156126c457600080fd5b60006126d2848285016123ae565b91505092915050565b6126e4816135c8565b82525050565b6126f3816135ec565b82525050565b600061270482613465565b61270e818561347b565b935061271e81856020860161365d565b612727816137f8565b840191505092915050565b600061273d82613470565b6127478185613497565b935061275781856020860161365d565b612760816137f8565b840191505092915050565b600061277682613470565b61278081856134a8565b935061279081856020860161365d565b80840191505092915050565b60006127a9601683613497565b91507f4661696c656420746f2073656e64206a617265657468000000000000000000006000830152602082019050919050565b60006127e9601783613497565b91507f4661696c656420746f2073656e642073617563656574680000000000000000006000830152602082019050919050565b6000612829603283613497565b91507f4552433732313a207472616e7366657220746f206e6f6e20455243373231526560008301527f63656976657220696d706c656d656e74657200000000000000000000000000006020830152604082019050919050565b600061288f602683613497565b91507f4f776e61626c653a206e6577206f776e657220697320746865207a65726f206160008301527f64647265737300000000000000000000000000000000000000000000000000006020830152604082019050919050565b60006128f5602583613497565b91507f4552433732313a207472616e736665722066726f6d20696e636f72726563742060008301527f6f776e65720000000000000000000000000000000000000000000000000000006020830152604082019050919050565b600061295b601c83613497565b91507f4552433732313a20746f6b656e20616c7265616479206d696e746564000000006000830152602082019050919050565b600061299b602683613497565b91507f4465727020796f752063616e6e6f74207769746864726177206d6f617220746860008301527f616e2068617300000000000000000000000000000000000000000000000000006020830152604082019050919050565b6000612a01602483613497565b91507f4552433732313a207472616e7366657220746f20746865207a65726f2061646460008301527f72657373000000000000000000000000000000000000000000000000000000006020830152604082019050919050565b6000612a67601983613497565b91507f4552433732313a20617070726f766520746f2063616c6c6572000000000000006000830152602082019050919050565b6000612aa7602c83613497565b91507f4552433732313a206f70657261746f7220717565727920666f72206e6f6e657860008301527f697374656e7420746f6b656e00000000000000000000000000000000000000006020830152604082019050919050565b6000612b0d603883613497565b91507f4552433732313a20617070726f76652063616c6c6572206973206e6f74206f7760008301527f6e6572206e6f7220617070726f76656420666f7220616c6c00000000000000006020830152604082019050919050565b6000612b73602a83613497565b91507f4552433732313a2062616c616e636520717565727920666f7220746865207a6560008301527f726f2061646472657373000000000000000000000000000000000000000000006020830152604082019050919050565b6000612bd9602983613497565b91507f4552433732313a206f776e657220717565727920666f72206e6f6e657869737460008301527f656e7420746f6b656e00000000000000000000000000000000000000000000006020830152604082019050919050565b6000612c3f602e83613497565b91507f45524337323155524953746f726167653a2055524920736574206f66206e6f6e60008301527f6578697374656e7420746f6b656e0000000000000000000000000000000000006020830152604082019050919050565b6000612ca5602083613497565b91507f4552433732313a206d696e7420746f20746865207a65726f20616464726573736000830152602082019050919050565b6000612ce5603183613497565b91507f45524337323155524953746f726167653a2055524920717565727920666f722060008301527f6e6f6e6578697374656e7420746f6b656e0000000000000000000000000000006020830152604082019050919050565b6000612d4b602c83613497565b91507f4552433732313a20617070726f76656420717565727920666f72206e6f6e657860008301527f697374656e7420746f6b656e00000000000000000000000000000000000000006020830152604082019050919050565b6000612db1602083613497565b91507f4f776e61626c653a2063616c6c6572206973206e6f7420746865206f776e65726000830152602082019050919050565b6000612df1603283613497565b91507f4465727020676f20626967206f7220676f20686f6d6520414e4420616468657260008301527f6520746f207468652025732066656c6c617300000000000000000000000000006020830152604082019050919050565b6000612e57602f83613497565b91507f4552433732314d657461646174613a2055524920717565727920666f72206e6f60008301527f6e6578697374656e7420746f6b656e00000000000000000000000000000000006020830152604082019050919050565b6000612ebd602183613497565b91507f4552433732313a20617070726f76616c20746f2063757272656e74206f776e6560008301527f72000000000000000000000000000000000000000000000000000000000000006020830152604082019050919050565b6000612f2360008361348c565b9150600082019050919050565b6000612f3d603183613497565b91507f4552433732313a207472616e736665722063616c6c6572206973206e6f74206f60008301527f776e6572206e6f7220617070726f7665640000000000000000000000000000006020830152604082019050919050565b6000612fa3601583613497565b91507f4661696c656420746f2073656e642072656665746800000000000000000000006000830152602082019050919050565b612fdf81613644565b82525050565b6000612ff1828461276b565b915081905092915050565b6000613008828561276b565b9150613014828461276b565b91508190509392505050565b600061302b82612f16565b9150819050919050565b600060208201905061304a60008301846126db565b92915050565b600060808201905061306560008301876126db565b61307260208301866126db565b61307f6040830185612fd6565b818103606083015261309181846126f9565b905095945050505050565b60006020820190506130b160008301846126ea565b92915050565b600060208201905081810360008301526130d18184612732565b905092915050565b600060208201905081810360008301526130f28161279c565b9050919050565b60006020820190508181036000830152613112816127dc565b9050919050565b600060208201905081810360008301526131328161281c565b9050919050565b6000602082019050818103600083015261315281612882565b9050919050565b60006020820190508181036000830152613172816128e8565b9050919050565b600060208201905081810360008301526131928161294e565b9050919050565b600060208201905081810360008301526131b28161298e565b9050919050565b600060208201905081810360008301526131d2816129f4565b9050919050565b600060208201905081810360008301526131f281612a5a565b9050919050565b6000602082019050818103600083015261321281612a9a565b9050919050565b6000602082019050818103600083015261323281612b00565b9050919050565b6000602082019050818103600083015261325281612b66565b9050919050565b6000602082019050818103600083015261327281612bcc565b9050919050565b6000602082019050818103600083015261329281612c32565b9050919050565b600060208201905081810360008301526132b281612c98565b9050919050565b600060208201905081810360008301526132d281612cd8565b9050919050565b600060208201905081810360008301526132f281612d3e565b9050919050565b6000602082019050818103600083015261331281612da4565b9050919050565b6000602082019050818103600083015261333281612de4565b9050919050565b6000602082019050818103600083015261335281612e4a565b9050919050565b6000602082019050818103600083015261337281612eb0565b9050919050565b6000602082019050818103600083015261339281612f30565b9050919050565b600060208201905081810360008301526133b281612f96565b9050919050565b60006020820190506133ce6000830184612fd6565b92915050565b6000604051905081810181811067ffffffffffffffff821117156133fb576133fa6137c9565b5b8060405250919050565b600067ffffffffffffffff8211156134205761341f6137c9565b5b601f19601f8301169050602081019050919050565b600067ffffffffffffffff8211156134505761344f6137c9565b5b601f19601f8301169050602081019050919050565b600081519050919050565b600081519050919050565b600082825260208201905092915050565b600081905092915050565b600082825260208201905092915050565b600081905092915050565b60006134be82613644565b91506134c983613644565b9250827fffffffffffffffffffffffffffffffffffffffffffffffffffffffffffffffff038211156134fe576134fd61373c565b5b828201905092915050565b600061351482613644565b915061351f83613644565b92508261352f5761352e61376b565b5b828204905092915050565b600061354582613644565b915061355083613644565b9250817fffffffffffffffffffffffffffffffffffffffffffffffffffffffffffffffff04831182151516156135895761358861373c565b5b828202905092915050565b600061359f82613644565b91506135aa83613644565b9250828210156135bd576135bc61373c565b5b828203905092915050565b60006135d382613624565b9050919050565b60006135e582613624565b9050919050565b60008115159050919050565b60007fffffffff0000000000000000000000000000000000000000000000000000000082169050919050565b600073ffffffffffffffffffffffffffffffffffffffff82169050919050565b6000819050919050565b82818337600083830152505050565b60005b8381101561367b578082015181840152602081019050613660565b8381111561368a576000848401525b50505050565b600060028204905060018216806136a857607f821691505b602082108114156136bc576136bb61379a565b5b50919050565b60006136cd82613644565b91507fffffffffffffffffffffffffffffffffffffffffffffffffffffffffffffffff821415613700576136ff61373c565b5b600182019050919050565b600061371682613644565b915061372183613644565b9250826137315761373061376b565b5b828206905092915050565b7f4e487b7100000000000000000000000000000000000000000000000000000000600052601160045260246000fd5b7f4e487b7100000000000000000000000000000000000000000000000000000000600052601260045260246000fd5b7f4e487b7100000000000000000000000000000000000000000000000000000000600052602260045260246000fd5b7f4e487b7100000000000000000000000000000000000000000000000000000000600052604160045260246000fd5b6000601f19601f8301169050919050565b613812816135c8565b811461381d57600080fd5b50565b613829816135da565b811461383457600080fd5b50565b613840816135ec565b811461384b57600080fd5b50565b613857816135f8565b811461386257600080fd5b50565b61386e81613644565b811461387957600080fd5b5056fea264697066735822122093bced0619f4a68421fd7612fb7c4ef388b99c99b0c8dad43873f6cf34ea715e64736f6c63430008000033",
  "linkReferences": {},
  "deployedLinkReferences": {}
}