{
  "_format": "hh-sol-artifact-1",
  "contractName": "StaccStaccs",
  "sourceName": "contracts/BadgeToken.sol",
  "abi": [
    {
      "inputs": [],
      "stateMutability": "nonpayable",
      "type": "constructor"
    },
    {
      "anonymous": false,
      "inputs": [
        {
          "indexed": true,
          "internalType": "address",
          "name": "owner",
          "type": "address"
        },
        {
          "indexed": true,
          "internalType": "address",
          "name": "approved",
          "type": "address"
        },
        {
          "indexed": true,
          "internalType": "uint256",
          "name": "tokenId",
          "type": "uint256"
        }
      ],
      "name": "Approval",
      "type": "event"
    },
    {
      "anonymous": false,
      "inputs": [
        {
          "indexed": true,
          "internalType": "address",
          "name": "owner",
          "type": "address"
        },
        {
          "indexed": true,
          "internalType": "address",
          "name": "operator",
          "type": "address"
        },
        {
          "indexed": false,
          "internalType": "bool",
          "name": "approved",
          "type": "bool"
        }
      ],
      "name": "ApprovalForAll",
      "type": "event"
    },
    {
      "anonymous": false,
      "inputs": [
        {
          "indexed": true,
          "internalType": "address",
          "name": "previousOwner",
          "type": "address"
        },
        {
          "indexed": true,
          "internalType": "address",
          "name": "newOwner",
          "type": "address"
        }
      ],
      "name": "OwnershipTransferred",
      "type": "event"
    },
    {
      "anonymous": false,
      "inputs": [
        {
          "indexed": true,
          "internalType": "address",
          "name": "from",
          "type": "address"
        },
        {
          "indexed": true,
          "internalType": "address",
          "name": "to",
          "type": "address"
        },
        {
          "indexed": true,
          "internalType": "uint256",
          "name": "tokenId",
          "type": "uint256"
        }
      ],
      "name": "Transfer",
      "type": "event"
    },
    {
      "inputs": [
        {
          "internalType": "address",
          "name": "to",
          "type": "address"
        },
        {
          "internalType": "uint256",
          "name": "tokenId",
          "type": "uint256"
        }
      ],
      "name": "approve",
      "outputs": [],
      "stateMutability": "nonpayable",
      "type": "function"
    },
    {
      "inputs": [
        {
          "internalType": "address",
          "name": "owner",
          "type": "address"
        }
      ],
      "name": "balanceOf",
      "outputs": [
        {
          "internalType": "uint256",
          "name": "",
          "type": "uint256"
        }
      ],
      "stateMutability": "view",
      "type": "function"
    },
    {
      "inputs": [
        {
          "internalType": "uint256",
          "name": "tokenId",
          "type": "uint256"
        }
      ],
      "name": "burn",
      "outputs": [],
      "stateMutability": "nonpayable",
      "type": "function"
    },
    {
      "inputs": [
        {
          "internalType": "uint256",
          "name": "tokenId",
          "type": "uint256"
        }
      ],
      "name": "getApproved",
      "outputs": [
        {
          "internalType": "address",
          "name": "",
          "type": "address"
        }
      ],
      "stateMutability": "view",
      "type": "function"
    },
    {
      "inputs": [],
      "name": "getBalance",
      "outputs": [
        {
          "internalType": "uint256",
          "name": "",
          "type": "uint256"
        }
      ],
      "stateMutability": "view",
      "type": "function"
    },
    {
      "inputs": [],
      "name": "getPrice",
      "outputs": [
        {
          "internalType": "uint256",
          "name": "",
          "type": "uint256"
        }
      ],
      "stateMutability": "view",
      "type": "function"
    },
    {
      "inputs": [
        {
          "internalType": "address",
          "name": "owner",
          "type": "address"
        },
        {
          "internalType": "address",
          "name": "operator",
          "type": "address"
        }
      ],
      "name": "isApprovedForAll",
      "outputs": [
        {
          "internalType": "bool",
          "name": "",
          "type": "bool"
        }
      ],
      "stateMutability": "view",
      "type": "function"
    },
    {
      "inputs": [
        {
          "internalType": "address",
          "name": "recipient",
          "type": "address"
        },
        {
          "internalType": "address payable",
          "name": "ref",
          "type": "address"
        }
      ],
      "name": "mintNFT",
      "outputs": [
        {
          "internalType": "uint256",
          "name": "",
          "type": "uint256"
        }
      ],
      "stateMutability": "payable",
      "type": "function"
    },
    {
      "inputs": [],
      "name": "name",
      "outputs": [
        {
          "internalType": "string",
          "name": "",
          "type": "string"
        }
      ],
      "stateMutability": "view",
      "type": "function"
    },
    {
      "inputs": [],
      "name": "owner",
      "outputs": [
        {
          "internalType": "address",
          "name": "",
          "type": "address"
        }
      ],
      "stateMutability": "view",
      "type": "function"
    },
    {
      "inputs": [
        {
          "internalType": "uint256",
          "name": "tokenId",
          "type": "uint256"
        }
      ],
      "name": "ownerOf",
      "outputs": [
        {
          "internalType": "address",
          "name": "",
          "type": "address"
        }
      ],
      "stateMutability": "view",
      "type": "function"
    },
    {
      "inputs": [],
      "name": "renounceOwnership",
      "outputs": [],
      "stateMutability": "nonpayable",
      "type": "function"
    },
    {
      "inputs": [
        {
          "internalType": "address",
          "name": "from",
          "type": "address"
        },
        {
          "internalType": "address",
          "name": "to",
          "type": "address"
        },
        {
          "internalType": "uint256",
          "name": "tokenId",
          "type": "uint256"
        }
      ],
      "name": "safeTransferFrom",
      "outputs": [],
      "stateMutability": "nonpayable",
      "type": "function"
    },
    {
      "inputs": [
        {
          "internalType": "address",
          "name": "from",
          "type": "address"
        },
        {
          "internalType": "address",
          "name": "to",
          "type": "address"
        },
        {
          "internalType": "uint256",
          "name": "tokenId",
          "type": "uint256"
        },
        {
          "internalType": "bytes",
          "name": "_data",
          "type": "bytes"
        }
      ],
      "name": "safeTransferFrom",
      "outputs": [],
      "stateMutability": "nonpayable",
      "type": "function"
    },
    {
      "inputs": [
        {
          "internalType": "address",
          "name": "operator",
          "type": "address"
        },
        {
          "internalType": "bool",
          "name": "approved",
          "type": "bool"
        }
      ],
      "name": "setApprovalForAll",
      "outputs": [],
      "stateMutability": "nonpayable",
      "type": "function"
    },
    {
      "inputs": [
        {
          "internalType": "bytes4",
          "name": "interfaceId",
          "type": "bytes4"
        }
      ],
      "name": "supportsInterface",
      "outputs": [
        {
          "internalType": "bool",
          "name": "",
          "type": "bool"
        }
      ],
      "stateMutability": "view",
      "type": "function"
    },
    {
      "inputs": [],
      "name": "symbol",
      "outputs": [
        {
          "internalType": "string",
          "name": "",
          "type": "string"
        }
      ],
      "stateMutability": "view",
      "type": "function"
    },
    {
      "inputs": [],
      "name": "testInProd",
      "outputs": [
        {
          "internalType": "uint256",
          "name": "",
          "type": "uint256"
        }
      ],
      "stateMutability": "nonpayable",
      "type": "function"
    },
    {
      "inputs": [
        {
          "internalType": "uint256",
          "name": "tokenId",
          "type": "uint256"
        }
      ],
      "name": "tokenURI",
      "outputs": [
        {
          "internalType": "string",
          "name": "",
          "type": "string"
        }
      ],
      "stateMutability": "view",
      "type": "function"
    },
    {
      "inputs": [],
      "name": "totalSupply",
      "outputs": [
        {
          "internalType": "uint256",
          "name": "",
          "type": "uint256"
        }
      ],
      "stateMutability": "view",
      "type": "function"
    },
    {
      "inputs": [
        {
          "internalType": "address",
          "name": "from",
          "type": "address"
        },
        {
          "internalType": "address",
          "name": "to",
          "type": "address"
        },
        {
          "internalType": "uint256",
          "name": "tokenId",
          "type": "uint256"
        }
      ],
      "name": "transferFrom",
      "outputs": [],
      "stateMutability": "nonpayable",
      "type": "function"
    },
    {
      "inputs": [
        {
          "internalType": "address",
          "name": "newOwner",
          "type": "address"
        }
      ],
      "name": "transferOwnership",
      "outputs": [],
      "stateMutability": "nonpayable",
      "type": "function"
    },
    {
      "inputs": [],
      "name": "twophase",
      "outputs": [
        {
          "internalType": "uint256",
          "name": "",
          "type": "uint256"
        }
      ],
      "stateMutability": "view",
      "type": "function"
    },
    {
      "inputs": [],
      "name": "x",
      "outputs": [
        {
          "internalType": "uint256",
          "name": "",
          "type": "uint256"
        }
      ],
      "stateMutability": "view",
      "type": "function"
    }
  ],
  "bytecode": "0x608060405260405180610640016040528060405180606001604052806035815260200162004500603591398152602001604051806060016040528060358152602001620049c360359139815260200160405180606001604052806035815260200162004673603591398152602001604051806060016040528060358152602001620047126035913981526020016040518060600160405280603581526020016200442c603591398152602001604051806060016040528060358152602001620048ef603591398152602001604051806060016040528060358152602001620042ee603591398152602001604051806060016040528060358152602001620042b96035913981526020016040518060600160405280603581526020016200446160359139815260200160405180606001604052806035815260200162004959603591398152602001604051806060016040528060358152602001620043c2603591398152602001604051806060016040528060358152602001620047b16035913981526020016040518060600160405280603581526020016200477c60359139815260200160405180606001604052806035815260200162004a976035913981526020016040518060600160405280603581526020016200421a60359139815260200160405180606001604052806035815260200162004acc60359139815260200160405180606001604052806035815260200162004c0a603591398152602001604051806060016040528060358152602001620045d46035913981526020016040518060600160405280603581526020016200424f6035913981526020016040518060600160405280603581526020016200463e603591398152602001604051806060016040528060358152602001620046dd603591398152602001604051806060016040528060358152602001620047e660359139815260200160405180606001604052806035815260200162004747603591398152602001604051806060016040528060358152602001620048506035913981526020016040518060600160405280603581526020016200428460359139815260200160405180606001604052806035815260200162004ba06035913981526020016040518060600160405280603581526020016200481b6035913981526020016040518060600160405280603581526020016200438d603591398152602001604051806060016040528060358152602001620041e560359139815260200160405180606001604052806035815260200162004924603591398152602001604051806060016040528060358152602001620043236035913981526020016040518060600160405280603581526020016200498e60359139815260200160405180606001604052806035815260200162004535603591398152602001604051806060016040528060358152602001620046a860359139815260200160405180606001604052806035815260200162004609603591398152602001604051806060016040528060358152602001620049f860359139815260200160405180606001604052806035815260200162004bd560359139815260200160405180606001604052806035815260200162004a626035913981526020016040518060600160405280603581526020016200488560359139815260200160405180606001604052806035815260200162004a2d603591398152602001604051806060016040528060358152602001620044966035913981526020016040518060600160405280603581526020016200459f6035913981526020016040518060600160405280603581526020016200456a603591398152602001604051806060016040528060358152602001620044cb60359139815260200160405180606001604052806035815260200162004b3660359139815260200160405180606001604052806035815260200162004358603591398152602001604051806060016040528060358152602001620048ba60359139815260200160405180606001604052806035815260200162004b6b603591398152602001604051806060016040528060358152602001620043f760359139815260200160405180606001604052806035815260200162004b016035913981525060089060326200062e92919062000830565b506040518060400160405280600781526020017f697066733a2f2f00000000000000000000000000000000000000000000000000815250600c90805190602001906200067c92919062000897565b506032600d5561c350600f556127106010553480156200069b57600080fd5b506040518060400160405280600c81526020017f53746163632053746163637300000000000000000000000000000000000000008152506040518060400160405280600881526020017f737461636341726200000000000000000000000000000000000000000000000081525081600090805190602001906200072092919062000897565b5080600190805190602001906200073992919062000897565b5050506200075c620007506200076260201b60201c565b6200076a60201b60201c565b62000a1a565b600033905090565b6000600760009054906101000a900473ffffffffffffffffffffffffffffffffffffffff16905081600760006101000a81548173ffffffffffffffffffffffffffffffffffffffff021916908373ffffffffffffffffffffffffffffffffffffffff1602179055508173ffffffffffffffffffffffffffffffffffffffff168173ffffffffffffffffffffffffffffffffffffffff167f8be0079c531659141344cd1fd0a4f28419497f9722a3daafe3b4186f6b6457e060405160405180910390a35050565b82805482825590600052602060002090810192821562000884579160200282015b82811115620008835782518290805190602001906200087292919062000897565b509160200191906001019062000851565b5b50905062000893919062000928565b5090565b828054620008a590620009b5565b90600052602060002090601f016020900481019282620008c9576000855562000915565b82601f10620008e457805160ff191683800117855562000915565b8280016001018555821562000915579182015b8281111562000914578251825591602001919060010190620008f7565b5b50905062000924919062000950565b5090565b5b808211156200094c57600081816200094291906200096f565b5060010162000929565b5090565b5b808211156200096b57600081600090555060010162000951565b5090565b5080546200097d90620009b5565b6000825580601f10620009915750620009b2565b601f016020900490600052602060002090810190620009b1919062000950565b5b50565b60006002820490506001821680620009ce57607f821691505b60208210811415620009e557620009e4620009eb565b5b50919050565b7f4e487b7100000000000000000000000000000000000000000000000000000000600052602260045260246000fd5b6137bb8062000a2a6000396000f3fe60806040526004361061014b5760003560e01c80636352211e116100b6578063a22cb4651161006f578063a22cb46514610487578063b88d4fde146104b0578063c87b56dd146104d9578063e75e042214610516578063e985e9c514610541578063f2fde38b1461057e5761014b565b80636352211e1461037557806370a08231146103b2578063715018a6146103ef5780638da5cb5b1461040657806395d89b411461043157806398d5fdca1461045c5761014b565b806318160ddd1161010857806318160ddd1461027457806323b872dd1461029f5780632f08a91d146102c857806342842e0e146102f357806342966c681461031c578063465dcabb146103455761014b565b806301ffc9a71461015057806306fdde031461018d578063081812fc146101b8578063095ea7b3146101f55780630c55699c1461021e57806312065fe014610249575b600080fd5b34801561015c57600080fd5b50610177600480360381019061017291906127dc565b6105a7565b6040516101849190613075565b60405180910390f35b34801561019957600080fd5b506101a2610689565b6040516101af9190613090565b60405180910390f35b3480156101c457600080fd5b506101df60048036038101906101da919061282e565b61071b565b6040516101ec919061300e565b60405180910390f35b34801561020157600080fd5b5061021c600480360381019061021791906127a0565b6107a0565b005b34801561022a57600080fd5b506102336108b8565b60405161024091906132f2565b60405180910390f35b34801561025557600080fd5b5061025e6108c9565b60405161026b91906132f2565b60405180910390f35b34801561028057600080fd5b506102896108d1565b60405161029691906132f2565b60405180910390f35b3480156102ab57600080fd5b506102c660048036038101906102c1919061269a565b6108f6565b005b3480156102d457600080fd5b506102dd610956565b6040516102ea91906132f2565b60405180910390f35b3480156102ff57600080fd5b5061031a6004803603810190610315919061269a565b6109f1565b005b34801561032857600080fd5b50610343600480360381019061033e919061282e565b610a11565b005b61035f600480360381019061035a919061265e565b610aec565b60405161036c91906132f2565b60405180910390f35b34801561038157600080fd5b5061039c6004803603810190610397919061282e565b610e73565b6040516103a9919061300e565b60405180910390f35b3480156103be57600080fd5b506103d960048036038101906103d491906125f9565b610f25565b6040516103e691906132f2565b60405180910390f35b3480156103fb57600080fd5b50610404610fdd565b005b34801561041257600080fd5b5061041b611065565b604051610428919061300e565b60405180910390f35b34801561043d57600080fd5b5061044661108f565b6040516104539190613090565b60405180910390f35b34801561046857600080fd5b50610471611121565b60405161047e91906132f2565b60405180910390f35b34801561049357600080fd5b506104ae60048036038101906104a99190612764565b61112b565b005b3480156104bc57600080fd5b506104d760048036038101906104d291906126e9565b611141565b005b3480156104e557600080fd5b5061050060048036038101906104fb919061282e565b6111a3565b60405161050d9190613090565b60405180910390f35b34801561052257600080fd5b5061052b6112f5565b60405161053891906132f2565b60405180910390f35b34801561054d57600080fd5b5061056860048036038101906105639190612622565b6112ff565b6040516105759190613075565b60405180910390f35b34801561058a57600080fd5b506105a560048036038101906105a091906125f9565b611393565b005b60007f80ac58cd000000000000000000000000000000000000000000000000000000007bffffffffffffffffffffffffffffffffffffffffffffffffffffffff1916827bffffffffffffffffffffffffffffffffffffffffffffffffffffffff1916148061067257507f5b5e139f000000000000000000000000000000000000000000000000000000007bffffffffffffffffffffffffffffffffffffffffffffffffffffffff1916827bffffffffffffffffffffffffffffffffffffffffffffffffffffffff1916145b8061068257506106818261148b565b5b9050919050565b60606000805461069890613599565b80601f01602080910402602001604051908101604052809291908181526020018280546106c490613599565b80156107115780601f106106e657610100808354040283529160200191610711565b820191906000526020600020905b8154815290600101906020018083116106f457829003601f168201915b5050505050905090565b6000610726826114f5565b610765576040517f08c379a000000000000000000000000000000000000000000000000000000000815260040161075c90613252565b60405180910390fd5b6004600083815260200190815260200160002060009054906101000a900473ffffffffffffffffffffffffffffffffffffffff169050919050565b60006107ab82610e73565b90508073ffffffffffffffffffffffffffffffffffffffff168373ffffffffffffffffffffffffffffffffffffffff16141561081c576040517f08c379a0000000000000000000000000000000000000000000000000000000008152600401610813906132b2565b60405180910390fd5b8073ffffffffffffffffffffffffffffffffffffffff1661083b611561565b73ffffffffffffffffffffffffffffffffffffffff16148061086a575061086981610864611561565b6112ff565b5b6108a9576040517f08c379a00000000000000000000000000000000000000000000000000000000081526004016108a090613192565b60405180910390fd5b6108b38383611569565b505050565b60006108c46009611622565b905090565b600047905090565b60006108dd600b611622565b6108e76009611622565b6108f1919061349d565b905090565b610907610901611561565b82611630565b610946576040517f08c379a000000000000000000000000000000000000000000000000000000000815260040161093d906132d2565b60405180910390fd5b61095183838361170e565b505050565b6000610960611561565b73ffffffffffffffffffffffffffffffffffffffff1661097e611065565b73ffffffffffffffffffffffffffffffffffffffff16146109d4576040517f08c379a00000000000000000000000000000000000000000000000000000000081526004016109cb90613272565b60405180910390fd5b62015180426109e391906133bc565b600e81905550600e54905090565b610a0c83838360405180602001604052806000815250611141565b505050565b610a1b3382611630565b610a2457600080fd5b610a2d81611975565b610a37600b6119c8565b3373ffffffffffffffffffffffffffffffffffffffff16600a610a586108c9565b610a629190613412565b604051610a6e90612ff9565b60006040518083038185875af1925050503d8060008114610aab576040519150601f19603f3d011682016040523d82523d6000602084013e610ab0565b606091505b5050506002610abf6009611622565b610ac991906133bc565b601054610ad69190613443565b600f54610ae3919061349d565b600f8190555050565b60006001610afa6009611622565b610b0491906133bc565b601054610b119190613443565b600f54610b1e919061349d565b3410610e6857610b2e600a6119c8565b600d54610b3b600a611622565b1115610b4c57610b4b600a6119de565b5b610b5660096119c8565b6000610b626009611622565b9050610b6e84826119eb565b610c4d816008610b7e600a611622565b81548110610bb5577f4e487b7100000000000000000000000000000000000000000000000000000000600052603260045260246000fd5b906000526020600020018054610bca90613599565b80601f0160208091040260200160405190810160405280929190818152602001828054610bf690613599565b8015610c435780601f10610c1857610100808354040283529160200191610c43565b820191906000526020600020905b815481529060010190602001808311610c2657829003601f168201915b5050505050611bc5565b600e544211610db457610c60600a6119c8565b600d54610c6d600a611622565b1115610c7e57610c7d600a6119de565b5b610c8860096119c8565b6003610c946009611622565b610c9e91906133bc565b601054610cab9190613443565b600f54610cb891906133bc565b600f81905550610cc86009611622565b9050610cd484826119eb565b610db3816008610ce4600a611622565b81548110610d1b577f4e487b7100000000000000000000000000000000000000000000000000000000600052603260045260246000fd5b906000526020600020018054610d3090613599565b80601f0160208091040260200160405190810160405280929190818152602001828054610d5c90613599565b8015610da95780601f10610d7e57610100808354040283529160200191610da9565b820191906000526020600020905b815481529060010190602001808311610d8c57829003601f168201915b5050505050611bc5565b5b6003610dc06009611622565b610dca91906133bc565b601054610dd79190613443565b600f54610de491906133bc565b600f819055508273ffffffffffffffffffffffffffffffffffffffff16600a34610e0e9190613412565b604051610e1a90612ff9565b60006040518083038185875af1925050503d8060008114610e57576040519150601f19603f3d011682016040523d82523d6000602084013e610e5c565b606091505b50505080915050610e6d565b600080fd5b92915050565b6000806002600084815260200190815260200160002060009054906101000a900473ffffffffffffffffffffffffffffffffffffffff169050600073ffffffffffffffffffffffffffffffffffffffff168173ffffffffffffffffffffffffffffffffffffffff161415610f1c576040517f08c379a0000000000000000000000000000000000000000000000000000000008152600401610f13906131d2565b60405180910390fd5b80915050919050565b60008073ffffffffffffffffffffffffffffffffffffffff168273ffffffffffffffffffffffffffffffffffffffff161415610f96576040517f08c379a0000000000000000000000000000000000000000000000000000000008152600401610f8d906131b2565b60405180910390fd5b600360008373ffffffffffffffffffffffffffffffffffffffff1673ffffffffffffffffffffffffffffffffffffffff168152602001908152602001600020549050919050565b610fe5611561565b73ffffffffffffffffffffffffffffffffffffffff16611003611065565b73ffffffffffffffffffffffffffffffffffffffff1614611059576040517f08c379a000000000000000000000000000000000000000000000000000000000815260040161105090613272565b60405180910390fd5b6110636000611c39565b565b6000600760009054906101000a900473ffffffffffffffffffffffffffffffffffffffff16905090565b60606001805461109e90613599565b80601f01602080910402602001604051908101604052809291908181526020018280546110ca90613599565b80156111175780601f106110ec57610100808354040283529160200191611117565b820191906000526020600020905b8154815290600101906020018083116110fa57829003601f168201915b5050505050905090565b6000600f54905090565b61113d611136611561565b8383611cff565b5050565b61115261114c611561565b83611630565b611191576040517f08c379a0000000000000000000000000000000000000000000000000000000008152600401611188906132d2565b60405180910390fd5b61119d84848484611e6c565b50505050565b60606111ae826114f5565b6111ed576040517f08c379a00000000000000000000000000000000000000000000000000000000081526004016111e490613232565b60405180910390fd5b600060066000848152602001908152602001600020805461120d90613599565b80601f016020809104026020016040519081016040528092919081815260200182805461123990613599565b80156112865780601f1061125b57610100808354040283529160200191611286565b820191906000526020600020905b81548152906001019060200180831161126957829003601f168201915b505050505090506000611297611ec8565b90506000815114156112ad5781925050506112f0565b6000825111156112e25780826040516020016112ca929190612fd5565b604051602081830303815290604052925050506112f0565b6112eb84611edf565b925050505b919050565b6000600e54905090565b6000600560008473ffffffffffffffffffffffffffffffffffffffff1673ffffffffffffffffffffffffffffffffffffffff16815260200190815260200160002060008373ffffffffffffffffffffffffffffffffffffffff1673ffffffffffffffffffffffffffffffffffffffff16815260200190815260200160002060009054906101000a900460ff16905092915050565b61139b611561565b73ffffffffffffffffffffffffffffffffffffffff166113b9611065565b73ffffffffffffffffffffffffffffffffffffffff161461140f576040517f08c379a000000000000000000000000000000000000000000000000000000000815260040161140690613272565b60405180910390fd5b600073ffffffffffffffffffffffffffffffffffffffff168173ffffffffffffffffffffffffffffffffffffffff16141561147f576040517f08c379a0000000000000000000000000000000000000000000000000000000008152600401611476906130d2565b60405180910390fd5b61148881611c39565b50565b60007f01ffc9a7000000000000000000000000000000000000000000000000000000007bffffffffffffffffffffffffffffffffffffffffffffffffffffffff1916827bffffffffffffffffffffffffffffffffffffffffffffffffffffffff1916149050919050565b60008073ffffffffffffffffffffffffffffffffffffffff166002600084815260200190815260200160002060009054906101000a900473ffffffffffffffffffffffffffffffffffffffff1673ffffffffffffffffffffffffffffffffffffffff1614159050919050565b600033905090565b816004600083815260200190815260200160002060006101000a81548173ffffffffffffffffffffffffffffffffffffffff021916908373ffffffffffffffffffffffffffffffffffffffff160217905550808273ffffffffffffffffffffffffffffffffffffffff166115dc83610e73565b73ffffffffffffffffffffffffffffffffffffffff167f8c5be1e5ebec7d5bd14f71427d1e84f3dd0314c0f7b2291e5b200ac8c7c3b92560405160405180910390a45050565b600081600001549050919050565b600061163b826114f5565b61167a576040517f08c379a000000000000000000000000000000000000000000000000000000000815260040161167190613172565b60405180910390fd5b600061168583610e73565b90508073ffffffffffffffffffffffffffffffffffffffff168473ffffffffffffffffffffffffffffffffffffffff1614806116c757506116c681856112ff565b5b8061170557508373ffffffffffffffffffffffffffffffffffffffff166116ed8461071b565b73ffffffffffffffffffffffffffffffffffffffff16145b91505092915050565b8273ffffffffffffffffffffffffffffffffffffffff1661172e82610e73565b73ffffffffffffffffffffffffffffffffffffffff1614611784576040517f08c379a000000000000000000000000000000000000000000000000000000000815260040161177b906130f2565b60405180910390fd5b600073ffffffffffffffffffffffffffffffffffffffff168273ffffffffffffffffffffffffffffffffffffffff1614156117f4576040517f08c379a00000000000000000000000000000000000000000000000000000000081526004016117eb90613132565b60405180910390fd5b6117ff838383611f86565b61180a600082611569565b6001600360008573ffffffffffffffffffffffffffffffffffffffff1673ffffffffffffffffffffffffffffffffffffffff168152602001908152602001600020600082825461185a919061349d565b925050819055506001600360008473ffffffffffffffffffffffffffffffffffffffff1673ffffffffffffffffffffffffffffffffffffffff16815260200190815260200160002060008282546118b191906133bc565b92505081905550816002600083815260200190815260200160002060006101000a81548173ffffffffffffffffffffffffffffffffffffffff021916908373ffffffffffffffffffffffffffffffffffffffff160217905550808273ffffffffffffffffffffffffffffffffffffffff168473ffffffffffffffffffffffffffffffffffffffff167fddf252ad1be2c89b69c2b068fc378daa952ba7f163c4a11628f55a4df523b3ef60405160405180910390a4611970838383611f8b565b505050565b61197e81611f90565b600060066000838152602001908152602001600020805461199e90613599565b9050146119c5576006600082815260200190815260200160002060006119c49190612430565b5b50565b6001816000016000828254019250508190555050565b6000816000018190555050565b600073ffffffffffffffffffffffffffffffffffffffff168273ffffffffffffffffffffffffffffffffffffffff161415611a5b576040517f08c379a0000000000000000000000000000000000000000000000000000000008152600401611a5290613212565b60405180910390fd5b611a64816114f5565b15611aa4576040517f08c379a0000000000000000000000000000000000000000000000000000000008152600401611a9b90613112565b60405180910390fd5b611ab060008383611f86565b6001600360008473ffffffffffffffffffffffffffffffffffffffff1673ffffffffffffffffffffffffffffffffffffffff1681526020019081526020016000206000828254611b0091906133bc565b92505081905550816002600083815260200190815260200160002060006101000a81548173ffffffffffffffffffffffffffffffffffffffff021916908373ffffffffffffffffffffffffffffffffffffffff160217905550808273ffffffffffffffffffffffffffffffffffffffff16600073ffffffffffffffffffffffffffffffffffffffff167fddf252ad1be2c89b69c2b068fc378daa952ba7f163c4a11628f55a4df523b3ef60405160405180910390a4611bc160008383611f8b565b5050565b611bce826114f5565b611c0d576040517f08c379a0000000000000000000000000000000000000000000000000000000008152600401611c04906131f2565b60405180910390fd5b80600660008481526020019081526020016000209080519060200190611c34929190612470565b505050565b6000600760009054906101000a900473ffffffffffffffffffffffffffffffffffffffff16905081600760006101000a81548173ffffffffffffffffffffffffffffffffffffffff021916908373ffffffffffffffffffffffffffffffffffffffff1602179055508173ffffffffffffffffffffffffffffffffffffffff168173ffffffffffffffffffffffffffffffffffffffff167f8be0079c531659141344cd1fd0a4f28419497f9722a3daafe3b4186f6b6457e060405160405180910390a35050565b8173ffffffffffffffffffffffffffffffffffffffff168373ffffffffffffffffffffffffffffffffffffffff161415611d6e576040517f08c379a0000000000000000000000000000000000000000000000000000000008152600401611d6590613152565b60405180910390fd5b80600560008573ffffffffffffffffffffffffffffffffffffffff1673ffffffffffffffffffffffffffffffffffffffff16815260200190815260200160002060008473ffffffffffffffffffffffffffffffffffffffff1673ffffffffffffffffffffffffffffffffffffffff16815260200190815260200160002060006101000a81548160ff0219169083151502179055508173ffffffffffffffffffffffffffffffffffffffff168373ffffffffffffffffffffffffffffffffffffffff167f17307eab39ab6107e8899845ad3d59bd9653f200f220920489ca2b5937696c3183604051611e5f9190613075565b60405180910390a3505050565b611e7784848461170e565b611e83848484846120ad565b611ec2576040517f08c379a0000000000000000000000000000000000000000000000000000000008152600401611eb9906130b2565b60405180910390fd5b50505050565b606060405180602001604052806000815250905090565b6060611eea826114f5565b611f29576040517f08c379a0000000000000000000000000000000000000000000000000000000008152600401611f2090613292565b60405180910390fd5b6000611f33611ec8565b90506000815111611f535760405180602001604052806000815250611f7e565b80611f5d84612244565b604051602001611f6e929190612fd5565b6040516020818303038152906040525b915050919050565b505050565b505050565b6000611f9b82610e73565b9050611fa981600084611f86565b611fb4600083611569565b6001600360008373ffffffffffffffffffffffffffffffffffffffff1673ffffffffffffffffffffffffffffffffffffffff1681526020019081526020016000206000828254612004919061349d565b925050819055506002600083815260200190815260200160002060006101000a81549073ffffffffffffffffffffffffffffffffffffffff021916905581600073ffffffffffffffffffffffffffffffffffffffff168273ffffffffffffffffffffffffffffffffffffffff167fddf252ad1be2c89b69c2b068fc378daa952ba7f163c4a11628f55a4df523b3ef60405160405180910390a46120a981600084611f8b565b5050565b60006120ce8473ffffffffffffffffffffffffffffffffffffffff166123f1565b15612237578373ffffffffffffffffffffffffffffffffffffffff1663150b7a026120f7611561565b8786866040518563ffffffff1660e01b81526004016121199493929190613029565b602060405180830381600087803b15801561213357600080fd5b505af192505050801561216457506040513d601f19601f820116820180604052508101906121619190612805565b60015b6121e7573d8060008114612194576040519150601f19603f3d011682016040523d82523d6000602084013e612199565b606091505b506000815114156121df576040517f08c379a00000000000000000000000000000000000000000000000000000000081526004016121d6906130b2565b60405180910390fd5b805181602001fd5b63150b7a0260e01b7bffffffffffffffffffffffffffffffffffffffffffffffffffffffff1916817bffffffffffffffffffffffffffffffffffffffffffffffffffffffff19161491505061223c565b600190505b949350505050565b6060600082141561228c576040518060400160405280600181526020017f300000000000000000000000000000000000000000000000000000000000000081525090506123ec565b600082905060005b600082146122be5780806122a7906135cb565b915050600a826122b79190613412565b9150612294565b60008167ffffffffffffffff811115612300577f4e487b7100000000000000000000000000000000000000000000000000000000600052604160045260246000fd5b6040519080825280601f01601f1916602001820160405280156123325781602001600182028036833780820191505090505b5090505b600085146123e55760018261234b919061349d565b9150600a8561235a9190613614565b603061236691906133bc565b60f81b8183815181106123a2577f4e487b7100000000000000000000000000000000000000000000000000000000600052603260045260246000fd5b60200101907effffffffffffffffffffffffffffffffffffffffffffffffffffffffffffff1916908160001a905350600a856123de9190613412565b9450612336565b8093505050505b919050565b6000808273ffffffffffffffffffffffffffffffffffffffff16803b806020016040519081016040528181526000908060200190933c51119050919050565b50805461243c90613599565b6000825580601f1061244e575061246d565b601f01602090049060005260206000209081019061246c91906124f6565b5b50565b82805461247c90613599565b90600052602060002090601f01602090048101928261249e57600085556124e5565b82601f106124b757805160ff19168380011785556124e5565b828001600101855582156124e5579182015b828111156124e45782518255916020019190600101906124c9565b5b5090506124f291906124f6565b5090565b5b8082111561250f5760008160009055506001016124f7565b5090565b60006125266125218461333e565b61330d565b90508281526020810184848401111561253e57600080fd5b612549848285613557565b509392505050565b60008135905061256081613712565b92915050565b60008135905061257581613729565b92915050565b60008135905061258a81613740565b92915050565b60008135905061259f81613757565b92915050565b6000815190506125b481613757565b92915050565b600082601f8301126125cb57600080fd5b81356125db848260208601612513565b91505092915050565b6000813590506125f38161376e565b92915050565b60006020828403121561260b57600080fd5b600061261984828501612551565b91505092915050565b6000806040838503121561263557600080fd5b600061264385828601612551565b925050602061265485828601612551565b9150509250929050565b6000806040838503121561267157600080fd5b600061267f85828601612551565b925050602061269085828601612566565b9150509250929050565b6000806000606084860312156126af57600080fd5b60006126bd86828701612551565b93505060206126ce86828701612551565b92505060406126df868287016125e4565b9150509250925092565b600080600080608085870312156126ff57600080fd5b600061270d87828801612551565b945050602061271e87828801612551565b935050604061272f878288016125e4565b925050606085013567ffffffffffffffff81111561274c57600080fd5b612758878288016125ba565b91505092959194509250565b6000806040838503121561277757600080fd5b600061278585828601612551565b92505060206127968582860161257b565b9150509250929050565b600080604083850312156127b357600080fd5b60006127c185828601612551565b92505060206127d2858286016125e4565b9150509250929050565b6000602082840312156127ee57600080fd5b60006127fc84828501612590565b91505092915050565b60006020828403121561281757600080fd5b6000612825848285016125a5565b91505092915050565b60006020828403121561284057600080fd5b600061284e848285016125e4565b91505092915050565b612860816134d1565b82525050565b61286f816134f5565b82525050565b60006128808261336e565b61288a8185613384565b935061289a818560208601613566565b6128a381613701565b840191505092915050565b60006128b982613379565b6128c381856133a0565b93506128d3818560208601613566565b6128dc81613701565b840191505092915050565b60006128f282613379565b6128fc81856133b1565b935061290c818560208601613566565b80840191505092915050565b60006129256032836133a0565b91507f4552433732313a207472616e7366657220746f206e6f6e20455243373231526560008301527f63656976657220696d706c656d656e74657200000000000000000000000000006020830152604082019050919050565b600061298b6026836133a0565b91507f4f776e61626c653a206e6577206f776e657220697320746865207a65726f206160008301527f64647265737300000000000000000000000000000000000000000000000000006020830152604082019050919050565b60006129f16025836133a0565b91507f4552433732313a207472616e736665722066726f6d20696e636f72726563742060008301527f6f776e65720000000000000000000000000000000000000000000000000000006020830152604082019050919050565b6000612a57601c836133a0565b91507f4552433732313a20746f6b656e20616c7265616479206d696e746564000000006000830152602082019050919050565b6000612a976024836133a0565b91507f4552433732313a207472616e7366657220746f20746865207a65726f2061646460008301527f72657373000000000000000000000000000000000000000000000000000000006020830152604082019050919050565b6000612afd6019836133a0565b91507f4552433732313a20617070726f766520746f2063616c6c6572000000000000006000830152602082019050919050565b6000612b3d602c836133a0565b91507f4552433732313a206f70657261746f7220717565727920666f72206e6f6e657860008301527f697374656e7420746f6b656e00000000000000000000000000000000000000006020830152604082019050919050565b6000612ba36038836133a0565b91507f4552433732313a20617070726f76652063616c6c6572206973206e6f74206f7760008301527f6e6572206e6f7220617070726f76656420666f7220616c6c00000000000000006020830152604082019050919050565b6000612c09602a836133a0565b91507f4552433732313a2062616c616e636520717565727920666f7220746865207a6560008301527f726f2061646472657373000000000000000000000000000000000000000000006020830152604082019050919050565b6000612c6f6029836133a0565b91507f4552433732313a206f776e657220717565727920666f72206e6f6e657869737460008301527f656e7420746f6b656e00000000000000000000000000000000000000000000006020830152604082019050919050565b6000612cd5602e836133a0565b91507f45524337323155524953746f726167653a2055524920736574206f66206e6f6e60008301527f6578697374656e7420746f6b656e0000000000000000000000000000000000006020830152604082019050919050565b6000612d3b6020836133a0565b91507f4552433732313a206d696e7420746f20746865207a65726f20616464726573736000830152602082019050919050565b6000612d7b6031836133a0565b91507f45524337323155524953746f726167653a2055524920717565727920666f722060008301527f6e6f6e6578697374656e7420746f6b656e0000000000000000000000000000006020830152604082019050919050565b6000612de1602c836133a0565b91507f4552433732313a20617070726f76656420717565727920666f72206e6f6e657860008301527f697374656e7420746f6b656e00000000000000000000000000000000000000006020830152604082019050919050565b6000612e476020836133a0565b91507f4f776e61626c653a2063616c6c6572206973206e6f7420746865206f776e65726000830152602082019050919050565b6000612e87602f836133a0565b91507f4552433732314d657461646174613a2055524920717565727920666f72206e6f60008301527f6e6578697374656e7420746f6b656e00000000000000000000000000000000006020830152604082019050919050565b6000612eed6021836133a0565b91507f4552433732313a20617070726f76616c20746f2063757272656e74206f776e6560008301527f72000000000000000000000000000000000000000000000000000000000000006020830152604082019050919050565b6000612f53600083613395565b9150600082019050919050565b6000612f6d6031836133a0565b91507f4552433732313a207472616e736665722063616c6c6572206973206e6f74206f60008301527f776e6572206e6f7220617070726f7665640000000000000000000000000000006020830152604082019050919050565b612fcf8161354d565b82525050565b6000612fe182856128e7565b9150612fed82846128e7565b91508190509392505050565b600061300482612f46565b9150819050919050565b60006020820190506130236000830184612857565b92915050565b600060808201905061303e6000830187612857565b61304b6020830186612857565b6130586040830185612fc6565b818103606083015261306a8184612875565b905095945050505050565b600060208201905061308a6000830184612866565b92915050565b600060208201905081810360008301526130aa81846128ae565b905092915050565b600060208201905081810360008301526130cb81612918565b9050919050565b600060208201905081810360008301526130eb8161297e565b9050919050565b6000602082019050818103600083015261310b816129e4565b9050919050565b6000602082019050818103600083015261312b81612a4a565b9050919050565b6000602082019050818103600083015261314b81612a8a565b9050919050565b6000602082019050818103600083015261316b81612af0565b9050919050565b6000602082019050818103600083015261318b81612b30565b9050919050565b600060208201905081810360008301526131ab81612b96565b9050919050565b600060208201905081810360008301526131cb81612bfc565b9050919050565b600060208201905081810360008301526131eb81612c62565b9050919050565b6000602082019050818103600083015261320b81612cc8565b9050919050565b6000602082019050818103600083015261322b81612d2e565b9050919050565b6000602082019050818103600083015261324b81612d6e565b9050919050565b6000602082019050818103600083015261326b81612dd4565b9050919050565b6000602082019050818103600083015261328b81612e3a565b9050919050565b600060208201905081810360008301526132ab81612e7a565b9050919050565b600060208201905081810360008301526132cb81612ee0565b9050919050565b600060208201905081810360008301526132eb81612f60565b9050919050565b60006020820190506133076000830184612fc6565b92915050565b6000604051905081810181811067ffffffffffffffff82111715613334576133336136d2565b5b8060405250919050565b600067ffffffffffffffff821115613359576133586136d2565b5b601f19601f8301169050602081019050919050565b600081519050919050565b600081519050919050565b600082825260208201905092915050565b600081905092915050565b600082825260208201905092915050565b600081905092915050565b60006133c78261354d565b91506133d28361354d565b9250827fffffffffffffffffffffffffffffffffffffffffffffffffffffffffffffffff0382111561340757613406613645565b5b828201905092915050565b600061341d8261354d565b91506134288361354d565b92508261343857613437613674565b5b828204905092915050565b600061344e8261354d565b91506134598361354d565b9250817fffffffffffffffffffffffffffffffffffffffffffffffffffffffffffffffff048311821515161561349257613491613645565b5b828202905092915050565b60006134a88261354d565b91506134b38361354d565b9250828210156134c6576134c5613645565b5b828203905092915050565b60006134dc8261352d565b9050919050565b60006134ee8261352d565b9050919050565b60008115159050919050565b60007fffffffff0000000000000000000000000000000000000000000000000000000082169050919050565b600073ffffffffffffffffffffffffffffffffffffffff82169050919050565b6000819050919050565b82818337600083830152505050565b60005b83811015613584578082015181840152602081019050613569565b83811115613593576000848401525b50505050565b600060028204905060018216806135b157607f821691505b602082108114156135c5576135c46136a3565b5b50919050565b60006135d68261354d565b91507fffffffffffffffffffffffffffffffffffffffffffffffffffffffffffffffff82141561360957613608613645565b5b600182019050919050565b600061361f8261354d565b915061362a8361354d565b92508261363a57613639613674565b5b828206905092915050565b7f4e487b7100000000000000000000000000000000000000000000000000000000600052601160045260246000fd5b7f4e487b7100000000000000000000000000000000000000000000000000000000600052601260045260246000fd5b7f4e487b7100000000000000000000000000000000000000000000000000000000600052602260045260246000fd5b7f4e487b7100000000000000000000000000000000000000000000000000000000600052604160045260246000fd5b6000601f19601f8301169050919050565b61371b816134d1565b811461372657600080fd5b50565b613732816134e3565b811461373d57600080fd5b50565b613749816134f5565b811461375457600080fd5b50565b61376081613501565b811461376b57600080fd5b50565b6137778161354d565b811461378257600080fd5b5056fea2646970667358221220468db9927a3e530b9bd67f00f0b4288d696b157b26abfe5edcb445a26af099a464736f6c63430008000033697066733a2f2f516d655870484c365873346d534650727671634a356e31774b466d4a6e424e383963554d61416d7a6d6b5a6b716b697066733a2f2f516d594b5364454b4775526e714e62336a7171335070673244366e396f434e4476745369514555504a7a51596a38697066733a2f2f516d58734b6959543443564c75706a474c737462787a394269396942727a4d3374794276746173736e57776e5743697066733a2f2f516d626178796d6472716d546766507748394d6f4a484744393337514c536d6d524a5a5872555053657250453659697066733a2f2f516d5173324a6967694e5076434d4d626636663835656d386e335a52696b65696e7a4a4e62437965796a53473762697066733a2f2f516d65784e367a456a6a7071574a355361355a32747a344b50767850534535773652516267323344394b70716d61697066733a2f2f516d5476625766475436654b4542526f535a5371506b5533524844435041637075544769596f6a7459386345714a697066733a2f2f516d586964424d7343786f4b726435636d34513661346a4c5248747965424c4c4a734e32796d636837656f4a4248697066733a2f2f516d583753705642793968794a795671777458684b374448627331524770635675586b374d503973343972325532697066733a2f2f516d5658595173716278434e514342416145586945613866546b6e4576596b39774635746b654254394a4d724250697066733a2f2f516d6333537261764a6a77716e764c67634e38516e4757697757356131597871774a797532506242416877597365697066733a2f2f516d4e6e575844536e416d374742586878644d4c53755966724c7257444c5769656e593371575343744b4b386b56697066733a2f2f516d4e7758644b654b744d584c73454d666e56484d74614e566e315747634e4b59785957437332657938316f6663697066733a2f2f516d585866463934524a594d55753462427847546a4e62643676647969476651696450385263376a48356d4d6443697066733a2f2f516d566331694d3152436276506d51677434474e4844383777594a63386b3541735a636474653170476532796558697066733a2f2f516d63644544576677724d364c3651724e4c52337869566e67555144485142796a464d5477745a485963724b4862697066733a2f2f516d536335487458684e6b393245387050717375355645795176414839764a4e5463524d4664447038366d594e48697066733a2f2f516d56794748576b625a516d777272546f37316d56534b54793450386b5a4b706f526f6476617734316973697271697066733a2f2f516d6339557071464a796d78737135743658414455335031463436574567426f42656242586f3146683459477046697066733a2f2f516d566b4b454241727648324643466f313852565653397333594652466834554c5159373965364b58596b39757a697066733a2f2f516d63776e42696d46664c557633655972636233654e4e5946344b39534e4b667a5454397a6a68594678524b7862697066733a2f2f516d6551316f54374831344d4a663532444a6f38524c4138787258544d426a7335586267354c59484341365a6662697066733a2f2f516d5041616e387372686d3335767266523139745532435053595031356d5a4455763778535a6969777479344667697066733a2f2f516d624e484347676944554258574131437770506a61756b484644536348364e4b4e5938377a4662665048753463697066733a2f2f516d507a6a68524857676e70697a79365943726176346568584d724238346671644d4b6358667133657a70623767697066733a2f2f516d5739794e65436b4b644651794b725a59436675695478326559547a5655386279763954364d6e505a64396552697066733a2f2f516d5641347138646e426f343453565047337237364e47386d316e336a39536d736652633362674133624252596a697066733a2f2f516d6270346a584a4e4c4758444373646a373878415a596e5974694676353844545066444e34545945654e4c3171697066733a2f2f516d57696143356a73444e514362593952434a544a324375486d3346544c515262435136695953624a57376a5a6a697066733a2f2f516d50425357706973564358476d7a504666614a4c4751336a364d565a444471536e556d54683261703669786559697066733a2f2f516d66317935444e71574169465a44564e7777564b43707679485779324362334558337433355879707777663231697066733a2f2f516d5a344637526d483768474a7765386e4d526e634d35616a4c78546a46396d374c434658416e31456331785736697066733a2f2f516d586e44456f7851746953464e706a4c415972714b58546138476e534468674663427675626131795a64644577697066733a2f2f516d6343327174694b6e396f45655543774b6b64523359736346647369707376424d6f506a51596a4d564a34626e697066733a2f2f516d59734e6e7a756a7239774d786666734a77575852716974426d7a71736d394d6e4e624a785833613844717641697066733a2f2f516d54684857747678586471424a746253337031686e7770684d75425757506e747a425866646f55797576455a4a697066733a2f2f516d596d533653747546513757773452356d594865776d46386352744d414665704650793565587877414e47324a697066733a2f2f516d5454455456514b4e64374471683653464c59436970353369553651627a52316f586558436438314a32584554697066733a2f2f516d4e5567576a696676565364646d6e61484e79747636424d345831516e45776f38564c7770457276624b715247697066733a2f2f516d663469613770557048774e7a6751744a754431397864504236414c636a5465765a6a576e48567a5550536550697066733a2f2f516d65646476586650335370395144795758667944426b62635a53635258553663426e79725a6b41776644757571697066733a2f2f516d516e7a503434703951366245697534386d34364358473476757733577376344c685279787878335a6776716e697066733a2f2f516d5571553974786b434b4657457864425353483171784659754a38376979586831724553687a316d5a7a625461697066733a2f2f516d6132457442315378377971556131504465736f4757347a3353616a76585062636145475952795453374e4136697066733a2f2f516d646a327941755552386432766e6769445439506a765838704b4868455251547a3335693272626a7136546553697066733a2f2f516d59554c5857697548713979704444544c5a75564856785768354a35786743647a566e4e693655734238746179697066733a2f2f516d6546573663694374513559336d48515872395a733477617643443366704e66484b3865716455345973505142697066733a2f2f516d64574d564e48536169743147477366784b4d4164647a7839556631753370455257394a68566f7a7643596e47697066733a2f2f516d64725a4e6544576365616448505537536275475870517372696833387169587a444732674a376e4d63507636697066733a2f2f516d5750537678545952465a5a597758764b704e6e48516b7146593572634a364a7278555939646b525946626f4b",
  "linkReferences": {},
  "deployedLinkReferences": {}
}